:100000000C9403170C9434170C9434170C94341775
:100010000C9434170C9434170C9434170C94341734
:100020000C9434170C9434170C9434170C94341724
:100030000C9434170C9434170C9434170C94D0DEB1
:100040000C9434170C9434170C9434170C94341704
:100050000C9434170C9434170D944B750C945ED09B
:100060000C9434170C9413A60C94EAA50C94341732
:100070000C9434170C9434170C9434170C943417D4
:100080000C9431980C9434170C9434170C94341746
:100090000C9434170C9434170C9434170C943417B4
:1000A0000C9434170C9434170C9434170C943417A4
:1000B0000C9434170C9434170C9434170C94341794
:1000C0000C9434170C9434170C9434170C94B5A575
:1000D0000C948CA50C9434170C9434170C9434178E
:1000E0000C9434171C313E543431F12D3E543128D8
:1000F0003E543B283E543E54EA3D7A283E543E54FA
:100100007B2776273E54F63E3E543E543E541643DB
:100110001E439848A048A34B3E546543A343E14384
:10012000BA443E443F3F313FF12D7C443E54362893
:10013000D3273E54C52D1B41E62D81483E54DB2D6F
:10014000D02D894891483E5426312643EE39C2418C
:1001500043288A2780273E54FB376B298C4B3E541B
:10016000944BB42AA848F9333E54CF4CBB38C04E08
:100170005E34F8482E43AB4BBA29C032C0327232DB
:10018000C3342C35D42A9328AC285728032B712745
:1001900085273E543E543E546631692B8B2BD9281B
:1001A000BD409A4036433E4345434D4355435D432E
:1001B000EF43F743FF4307440F4417441E442644CC
:1001C0002E4436443E45C844B445874711479B46B4
:1001D0003E549C4B2B2BAE2BC42C66317F32873286
:1001E000A53279480B4B314B804B71489E3AB22770
:1001F000F753F5303E543E5429523E5464404D3F2F
:1002000009366336BC36943536368F36E9366F3765
:1002100043372D301930FC3FFA2DC12E8F2FD42FAC
:1002200030523E30E43017373E543E543E543E5434
:100230003E543E543E543E543E541B41DF28E72872
:100240000D298253BE531E4B504BA848804BB34BD5
:10025000B74C3E54454EA84EDC4D2F4ED54DCD4E9D
:100260003E544C3C773B7750F23DCB3EBA503E5427
:100270003E544D4F964FE14F2C50464FDA4E054FAE
:10028000FD50FE5161533E543E5418533E543E546B
:1002900071533E54C2294C7A2A7B177CF27B4E7BE9
:1002A000CD7BA87B717A967ABB7A987CBD7CE27C08
:1002B000077D057BE07A837BADCEB0CE9FCEA3CE0B
:1002C000A9CEE7CEB4CEB8CEBECEC2CEC6CECCCEB0
:1002D000D0CED4CEE7CEDACEDECEE2CE7ACF7FCF8E
:1002E00084CF8ECF98CF11D0A2CFAACFB2CFBCCF20
:1002F000C6CFD0CFDFCFE9CF11D0F3CFFDCF07D01E
:10030000BF01B301C101C501C901BB01B101CB01ED
:10031000B701BD01C301084AD73B3BCE016E84BC87
:10032000BFFDC12F3D6C74319ABD56833DDA3D004F
:10033000C77F11BED9E4BB4C3E916BAAAABE000098
:1003400000803F05A84CCDB2D44EB93836A9020C76
:1003500050B9918688083CA6AAAA2ABE000000804F
:100360003F000D944C760D94E2750D9491860D949A
:1003700050760D94D4300D9432760D9452760D94BF
:10038000D5750D94FE750D945A760D940B760D94DB
:1003900084880D9425760D944E764E414E494E49F3
:1003A0005459494E46CDCCCC3D0AD7233C17B7D142
:1003B0003877CC2B329595E6241FB14F0A000020E8
:1003C000410000C84200401C4620BCBE4CCA1B0E67
:1003D0005AAEC59D746364696E6F70737578585BAF
:1003E0000047333400494E464F3A204245442043AB
:1003F000414C4942202D200053757266696E67207A
:10040000300A00473238205830205930005430002C
:1004100054310054300054300053757266696E6771
:1004200020300A004734330047343300473431006A
:100430004734300047343300473433004734310009
:10044000473430004D3834004D3834004D383400D6
:100450005A32204F66667365743A20004F4B207302
:1004600065636F6E64204578747275646572210AE5
:10047000005A20706F736974696F6E3A20005A20B9
:10048000706F736974696F6E3A20004D3834005A8A
:10049000312050726F6265206F66667365743A2012
:1004A000004F4B20666972737420457874727564CE
:1004B000657221200A005A20706F736974696F6E2B
:1004C0003A20005A20706F736974696F6E3A200089
:1004D00043616C63756C75733A20200043616C63F3
:1004E000756C75733A20200043616C63756C75738D
:1004F0003A20200043616C63756C75733A202000CC
:1005000054300054300054300043616C69627261B1
:1005100074696F6E205375636365737366756C0AD7
:10052000005430004A756D70206F766572207363D9
:100530007265773120616E64207363726577322053
:100540000A004A756D70206F76657220736372655C
:100550007731200A004733340047333400473334BF
:100560000054300047333400494E464F3A2042454C
:10057000442043414C4942202D2000363020646500
:100580006772656573200A004C6F6164696E670A63
:100590000053757266696E6720300A005375726683
:1005A000696E6720300A0053757266696E67203085
:1005B0000A00253364202563430025336420256326
:1005C000430025336420256343005075726765201E
:1005D00046696C616D656E740A002533642025637D
:1005E00043002533642025634300253364202563BD
:1005F00043002533642025634300253364202563AD
:10060000430025336420256343002533642025639C
:100610004300253364202563430053757266696E79
:100620006720300A0053757266696E6720300A00D1
:10063000543000466F756E640A0053757266696EB9
:100640006720300A004D33340053757266696E6757
:1006500020300A004D3234004D32332025730053D0
:10066000757266696E6720300A0053757266696E2E
:100670006720300A0053757266696E6720300A0081
:10068000535543434553530A0025336420256343A0
:10069000002533642025634300253364202563430C
:1006A00000253364202563430025336420256343FC
:1006B00000253364202563430025336420256343EC
:1006C00000253364202563430025336420256343DC
:1006D000004C6F6164696E673A0A00253364202517
:1006E00063430025336420256343002533642025BC
:1006F00063430050757267652046696C616D656E75
:1007000074200A005374617274696E67205A204322
:10071000616C6962726174696F6E2057697A617287
:10072000640A0047363920414354495641544544F0
:100730000A000A00205A3A200020593A2000205886
:100740003A200042656400456E642066696C65204D
:100750006C6973740A00426567696E2066696C652E
:10076000206C6973740A002E0A0044656C65746914
:100770006F6E206661696C65642C2046696C653A11
:10078000200046696C652064656C657465643A0098
:100790002E0A006F70656E206661696C65642C209E
:1007A00046696C653A20004732382058302059306D
:1007B000004649524D574152455F4E414D453A4DD5
:1007C00061726C696E2042434E3344205369676DF9
:1007D000613B204649524D574152455F5645525361
:1007E000494F4E3A30312D312E322E3852433B2074
:1007F0004649524D574152455F55524C3A687474C0
:1008000070733A2F2F6769746875622E636F6D2F4E
:1008100042434E33442F42434E33445369676D6124
:100820002D4669726D776172653B2050524F544F6F
:10083000434F4C5F56455253494F4E3A312E303B51
:10084000204D414348494E455F545950453A424333
:100850004E3344205369676D613B204558545255CF
:100860004445525F434F554E543A323B205555490B
:10087000443A00205A3A0020593A0020436F756EDE
:100880007420583A200020453A00205A3A00205956
:100890003A00583A007A5F6D696E3A2000795F6DD0
:1008A00061783A2000785F6D61783A2000785F6D5A
:1008B000696E3A2000486F74656E64206F666673D7
:1008C0006574733A002C2073617665645F466C61D1
:1008D000675F66616E6C617965725F6D6972726F78
:1008E000723A20002C2073617665645F66656564EA
:1008F000726174653A20002C2073617665645F66CE
:10090000616E6C617965723A20002C2073617665A6
:10091000645F74656D706265643A20002C207361B9
:100920007665645F74656D70303A20002C207361C9
:100930007665645F74656D70313A20002C207361B8
:100940007665645F66696C65706F736974696F6EF4
:100950003A20002C2073617665645F655F706F7369
:100960006974696F6E3A20002C2073617665645F4C
:10097000746F6F6C5F6163746976653A20002C2038
:1009800073617665645F7A5F706F736974696F6EA7
:100990003A20002C2073617665645F795F706F7315
:1009A0006974696F6E3A20002C2073617665645F0C
:1009B000785F706F736974696F6E3A2000534156A7
:1009C00045205052494E54204C4F473A0A00656327
:1009D000686F3A005072696E74207265636F766555
:1009E00072792075700A004E6F74207072696E748F
:1009F000207265636F766572792075700A0054699C
:100A00006D6520696E6163746976650A0050757260
:100A100067652064697374616E63650A00504F53A3
:100A20004954494F4E20484F4D453A2000220A0074
:100A3000556E6B6E6F776E20636F6D6D616E643A8D
:100A4000202200526561647920746F2053746172B2
:100A5000740A0067636F646520666F756E640A00D0
:100A600020746F20537461727420446973706C61D8
:100A7000792066726F6D20526573657400546F6FD4
:100A80006B2000646973706C6179206F6E6C696EA5
:100A90006521002E00466F726D2032210A005265DA
:100AA00061647920746F204C6F61642F556E6C6F98
:100AB0006164200A00256425250025336420256310
:100AC00043002533642025634300253364256343B5
:100AD000202F202533642563430025336425634399
:100AE000202F202533642563430025336425634389
:100AF000202F20253364256343005072696E7420D3
:100B00004A6F622046696E6973686564004D3834C7
:100B100020582059205A2045004D3130370054309C
:100B20000053757266696E672030200A0043616C5D
:100B30006962726174696F6E205375636365737364
:100B400066756C0A005430004D3834205820592006
:100B50005A2045002520336420252500256420687F
:100B6000202564206D0025203364202525002532B2
:100B70006420256343002533642025634300253327
:100B8000642025634300526561647920746F204CB2
:100B90006F61642F556E6C6F6164200A00256425B7
:100BA0002500253364202563430025336420256315
:100BB00043002053544F50205052494E54200A00B5
:100BC000473238205830205930004D3335005265B7
:100BD00073756D65206465746563746564200A00CF
:100BE00047373000A1524553554D4521200A00A1F9
:100BF000504155534521200A002533642025634385
:100C00000025336420256343002533642025634396
:100C10000025336420256343002533642025634386
:100C20000025336420256343002533642025634376
:100C30000025336420256343002533642025634366
:100C4000005052494E542053455454494E47532066
:100C50000A002564206974656D730024F4D4305053
:100C6000C38E20C2A24017828B7011127A910D811F
:100C70006CD90AA861E108C7586607615143061E8E
:100C80004B5D05C145A7041A411104093D98037144
:100C90003931034036DB0265339102D4305402808F
:100CA0002E1D02632CEE01752AC501B028A001108B
:100CB0002781018F2564012B244B01E0223401ACF4
:100CC000211F018D200D01801FFC00841EED009767
:100CD0001DDF00B81CD200E61BC600201BBC006450
:100CE0001AB200B219A8000A19A0006A189900D116
:100CF00017910040178B00B516840031167E00B3A3
:100D00001579003A157300C7146F0058146A00EE85
:100D10001366008813630025135E00C7125B006C26
:100D200012570015125400C111510070114F0021CB
:100D3000114B00D61049008D1047004610440002A8
:100D4000104200C00F4000800F3E00420F3C0006E2
:100D50000F3B00CB0E3800930E37005C0E3500279A
:100D60000E3400F30D3200C10D3100900D300060E3
:100D70000D2E00320D2D00050D2C00D90C2B00AED0
:100D80000C2900850C29005C0C2700350C27000E6F
:100D90000C2600E80B2400C40B2400A00B23007DCC
:100DA0000B23005A0B2100390B2100180B2000F8EF
:100DB0000A1F00D90A1E00BB0A1E009D0A1D0080E2
:100DC0000A1D00630A1C00470A1B002C0A1B0011A5
:100DD0000A1A00F7091A00DD091900C4091900AB45
:100DE000091900920917007B091800630917004CC4
:100DF00009160036091600200916000A091500F523
:100E0000081500E0081400CC081400B8081400A469
:100E1000081400900813007D0812006B0813005896
:100E200008120046081200340811002308110012AD
:100E300008110001081100F0071000E0071000D0B1
:100E4000071000C0071000B0070F00A107100091A5
:100E5000070E0083070F0074070F0065070E005789
:100E6000070E0049070E003B070D002E070E00205D
:100E7000070D0013070D0006070D00F9060C00ED25
:100E8000060D00E0060C00D4060C00C8060C00BCE1
:100E9000060C00B0060C00A4060B0099060C008D91
:100EA000060B0082060B0077060B006C060B006138
:100EB000060A0057060B004C060A0042060A0038D4
:100EC000060A002E060A0024060A001A060A001066
:100ED00006090007060A00FD050900F4050900EBF4
:100EE000050900E2050900D9050900D0050900C778
:100EF000050900BE050900B5050800AD050800A5F7
:100F00000509009C050800940508008C050800846C
:100F10000508007C050800740508006C05070065DD
:100F20000508005D050700560508004E0507004747
:100F30000507004005080038050700310507002AAD
:100F4000050700230507001C050600160507000F0E
:100F50000507000805060002050700FB040600F56A
:100F6000040700EE040600E8040600E2040700DBC4
:100F7000040600D5040600CF040600C9040600C319
:100F8000040600BD040600B7040600B1040500AC69
:100F9000040600A6040600A00405009B04060095B4
:100FA000040500900406008A0405008504050080FD
:100FB0000406007A04050075040500700405006B42
:100FC00004050066040500610405005C0405005783
:100FD000040500520405004D0405004804050043C3
:100FE0000405003E0404003A040500350405003001
:100FF0000404002C04050027040400230405001E3B
:101000000404001A04040016040500110404000D71
:10101000040400090405000404040000040400FCA6
:10102000030400F8030400F4030400F0030400ECDC
:10103000030400E8030400E4030400E0030400DC0C
:10104000030400D8030400D4030400D0030400CC3C
:10105000030400C8030300C503030024F404D920DB
:101060001BC40C5C0E9804C4095F0265077101F48F
:1010700005F900FB04B30048048700C10369005868
:1010800003550003034500BE023A008402310053B9
:10109000022A002902250004022000E4011C00C8E5
:1010A000011900AF011700980114008401130071A9
:1010B0000110006101100051010E0043010D0036C6
:1010C000010B002B010B0020010B00150109000C86
:1010D00001090003010800FB000800F3000800EB11
:1010E000000700E4000600DE000600D8000600D27B
:1010F000000600CC000500C7000500C2000500BDC9
:10110000000400B9000400B5000400B1000400AD03
:10111000000400A9000400A5000300A20003009F32
:101120000004009B00030098000300950002009358
:10113000000300900003008D0002008B0003008874
:101140000002008600020084000300810002007F8C
:101150000002007D0002007B00020079000200779F
:1011600000010076000200740002007200010071AC
:101170000002006F0002006D0001006C0002006AB6
:1011800000010069000200670001006600010065BF
:1011900000010064000200620001006100010060C3
:1011A0000001005F0002005D0001005C0001005BC7
:1011B0000001005A000100590001005800010057C9
:1011C00000010056000100550001005400010053C9
:1011D00000000053000100520001005100010050C6
:1011E0000001004F0001004E0000004E0001004DC4
:1011F0000001004C0001004B0000004B0001004AC0
:1012000000010049000100480000004800010047BB
:1012100000010046000000460001004500000045B6
:1012200000010044000100430000004300010042AF
:1012300000000042000100410000004100010040A8
:101240000001003F0000003F0001003E0000003EA2
:101250000001003D0000003D0001003C0000003C9A
:101260000000003C0001003B0000003B0001003A90
:101270000000003A00010039000000390001003888
:10128000000000380000003800010037000000377F
:101290000001003600000036000000360001003575
:1012A000000000350000003500010034000000346B
:1012B0000000003400010033000000330000003360
:1012C0000001003200000032000000320001003155
:1012D000000000310000003100010030000000304B
:1012E000000000300001002F0000002F0000002F40
:1012F0000000002F0001002E0000002E0000002E34
:101300000001002D0000002D0000002D0000002D28
:101310000001002C0000002C0000002C0000002C1C
:101320000001002B0000002B0000002B0000002B10
:101330000001002A0000002A0000002A0000002A04
:1013400000010029000000290000002900000029F8
:1013500000000029000100280000002800000028EB
:1013600000000028000000280001002700000027DE
:1013700000000027000000270000002700010026D1
:1013800000000026000000260000002600000026C5
:1013900000010025000000250000002500000025B8
:1013A00000000025000000250001002400000024AA
:1013B000000000240000002400000024000100239D
:1013C0000000002300000023000000230000002391
:1013D0000000002300000023000100220000002282
:1013E0000000002200000022000000220000002275
:1013F0000001002100000021000000210000002168
:101400000000002100000021000000210001002058
:10141000000000200000002000000020000000204C
:101420000000002000000020000000200001001F3C
:101430000000001F0000001F0000001F0000001F30
:101440000000001F0000001F0001001E0000001E21
:101450000000001E0000001E00000000002000230D
:1014600000260029002C002F00320000010000039C
:101470000106010901050505050705080808080218
:101480000202020A0A08080404040401010101011D
:101490000101010303030303030303040707070C0C
:1014A0000C0C0C0C0C0C0C020202020606060606C2
:1014B0000606060B0B0B0B0B0B0B0B01021020206F
:1014C0000808102040102040800201020108040298
:1014D000010102040810204080804020100804020E
:1014E0000180040201804020100804020108040267
:1014F000010102040810204080010204081020406D
:101500008000000A0B02090C0D0E080703040100FD
:1015100000000000000000000000000000000000CB
:101520000000000000000000000000000012111088
:1015300000000000000000000000000000000000AB
:1015400000000000000000202D20496E76616C69CB
:1015500064206578747275646572206E756D62655D
:101560007220210A004572726F723A0064697370CA
:101570006C6179206F66666C696E650042434E331C
:1015800044205369676D610A0073746172740A00C4
:101590006563686F3A0030312D312E322E38524358
:1015A0000A006572726F722077726974696E6720C3
:1015B000746F2066696C650A00205A3A0020593A17
:1015C0000020583A00656E6473746F707320686908
:1015D000743A20006563686F3A00446F6E6520734B
:1015E0006176696E672066696C652E0A006F6B0A0A
:1015F000004D3239003B202020506C6173746963C8
:10160000207765696768743A2025642E2564670031
:101610003B46696C616D656E7420757365643A2034
:1016200025642E25646D2025642E256467003B46C5
:10163000696C616D656E7420757365643A20256C04
:10164000642E256C646D002E2E2E2054696D656FFE
:10165000757421002A2A2A2047656E696520577211
:101660006974654F626A656374202A2A2A202D2DC9
:101670002D3E002E2E2E204E414B2021002A2A2ABC
:101680002047656E69652057726974654F626A65A7
:101690006374202A2A2A202D2D2D3E002E2E2E2046
:1016A00041434B2021002A2A2A2047656E69652084
:1016B00057726974654F626A656374202A2A2A200A
:1016C0002D2D2D3E002A2A2A2047656E696520426D
:1016D00061642042797465202A2A2A202D2D2D3E0E
:1016E000203078002056616C75653A200020496EE4
:1016F0006465783A20002A2A2A2047656E696520A9
:101700005265706F7274204F626A656374202A2A72
:101710002A204F626A6563743A20002A2A2A2047E9
:10172000656E696520436F6E6E6563746564202F16
:101730002053796E6321202A2A2A002056616C7575
:10174000653A200020496E6465783A20002A2A2AEA
:101750002047656E6965205265706F72742045760A
:10176000656E74202A2A2A204F626A6563743A20C3
:1017700000204C656E6774683A20002A2A2A2047A8
:10178000656E6965205265636569766564204D61A3
:1017900067696320446F75626C6520427974657374
:1017A000202A2A2A20496E6465783A2000204C6558
:1017B0006E6774683A20002A2A2A2047656E696598
:1017C000205265636569766564204D6167696320B1
:1017D0004279746573202A2A2A20496E6465783A12
:1017E00020002A2A2A2047656E6965204E414B2039
:1017F0005265636F7665727920212121202A2A2A79
:10180000002A2A2A2047656E696520446973636F40
:101810006E6E65637465642066726F6D20446F45FB
:1018200076656E747321202A2A2A002A2A2A2047E4
:10183000656E696520546F6F6B20746F6F206C6FDD
:101840006E6720746F2072652D656E74657220441A
:101850006F4576656E747328292C207265647563F4
:10186000652064656C61797320696E20636F6465BF
:101870002C2073656C662D70726F74656374696F6C
:101880006E20656E61626C65642E202A2A2A0053E0
:1018900041564544205052494E540A007A70726FA6
:1018A00062653A200053442063617264206F6B0AC2
:1018B000006F70656E526F6F74206661696C65644D
:1018C0000A00766F6C756D652E696E6974206661AD
:1018D000696C65640A004572726F723A0053442065
:1018E000696E6974206661696C0A006563686F3AA5
:1018F000004D3234004D3233202573006175746F12
:1019000025692E67000A0020616E7469686F726134
:1019100072690A3A200020686F726172690A2000B9
:101920002F3800766F6C746573200020566F6C74CE
:10193000657320636172676F6C20333A2000206109
:101940006E7469686F726172690A3A200020686F6C
:10195000726172690A20002F3800766F6C746573AB
:10196000200020566F6C74657320636172676F6C22
:1019700020323A20000A0020647A333A20002064A2
:101980007A323A2000543100543000543000543040
:10199000000A0056756974656E73333A2020004161
:1019A00070726F78333A202000566F6C7465733311
:1019B0003A2020000A0056756974656E73323A2029
:1019C00020004170726F78323A202000566F6C749C
:1019D0006573323A20200056616C6F7220645A336E
:1019E0003A20200056616C6F7220645A323A2020EF
:1019F000004E6577206F6666736574207665727336
:101A0000696F6E3A20007A335F313A20007A325F94
:101A1000313A20005A7363726F6C6C5F313A200068
:101A20007A335F303A20007A325F303A20005A73BE
:101A300063726F6C6C5F303A2000706C616E654E43
:101A40006F726D616C5F312E7A3A2000706C616E3E
:101A5000654E6F726D616C5F312E793A2000706C4B
:101A6000616E654E6F726D616C5F312E783A200049
:101A7000706C616E654E6F726D616C5F302E7A3A7C
:101A80002000706C616E654E6F726D616C5F302E00
:101A9000793A2000706C616E654E6F726D616C5F9B
:101AA000302E783A20005A76616C75652061667434
:101AB000657220686F6D653A00486F6D6520582F1C
:101AC00059206265666F7265205A0A004572726F0E
:101AD0007220577269746520454550524F4D00532E
:101AE000657474696E67732053746F7265640A005D
:101AF000204D696E75746573203A0020204C617327
:101B000074207072696E742074696D652D3E204872
:101B10006F757273203A004C617374207072696E35
:101B200074206475726174696F6E0A002C205468A9
:101B3000697264204944206E756D62657220002CC4
:101B4000205365636F6E64204944206E756D626535
:101B5000723A200020204669727374204944206E36
:101B6000756D6265723A2000554920496E666F7244
:101B70006D6174696F6E2053657269616C204E757A
:101B80006D6265723A0A00206D2C2045312070721A
:101B9000696E742064697374616E63653A20002015
:101BA0006B6D2C204530207072696E7420646973EF
:101BB00074616E63653A2000206B6D2C2059207093
:101BC00072696E742064697374616E63653A200093
:101BD000206B6D2C205831207072696E74206469FE
:101BE0007374616E63653A200020432C0A205830DC
:101BF000207072696E742064697374616E63653AF3
:101C0000200020432C206D61782074656D70204287
:101C10003A200020432C206D61782074656D70207F
:101C2000523A20002C206D61782074656D70204C34
:101C30003A2000682C207072696E74732066696E99
:101C400069736865643A20002C207072696E74694B
:101C50006E672074696D653A200020207072696E8D
:101C600074733A200053544154533A0A0020432CD1
:101C700020525F5052494E543A200020432C2052AB
:101C80005F4245443A200020432C20525F52454D8C
:101C90004F56453A20002020525F494E534552543A
:101CA0003A200054656D70202843293A0A002043E9
:101CB0002C204C5F5052494E543A200020432C2097
:101CC0004C5F4245443A200020432C204C5F524553
:101CD0004D4F56453A200020204C5F494E53455207
:101CE000543A200054656D70202843293A0A002098
:101CF000562856657273696F6E292000205228425B
:101D0000656420726967687420736372657729203F
:101D10000020204D353331204C28426564206C650D
:101D20006674207363726577292000426564204FD2
:101D300066667365747320286D6D293A0A00205019
:101D4000285A2070726F62652900205A200020599D
:101D5000200020204D353330205820004F66667318
:101D600065747320286D6D293A0A002044002049CB
:101D700000202D204D333031205249474854205007
:101D80000020440020490020204D333031204C45B4
:101D900046542050005049442073657474696E673E
:101DA000733A0A00205A0020590020204D32303664
:101DB000205800486F6D65206F6666736574202833
:101DC0006D6D293A0A00204500205A002058002055
:101DD000420020540020204D323035205300416411
:101DE00076616E636564207661726961626C6573A9
:101DF0003A20533D4D696E20666565647261746575
:101E000020286D6D2F73292C20543D4D696E207450
:101E1000726176656C206665656472617465202800
:101E20006D6D2F73292C20423D6D696E696D756D46
:101E3000207365676D656E742074696D6520286D0B
:101E400073292C20583D6D6178696D756D20585946
:101E5000206A65726B20286D6D2F73292C20205A03
:101E60003D6D6178696D756D205A206A65726B20D1
:101E7000286D6D2F73292C2020453D6D6178696D8B
:101E8000756D2045206A65726B20286D6D2F732952
:101E90000A0020540020204D32303420530041638A
:101EA00063656C65726174696F6E3A20533D61635E
:101EB00063656C65726174696F6E2C20543D726548
:101EC000747261637420616363656C6572617469C7
:101ED0006F6E0A00204500205A0020590020204D36
:101EE0003230312058004D6178696D756D20416345
:101EF00063656C65726174696F6E20286D6D2F73F8
:101F000032293A0A00204500205A0020590020209A
:101F10004D3230332058004D6178696D756D206603
:101F2000656564726174657320286D6D2F73293A3D
:101F30000A00204500205A0020590020204D393247
:101F400020580053746570732070657220756E6937
:101F5000743A0A0070012C0190012701B00122019E
:101F6000C0011D01F00118011002130130020E0121
:101F70006002090190020401C002FF000003FA00A0
:101F80004003F5008003F000D003EB002004E600DE
:101F90007004E100E004DC004005D700C005D20079
:101FA0004006CD00D006C8008007C3003008BE0040
:101FB000F008B900C009B400B00AAF00B00BAA0025
:101FC000D00CA500000EA000500F9B00C010960082
:101FD0005012910000148C00C0158700B0178200C9
:101FE000B0197D00D01B7800001E730040206E00E9
:101FF00090226900F024640040275F0090295A0075
:10200000E02B5500102E500020304B0010324600BF
:10201000E033410090353C00103737007038320013
:10202000A0392D00B03A2800A03B2300603C1E00E0
:10203000103D1900903D1400103E0F00703E0A0044
:10204000C03E0500003F00004572726F72283833B1
:10205000293A2042656420746865726D6973746FF3
:1020600072206E6F742064657465637465640A0021
:102070004572726F72283832293A20526967687443
:1020800020746865726D6973746F72206E6F74204E
:1020900064657465637465640A004572726F7228C2
:1020A0003831293A204C65667420746865726D6910
:1020B00073746F72206E6F7420206465746563742E
:1020C00065640A002053544F50205052494E54200A
:1020D0000A004572726F72283833293A20426564CB
:1020E00020746865726D6973746F72206E6F7420EE
:1020F00064657465637465640A002053544F50200E
:102100005052494E54200A004572726F722838327C
:10211000293A20526967687420746865726D697322
:10212000746F72206E6F7420646574656374656487
:102130000A002053544F50205052494E54200A0058
:102140004572726F72283831293A204C65667420C6
:10215000746865726D6973746F72206E6F7420207D
:1021600064657465637465640A002053544F50209D
:102170005052494E54200A004552524F5228383985
:10218000293A20424544206973206E6F74206865A7
:102190006174696E67002053544F50205052494E6D
:1021A00054200A004552524F52283839293A2048C3
:1021B0006F74656E64202564206973206E6F7420CF
:1021C00068656174696E67006563686F3A00000056
:1021D0002100240027002A002D00300033000101D7
:1021E0000000040107010A01000022002500280068
:1021F0002B002E003100340002010000050108010F
:102200000B0143616C63756C75733A202000436168
:102210006C63756C75733A20200043616C63756C58
:1022200075733A202000253364202563430025334D
:1022300064202563430050757267652046696C61B0
:102240006D656E740A0053757266696E6720310A97
:102250000053757266696E6720300A00220A0065B5
:102260006E717565696E67202200202F0020400086
:1022700020403A00204500205A00205900483D588F
:1022800000504944204175746F74756E652066690D
:102290006E697368656421205075742074686520C8
:1022A0006C617374204B702C204B6920616E64202C
:1022B0004B6420636F6E7374616E74732066726F0B
:1022C0006D2061626F766520696E746F20436F6E5A
:1022D00066696775726174696F6E2E680A0050498D
:1022E00044204175746F74756E65206661696C6514
:1022F00064212074696D656F75740A0020403A008E
:102300006F6B20543A006F6B20423A0050494420D2
:102310004175746F74756E65206661696C656421C2
:102320002054656D706572617475726520746F6F8D
:1023300020686967680A00204B643A2000204B69D6
:102340003A2000204B703A200020436C617373697F
:102350006320504944200A002054753A2000204B45
:10236000753A2000206D61783A2000206D696E3A40
:10237000200020643A200020626961733A200053F3
:102380005441544953544943532052455345540AE8
:1023900000535543434553530A0056616C756573AA
:1023A000206F7574206F662072616E67650A005633
:1023B000616C756573206F7574206F662072616E35
:1023C00067650A0056616C756573206F7574206FC0
:1023D000662072616E67650A0056616C75657320D0
:1023E0006F7574206F662072616E67650A00000069
:1023F000A0400000A0400000004020004D6F766526
:1024000020746F3A2000CDCC9843008093430000A5
:102410005243FF01FF20636F6C642065787472750E
:1024200073696F6E2070726576656E7465640A00FC
:102430006563686F3A004D38340053746172746993
:102440006E6720582043616C6962726174696F6EB7
:102450002057697A6172640A004D38340053746100
:102460007274696E6720592043616C69627261748D
:10247000696F6E2057697A6172640A005072696EE2
:102480007465722068616C7465642E206B696C6C75
:1024900028292063616C6C6564210A004572726FA3
:1024A000723A0045787472756465722072656C6565
:1024B00061736564206163746976653A20005A200F
:1024C0005349474D4120486F6D65640A0045787453
:1024D0007275646572206163746976653A200022C2
:1024E0000A00656E717565696E6720220000000044
:1024F0000000809343000000000A0A005374616EDC
:102500006461726420446576696174696F6E3A2013
:10251000000A004D65616E3A20000A002020207AF2
:102520003A20000A00793A2000783A20003F5370A0
:1025300065636966696564206E756D626572206F9A
:1025400066206C65677320696E206D6F76656D65BA
:102550006E74206E6F7420706C61757361626C654F
:102560002E0A003F537065636966696564205920CF
:10257000706F736974696F6E206F7574206F662059
:1025800072616E67652E0A003F5370656369666904
:102590006564205820706F736974696F6E206F7561
:1025A00074206F662072616E67652E0A003F53705B
:1025B000656369666965642073616D706C6520731D
:1025C000697A65206E6F7420706C61757361626CDE
:1025D000652E0A0046756C6C20737570706F72748E
:1025E0002061743A20687474703A2F2F33647072CB
:1025F000696E74626F6172642E636F6D2F666F72A5
:10260000756D2E7068700A004D3438205A2D507246
:102610006F6265205265706561746162696C69748E
:102620007920746573742E20202056657273696F4B
:102630006E20322E30300A003F566572626F73652D
:10264000204C6576656C206E6F7420706C617573BC
:1026500061626C652E0A006F6B00426564204865FC
:10266000617465640A0020573A0045787472756495
:102670006572204865617465640A0020573A00500D
:102680004944204175746F74756E652066696E6982
:1026900073686564210A00504944204175746F7461
:1026A000756E65206661696C6564212074696D656D
:1026B0006F75740A0020403A006F6B20543A006F27
:1026C0006B20423A00504944204175746F74756E16
:1026D00065206661696C6564212054656D70657262
:1026E000617475726520746F6F20686967680A008D
:1026F000204B643A2000204B693A2000204B703A6E
:10270000200020436C617373696320504944200AA0
:10271000002054753A2000204B753A2000206D614E
:10272000783A2000206D696E3A200020643A20003B
:1027300020626961733A20003B20472D436F646536
:102740002067656E657261746564206279205369E3
:102750006D706C696679334428522920566572730E
:10276000696F6E202564003B5072696E7420746935
:102770006D653A202564202573202564202573206B
:102780002564202573003B54494D453A256C64006F
:102790003B2020204275696C642074696D653A2085
:1027A0002564202573202564202573007C3C3E5E33
:1027B0002B3D3F2F5B5D3B2C2A225C004361726402
:1027C000204E616D653A20002F00534420707269DD
:1027D0006E74696E67206279746520004E6F742094
:1027E0005344207072696E74696E670A002569200F
:1027F0006D696E2C202569207365630052657365D1
:102800006E643A20006F6B0A004475616C204D6F56
:102810006465204F46460A00436F6F6C696E6720FF
:10282000446F776E204865617465720A002A2A2A0F
:102830002047656E696520446973636F6E6E6563DA
:102840007465642066726F6D204765744E65787498
:102850004279746521202A2A2A002A2A2A204765DB
:102860006E696520456E61626C65204174746163B8
:10287000684576656E7448616E646C6572202121CE
:1028800021202A2A2A0043616E6E6F7420656E74BF
:102890006572207375626469723A200057726974B8
:1028A000696E6720746F2066696C653A20002E0A95
:1028B000006F70656E206661696C65642C204669E6
:1028C0006C653A20002E0A006F70656E20666169A3
:1028D0006C65642C2046696C653A200046696C651D
:1028E0002073656C65637465640A002053697A65BA
:1028F0003A200046696C65206F70656E65643A2009
:10290000002E0A006F70656E206661696C65642C2C
:102910002046696C653A20004E6F772066726573B9
:10292000682066696C653A20004E6F7720646F6995
:102930006E672066696C653A20002220706F730014
:102940002220706172656E743A2200535542524FD4
:102950005554494E452043414C4C20746172676583
:10296000743A2200747279696E6720746F20636113
:102970006C6C207375622D67636F64652066696C8B
:102980006573207769746820746F6F206D616E794C
:10299000206C6576656C732E204D4158206C6576F1
:1029A000656C2069733A00535543434553530A00FD
:1029B00056616C756573206F7574206F6620726147
:1029C0006E67650A0056616C756573206F757420BB
:1029D0006F662072616E67650A0056616C7565737B
:1029E000206F7574206F662072616E67650A0056ED
:1029F000616C756573206F7574206F662072616EEF
:102A000067650A0020502000205A2000205920002D
:102A1000536574204D353330205820004D6F646568
:102A20002032203A206379636C652020202D3E20DF
:102A30005247423A203620737461746573002A2A23
:102A40002D3E20004D6F64652031203A2072616E6A
:102A5000646F6D20202D3E205247423A202B3120BA
:102A60002B32202B332C20647572696E67207072B4
:102A7000696E74696E67002A2A2D3E20004D6F64CE
:102A8000652030203A2064656661756C74202D3EA7
:102A9000205247423A203235352032353520323502
:102AA00035002A2A2D3E20004C6564206D6F646538
:102AB00073203A004D353336204C5B6D6F64655D95
:102AC00000486F74656E64206F6666736574733A50
:102AD000005A204F6666736574206F6B0A005A2097
:102AE0004F6666736574203A200A007A5F6D6178DC
:102AF0003A20007A5F6D696E3A20005A204F666670
:102B000073657400504F534954494F4E20484F4D00
:102B1000453A2000CDCC98430080934300005243B7
:102B20000000000000000000000000000A00207A01
:102B30003A200020793A200020783A20004265644B
:102B40000045787472756465722072656C65617396
:102B50006564206163746976653A20005A205349A0
:102B6000474D4120486F6D65640A00457874727561
:102B7000646572206163746976653A200053746FEE
:102B80007265642073657474696E6773207265740E
:102B90007269657665640A0048617264636F646592
:102BA000642044656661756C742053657474696E45
:102BB0006773204C6F616465640A004861726463E6
:102BC0006F6465642043616C696220616E642050AB
:102BD00049442044656661756C742053657474695A
:102BE0006E6773204C6F616465640A004552524FF2
:102BF00052283838293A2054656D706572617475B1
:102C00007265206E6F74207265616368656420620E
:102C100079204865617465725F49443A20256400F3
:102C20004552524F52283838293A2054656D706504
:102C3000726174757265206E6F742072656163686D
:102C40006564206279204865617465725F49443A21
:102C50002025640048797374657265736973207404
:102C6000656D70657261747572650A00546865728D
:102C70006D616C2072756E617761792070726F740E
:102C8000656374696F6E206279204865617465724E
:102C90005F49443A0A004D31303700256920686F9A
:102CA000757273202569206D696E757465730044B3
:102CB0006F6E65207072696E74696E672066696CEC
:102CC000650A004D33330070617573652064657467
:102CD0006563746564200A00473639005072696E76
:102CE0007465722073746F707065642064756520FC
:102CF000746F206572726F72732E2046697820742B
:102D00006865206572726F7220616E6420757365EC
:102D1000204D39393920746F207265737461727473
:102D20002E202854656D7065726174757265206916
:102D3000732072657365742E205365742069742046
:102D400061667465722072657374617274696E670E
:102D5000290A006F6B0A004E6F204C696E65204E89
:102D6000756D626572207769746820636865636B4E
:102D700073756D2C204C617374204C696E653A201C
:102D8000004E6F20436865636B73756D20776974BF
:102D900068206C696E65206E756D6265722C204CC2
:102DA000617374204C696E653A2000636865636BDB
:102DB00073756D206D69736D617463682C204C614F
:102DC0007374204C696E653A20004C696E65204E24
:102DD000756D626572206973206E6F74204C61732B
:102DE00074204C696E65204E756D6265722B312CB6
:102DF000204C617374204C696E653A20004D31316E
:102E00003000B501C70111241FBECFEFD1E2DEBFF4
:102E1000CDBF00E00CBF17E0A0E0B2E0EEE8F0E4C8
:102E200003E00BBF02C007900D92A436B107D9F79B
:102E30002CE1A4E6B7E001C01D92AA3BB207E1F77E
:102E400017E1C2E0D7E100E006C021970109802F19
:102E5000FE010F94AA9DC130D10780E00807A9F7B1
:102E60000F94A0800D9436A00C9400002F923F92F6
:102E70004F925F926F927F928F929F92AF92BF928A
:102E8000CF92DF92EF92FF920F931F93CF93DF9336
:102E9000CDB7DEB7C153D1400FB6F894DEBF0FBE39
:102EA000CDBF2DB63EB611E01093080880919A0769
:102EB00081110CC00E9452D06093960770939707BF
:102EC000809398079093990710939A0780918E07A3
:102ED00081110DC00E9452D060938A0770938B07B6
:102EE00080938C0790938D0781E080938E0780916B
:102EF000CC164091720250917302609174027091ED
:102F00007502811106C09091CD16992311F40C948D
:102F100032254E3851056105710509F46EC60CF075
:102F2000D6C04D3351056105710509F4D3C10CF0CC
:102F30005BC0403251056105710511F40C940F23FB
:102F400034F5403151056105710509F474C174F41B
:102F5000413051056105710509F4A7C142305105A1
:102F60006105710509F430C30C943E54423151059A
:102F70006105710509F443C214F40C946C224331C9
:102F800051056105710509F40CC20C943E5442339D
:102F900051056105710509F417C37CF441325105EF
:102FA0006105710511F40C94FE2241335105610550
:102FB000710509F4D8C10C943E544533510561059F
:102FC000710511F40C94E3234A3351056105710531
:102FD00011F40C94F61F443351056105710511F08D
:102FE0000C943E540C94BD21483551056105710582
:102FF00009F49AC154F5463451056105710509F487
:103000008EC47CF4413451056105710509F410C486
:10301000443451056105710511F40C946F200C9432
:103020003E544F3451056105710509F46AC54735B1
:1030300051056105710509F4C4C14E34510561059E
:10304000710511F00C943E54E1C44B3751056105F4
:10305000710509F4DFC274F44A3551056105710543
:1030600009F4D8C2463751056105710509F4D6C186
:103070000C943E54483851056105710509F4E5C0CA
:10308000493851056105710509F4EAC04C3751050D
:103090006105710511F00C943E5440E050E06AE285
:1030A0008AE00E946BAB40E050E06DE781E20E9455
:1030B0006BAB11E010938B1C10928E1C65EA77E0CD
:1030C00086E20E9470AC1093A4070C943E544D39D4
:1030D00051056105710511F40C9474230CF04FC077
:1030E000453951056105710509F4EEC6F4F441391D
:1030F00051056105710509F478C574F44F3851051F
:103100006105710509F4D2C54039510561057105A4
:1031100009F427C60C943E544339510561057105E5
:1031200009F4F1C50CF495C548C648395105610547
:10313000710511F40C94B8237CF4463951056105EE
:10314000710509F494C6473951056105710511F4FB
:103150000C94C9230C943E544B39510561057105FB
:1031600011F40C94262314F00C942F234A395105A2
:103170006105710511F40C941D230C943E54463ADC
:1031800051056105710509F406C21CF5423A510565
:103190006105710509F454C07CF4403A510561059C
:1031A000710511F40C94DA23413A5105610571055A
:1031B00009F430C60C943E54443A5105610571053A
:1031C00009F4FDC10CF0F1C181E080936D080C940D
:1031D0003E54493A51056105710509F4EBC194F477
:1031E000473A51056105710509F4DAC1483A5105BC
:1031F0006105710511F00C943E5481E080936708DD
:103200000C943E544E3B51056105710509F49EC076
:10321000433D51056105710511F40C94F4244A3ABB
:1032200051056105710511F00C943E5481E08093C5
:1032300066080C943E5481E080936F080C943E54D1
:1032400081E080936E080C943E5481E080936F0877
:1032500041E050E069E881E20E946BAB0C943E547F
:1032600080910E02833411F00C943E5482E48093DA
:103270000E0240E050E067E581E20E946BAB40E067
:1032800050E066E781E20E946BAB40E050E068E806
:1032900081E20E946BAB40E050E069E881E20E946D
:1032A0006BAB10928E1C0C943E5410928B1C80E0E1
:1032B0000E94ECB381E080938A1C8093561A40E010
:1032C00050E068E08AE00E946BAB81E48093571A7B
:1032D0000C943E5480910E0240E050E0813491F411
:1032E00069E08AE00E946BAB11E010938B1C65EAE9
:1032F00077E082E00E9470AC1093A40710928E1CBD
:103300000C943E546AE28AE00E946BAB11E0109389
:103310008B1C65EA77E086E20E9470AC1093A407EC
:1033200010928E1C0C943E548091061C81110C94BA
:103330003E548091CD1681110C943E5440E050E0F3
:1033400069E38AE00E946BAB0C943E548091061CAA
:1033500081110C943E5440E050E061E08AE00E940C
:103360006BAB0C943E548091061C81110C943E541E
:1033700000910E02013411F00C943E5410928B1CFB
:103380001092CC1611E01093CD1640E050E068E0AA
:103390008AE00E946BAB0093571A1093AA1C0C94FE
:1033A0003E5480910E02813411F00C943E5440E062
:1033B00050E061E08AE00E946BAB10928B1C0C9491
:1033C0003E5480910E02823491F3833411F00C94B8
:1033D0003E5440E050E066E18AE00E946BAB41E081
:1033E00050E06DE781E20E946BAB82E580931302AF
:1033F00081E080938E1C10928B1C0C943E54882389
:1034000011F40C943E5480910E02813411F00C940E
:103410003E5481E0809365080C943E548091CD1613
:10342000882311F40C943E5480910E02823429F4C6
:1034300081E0809364080C943E54833411F00C9422
:103440003E5411E01093FD0740E050E068E981E24E
:103450000E946BAB40E050E067E981E20E946BABF9
:1034600040E050E06CE981E20E946BAB40E050E04C
:103470006DE981E20E946BAB41E050E067E881E2D8
:103480000E946BAB40E050E06CE28AE00E946BABC4
:1034900010938E1C8FEF9FEF9093A3028093A20254
:1034A000E3EFF6E084918F01882351F0082E000CA1
:1034B000990B0E9461B10F5F1F4FF8018491F4CF07
:1034C00040E050E06AE981E20E946BAB40E050E0EE
:1034D0006BE981E20E946BAB1F9210EBF12EFF9221
:1034E0006091081C7091091C80910A1C90910B1C22
:1034F0000F94DF9A7F936F938BEE96E09F938F9359
:103500008E010F5F1F4F1F930F930F946992B801A5
:103510008AE00E9470ACC8010E94F2AE1F92FF9236
:1035200060910C1C70910D1C80910E1C90910F1CD1
:103530000F94DF9A7F936F9383EE96E09F938F9320
:103540001F930F930F946992B80181E10E9470ACB0
:10355000C8010E94F2AE1F92FF921F921F928BED44
:1035600096E09F938F931F930F930F946992B801E6
:1035700085E00E9470ACC8010E94F2AE10928B1CD4
:103580002DB73EB7285E3F4F0FB6F8943EBF0FBE33
:103590002DBF0C943E5481E080936A080C943E54F5
:1035A00081E0809369080C943E5481E080936C081C
:1035B0000C943E5481E0809368080C943E5481E062
:1035C00080936B080C943E5442305105610571059F
:1035D00011F489E406C0423351056105710519F4FF
:1035E00082E58093130240E050E06CE481E20E94A7
:1035F0006BAB40E050E06BE481E20E946BAB40E0DB
:1036000050E064E18AE00E946BAB8FEF8093AC1BCB
:103610000C943E544A3551056105710519F4109218
:10362000AC1B03C081E08093AC1B8091AC1B082FC6
:1036300010E0000F111FF801E751F04F2081318198
:10364000309389072093880781111EC08091401B09
:103650009091411B60916E0770916F076817790711
:103660002CF4BC01990F880B990B04C0072E000C99
:10367000880B990B0F94BF920751104F0F94DF9A4C
:10368000D8016D937C931DC08091701C9091711C2A
:1036900060916C0770916D07681779072CF4BC0175
:1036A000990F880B990B04C0072E000C880B990BFF
:1036B0000F94BF920751104F0F94DF9AF801718356
:1036C00060830F94047781E48093571A40E050E0C0
:1036D00068E08AE00E946BAB40E050E06DE781E279
:1036E0000E946BAB80E090E0A3E4B3E480930C1005
:1036F00090930D10A0930E10B0930F108090981B14
:103700009090991BA0909A1BB0909B1B2091081041
:103710003091091040910A1050910B1060910410E3
:10372000709105108091061090910710E7EF6E2EB2
:10373000EFE07E2E7F926F92F0E1CF2EF0E1DF2E50
:10374000E12CF12C03E413E40E94E9F40F949E7A37
:1037500080E090E0A0E2B1E480930810909309101B
:10376000A0930A10B0930B108090941B9090951B1F
:10377000A090961BB090971BE0900C10F0900D104D
:1037800000910E1010910F106091041070910510AF
:1037900080910610909107107F926F9220E030E0A8
:1037A00040E251E40E94E9F40F949E7A0F900F904A
:1037B0000F900F908091571A8E3411F40C94922927
:1037C0001092571A0E94E97460E074E08DE20E9442
:1037D00070AC40E050E068E28AE00E946BAB009180
:1037E000AC1B10E0F801EE0FFF1FEE0FFF1FE85FAC
:1037F000F34E60817181828193810F94DF9A70937F
:10380000FB076093FA07000F111FF801E751F04F13
:10381000808191819093F9078093F80788E48093E1
:10382000571A0E94E97481E08093FC070C943E547F
:103830008091AC1B8130C1F540E050E068E08AE047
:103840000E946BAB87ED90E09093AF0D8093AE0D2F
:103850009093731C8093721C8AEA90E09093711C81
:103860008093701C81E490E09093AB0D8093AA0D3F
:103870000E9416CB8091721C9091731C9093EC0F58
:103880008093EB0F0F9404770E9452E540E050E0E4
:103890006EE781E20E946BAB40E050E06DE481E2B4
:1038A0000E946BAB0C943E5481110C943E5440E04A
:1038B00050E068E08AE00E946BAB87ED90E0909367
:1038C000B10D8093B00D9093431B8093421B8AEA05
:1038D00090E09093411B8093401B81E490E0909393
:1038E000AD0D8093AC0D0E9416CB8091421B909140
:1038F000431B9093EA0F8093E90F0F9404770E9483
:1039000052E540E050E06EE781E20E946BAB40E0A0
:1039100050E06DE481E20E946BAB0C943E548091C8
:10392000AC1B8130C1F540E050E068E08AE00E94C5
:103930006BAB84E091E09093AF0D8093AE0D9093CC
:10394000731C8093721C86EE90E09093711C8093A0
:10395000701C8AE590E09093AB0D8093AA0D0E94B5
:1039600016CB8091721C9091731C9093EC0F8093F6
:10397000EB0F0F9404770E9452E540E050E06EE7B1
:1039800081E20E946BAB40E050E06DE481E20E9476
:103990006BAB0C943E5481110C943E5440E050E0CB
:1039A00068E08AE00E946BAB84E091E09093B10DF7
:1039B0008093B00D9093431B8093421B86EE90E062
:1039C0009093411B8093401B8AE590E09093AD0D4E
:1039D0008093AC0D0E9416CB8091421B9091431BAB
:1039E0009093EA0F8093E90F0F9404770E9452E5B9
:1039F00040E050E06EE781E20E946BAB40E050E0B7
:103A00006DE481E20E946BAB0C943E548091AC1B40
:103A10008130D1F540E050E068E08AE00E946BAB75
:103A20008CED90E09093AF0D8093AE0D86EE90E01C
:103A30009093731C8093721C80EA90E09093711CA9
:103A40008093701C8CE390E09093AB0D8093AA0D53
:103A50000E9416CB8091721C9091731C9093EC0F76
:103A60008093EB0F0F9404770E9452E540E050E002
:103A70006EE781E20E946BAB40E050E06DE481E2D2
:103A80000E946BAB0C943E5481110C943E5440E068
:103A900050E068E08AE00E946BAB8CED90E0909380
:103AA000B10D8093B00D86EE90E09093431B809310
:103AB000421B80EA90E09093411B8093401B8CE373
:103AC00090E09093AD0D8093AC0D0E9416CB809149
:103AD000421B9091431B9093EA0F8093E90F0F9440
:103AE00004770E9452E540E050E06EE781E20E94D8
:103AF0006BAB40E050E06DE481E20E946BAB0C9454
:103B00003E548091AC1B823010F00C943E5440E047
:103B100050E064E38AE00E946BAB1F9230EBF32E1F
:103B2000FF9280910D028F9380910C028F9303E09E
:103B300014E01F930F936E01FCEDCF1AFEEFDF0A26
:103B4000DF92CF920F9406A0B6018DE00E9470AC78
:103B50001F92FF9280910B028F9380910A028F93A4
:103B60001F930F936E0126EEC21A2EEFD20ADF9238
:103B7000CF920F9406A0B6018EE00E9470AC1F9207
:103B8000FF92809109028F93809108028F931F9377
:103B90000F936E0131E0C30ED31EDF92CF920F94CC
:103BA00006A0B6018FE00E9470AC1F92FF92809138
:103BB00007028F93809106028F931F930F938E01BC
:103BC0000F5F1F4F1F930F930F9406A04DB75EB763
:103BD000405E5F4F0FB6F8945EBF0FBE4DBFB80199
:103BE00082E10E9470AC0C943E5440E050E064E1ED
:103BF0008AE00E946BAB0C943E5480910C02909131
:103C00000D021816190614F00C943E540A9790935E
:103C10000D0280930C021F9220EB2F939F938F93A2
:103C20008AE094E09F938F938E010F5F1F4F1F9345
:103C30000F930F9406A0B8018DE00E9470AC8DB771
:103C40009EB708960FB6F8949EBF0FBE8DBF0C941A
:103C50003E5480910C0290910D028633A1E09A07A8
:103C600014F00C943E540A9690930D0280930C022B
:103C70001F9220EB2F939F938F938AE094E09F9362
:103C80008F938E010F5F1F4F1F930F930F9406A00A
:103C9000B8018DE00E9470ACEDB7FEB738960FB654
:103CA000F894FEBF0FBEEDBF0C943E5480910A0203
:103CB00090910B021816190614F00C943E540A97B2
:103CC00090930B0280930A021F9220EB2F939F93F5
:103CD0008F938AE094E09F938F938E010F5F1F4F25
:103CE0001F930F930F9406A0B8018EE00E9470AC52
:103CF0002DB73EB7285F3F4F0FB6F8943EBF0FBEBB
:103D00002DBF0C943E5480910A0290910B02863391
:103D100031E0930714F00C943E540A9690930B02F2
:103D200080930A021F9220EB2F939F938F938AE038
:103D300094E09F938F938E010F5F1F4F1F930F93FC
:103D40000F9406A0B8018EE00E9470AC4DB75EB72C
:103D5000485F5F4F0FB6F8945EBF0FBE4DBF0C9427
:103D60003E5480910802909109021816190614F029
:103D70000C943E540A9790930902809308021F9274
:103D800020EB2F939F938F938AE094E09F938F93E0
:103D90008E010F5F1F4F1F930F930F9406A0B80162
:103DA0008FE00E9470AC8DB79EB708960FB6F8945E
:103DB0009EBF0FBE8DBF0C943E548091080290911F
:103DC00009028633A1E09A0714F00C943E540A9637
:103DD00090930902809308021F9220EB2F939F93E8
:103DE0008F938AE094E09F938F938E010F5F1F4F14
:103DF0001F930F930F9406A0B8018FE00E9470AC40
:103E0000EDB7FEB738960FB6F894FEBF0FBEEDBF04
:103E10000C943E54809106029091070218161906E0
:103E200014F00C943E540A97909307028093060274
:103E30001F9220EB2F939F938F938AE094E09F93A0
:103E40008F938E010F5F1F4F1F930F930F9406A048
:103E5000B80182E10E9470AC2DB73EB7285F3F4F9A
:103E60000FB6F8943EBF0FBE2DBF0C943E54809108
:103E70000602909107028936910514F00C943E5485
:103E80000A9690930702809306021F9220EB2F93CD
:103E90009F938F938AE094E09F938F938E010F5F9F
:103EA0001F4F1F930F930F9406A0B80182E10E9449
:103EB00070AC4DB75EB7485F5F4F0FB6F8945EBF0A
:103EC0000FBE4DBF0C943E5440E050E068E08AE0E5
:103ED0000E946BABE091AC1B40910C0250910D0223
:103EE00020910A0230910B02609108027091090240
:103EF0008091060290910702E11130C06C33A1E07D
:103F00007A0714F06BE371E07093B10D6093B00D1C
:103F10004C33B1E05B0714F04BE351E05093431B8B
:103F20004093421B2C33E1E03E0714F02BE331E0D9
:103F30003093411B2093401B8F36910514F08EE681
:103F400090E09093AD0D8093AC0D8091421B9091C9
:103F5000431B9093EA0F8093E90F34C06C33F1E078
:103F60007F0714F06BE371E07093AF0D6093AE0DBB
:103F70004C3361E056072CF45093731C4093721C31
:103F800006C04BE351E05093AF0D4093AE0D2C3380
:103F9000A1E03A0714F02BE331E03093711C209339
:103FA000701C8F36910514F08EE690E09093AB0D67
:103FB0008093AA0D8091721C9091731C9093EC0FCA
:103FC0008093EB0F0F9404770E9416CB0E9452E56A
:103FD00040E050E06EE781E20E946BAB40E050E0D1
:103FE0006DE481E20E946BAB0C943E5460E074E09F
:103FF0008DE20E9470AC40E050E068E28AE00E94EE
:104000006BAB88E48093571A0E94E9740091AC1B53
:1040100001111DC08091421B9091431B60916A0762
:1040200070916B07681779072CF4BC01990F880B06
:10403000990B04C0072E000C880B990B0F94BF92AC
:104040000F94DF9A7093EA0F6093E90F20C080917C
:10405000721C9091731C60916807709169076817D2
:1040600079072CF4BC01990F880B990B04C0072E1B
:10407000000C880B990B0F94BF9210E0000F111FDA
:104080000751104F0F94DF9AF801718360830F94EA
:1040900004770091AC1B10E0F801EE0FFF1FEE0F4C
:1040A000FF1FE85FF34E60817181828193810F94DD
:1040B000DF9A7093FB076093FA07000F111FF80156
:1040C000E751F04F808191819093F9078093F80731
:1040D0000E94E97481E08093FC070C943E54809127
:1040E0001302893411F00C943E5440E050E068E033
:1040F0008AE00E946BAB81E48093571AE091AC1B7D
:1041000024E0E29FF0011124EA53FD4F60817181A8
:104110008281938160930410709305108093061040
:1041200090930710E0900C10F0900D1000910E107D
:1041300010910F10209108103091091040910A1031
:1041400050910B100E94DEADE0900C10F0900D101D
:1041500000910E1010910F1020910810309109104D
:1041600040910A1050910B1060910410709105104D
:104170008091061090910710ECEAFBE1FF93EF931A
:10418000812CA0E89A2EABE3AA2EA6E4BA2EB0E1C9
:10419000CB2EB0E1DB2E0E94E9F40F949E7AE1ED84
:1041A000F6E084910F900F908F01882351F0082E34
:1041B000000C990B0E9461B10F5F1F4FF8018491B1
:1041C000F4CF20E030E040EF51E4609110107091A6
:1041D000111080911210909113100F9445996093D3
:1041E0001010709311108093121090931310E090A0
:1041F0000C10F0900D1000910E1010910F102091E6
:1042000008103091091040910A1050910B106091E4
:104210000410709105108091061090910710BCEA6F
:104220006B2EBBE17B2E7F926F92812C912CE0E371
:10423000AE2EE1E4BE2EF0E1CF2EF0E1DF2E0E94A3
:10424000E9F40F949E7A0F900F908091571A8E3454
:1042500011F40C94922920E030E047E554E4609199
:1042600010107091111080911210909113100F94F2
:104270004599AB01BC01409310105093111060930D
:1042800012107093131082E494E10E94B2B3E09094
:104290000C10F0900D1000910E1010910F10209145
:1042A00008103091091040910A1050910B10609144
:1042B00004107091051080910610909107107F9264
:1042C0006F92812C912CA0E7AA2EA2E4BA2E0E9414
:1042D000E9F40F949E7A0F900F908091571A8E34C4
:1042E00011F40C94922920E030E048E452E460910B
:1042F00010107091111080911210909113100F9462
:104300004599609310107093111080931210909340
:104310001310E0900C10F0900D1000910E10109101
:104320000F10209108103091091040910A105091FF
:104330000B106091041070910510809106109091FF
:1043400007107F926F92812C912CA12CF0E4BF2E4C
:104350000E94E9F40F949E7A0F900F908091571A63
:104360008E3409F4DFC71092571A40E050E06EE037
:104370008AE00E946BAB0C943E548091130282350C
:1043800011F00C943E5440E050E068E08AE00E9456
:104390006BAB81E48093571A66E272E080E090E0B4
:1043A0000E941AD020E030E646E854E460911010F4
:1043B0007091111080911210909113100F944499E4
:1043C000609310107093111080931210909313103B
:1043D000E0900C10F0900D1000910E1010910F1045
:1043E000209108103091091040910A1050910B1043
:1043F0006091041070910510809106109091071043
:10440000ECEAFBE1FF93EF93812C912CB0E7AB2E0C
:10441000B2E4BB2EE0E1CE2EE0E1DE2E0E94E9F414
:104420000F949E7A0F900F908091571A8E3409F452
:1044300079C786E090E09093050280930402109281
:10444000571A12E410933D1A0E94E97440E050E0BC
:1044500065E18AE00E946BAB40E050E06BE084E1F4
:104460000E946BAB1093571A8091AC1B81111AC03C
:104470008091421B9091431B90936B0780936A0736
:104480008091401B9091411B90936F0780936E0722
:104490008091B00D9091B10D90936707809366075E
:1044A0000C943E548091721C9091731C90936907F8
:1044B000809368078091701C9091711C90936D0798
:1044C00080936C078091AE0D9091AF0D909365072E
:1044D000809364070C943E548091F30781110C94EF
:1044E0003E5440E050E065E18AE00E946BAB40E062
:1044F00050E06BE084E10E946BAB82E48093571A3A
:1045000080933D1AE091AC1B24E0E29FF00111245E
:10451000EA53FD4F60817181828193816093041021
:10452000709305108093061090930710E0900C1084
:10453000F0900D1000910E1010910F1020910810A6
:104540003091091040910A1050910B10ECEAFBE1F8
:10455000FF93EF93812CE0E89E2EEBE3AE2EE6E492
:10456000BE2EF0E1CF2EF0E1DF2E0E94E9F4E090C4
:104570000C10F0900D1000910E1010910F10209162
:1045800008103091091040910A1050910B10E091E1
:10459000F70F64E0E69FF0011124EA53FD4F6081BC
:1045A0007181828193810E94DEADE091F70F84E0FA
:1045B000E89FF0011124EA53FD4F80819181A2818F
:1045C000B3818093041090930510A0930610B093CC
:1045D0000710E091AC1BF0E0EE0FFF1FE751F04F2A
:1045E0008091880790918907918380830F94047745
:1045F0000F949E7A0F900F900C943E548091F30785
:1046000081110C943E549091A90D8091A80D98139E
:104610000C945C5481E08093FF070C943E5480918D
:10462000F30781110C943E549091A90D8091A80D2F
:1046300098130C945C540C945F549091A90D809144
:10464000A80D98130C943E540C9463549091A90DAA
:104650008091A80D98130C943E540C943755E0911A
:10466000A202F091A302EF3F5FEFF50711F40C9463
:104670003E54EE0FFF1FE751F04F808191818B3345
:1046800061E0960714F00C943E5405969183808364
:104690000F9404770F9404771F9280EB8F93E0912F
:1046A000A202F091A302EE0FFF1FE751F04F8181AC
:1046B0008F9380818F9381E996E09F938F938E01F2
:1046C0000F5F1F4F1F930F930F946992B80185E0FE
:1046D0000E9470AC8DB79EB708960FB6F8949EBF37
:1046E0000FBE8DBF0C943E54E091A202F091A30244
:1046F000EF3F9FEFF90711F40C943E54EE0FFF1FAC
:10470000E751F04F808191811816190614F00C942E
:104710003E540597918380830F9404770F94047718
:104720001F9280EB8F93E091A202F091A302EE0F13
:10473000FF1FE751F04F81818F9380818F9389E82C
:1047400096E09F938F938E010F5F1F4F1F930F93E0
:104750000F946992B80185E00E9470ACADB7BEB706
:1047600018960FB6F894BEBF0FBEADBF0C943E5462
:104770008091A2029091A302019611F40C943E54F0
:104780009091A90D8091A80D98130C945C540C94F1
:1047900010568091A2029091A302019611F40C94FC
:1047A0003E549091A90D8091A80D98130C945C54DF
:1047B0000C9414569091A90D8091A80D98130C9407
:1047C0003E540C94185680913D1A823411F00C948A
:1047D0003E54E0E8F6E084918F01882351F0082EE2
:1047E000000C990B0E9461B10F5F1F4FF80184917B
:1047F000F4CF1092571A1092F3078091130282356A
:1048000009F047C089E4809313028091AC1B81308A
:1048100049F441E050E06CE481E20E946BAB40E07F
:1048200050E008C040E050E06CE481E20E946BABD5
:1048300041E050E06BE481E20E946BAB41E050E06C
:104840006EE781E20E946BAB41E050E06DE481E2F3
:104850000E946BAB41E050E061E481E20E946BABEF
:1048600041E050E066E481E20E946BAB41E050E041
:104870006EE481E20E946BAB41E050E06FE481E2C4
:104880000E946BAB40E050E064E18AE00E946BABB9
:10489000A7C0893409F0A4C081E48093571A40E08E
:1048A00050E068E08AE00E946BAB4090C2075090F5
:1048B000C3076090C4077090C507409208105092DB
:1048C000091060920A1070920B1020E030E040E76F
:1048D00052E460918C0270918D0280918E029091D1
:1048E0008F020F94339A4B015C01E0900C10F09012
:1048F0000D1000910E1010910F1060910410709126
:104900000510809106109091071027EF3FE03F932C
:104910002F9350E1C52E50E1D52EA30192010E94A4
:10492000E9F40F949E7A0F900F908091571A8E346D
:1049300009F4F8C420E030E040E251E46091C60799
:104940007091C7078091C8079091C9070F94459946
:104950007B018C0160930C1070930D1080930E10EE
:1049600090930F108091BD07898380909002909062
:104970009102A0909202B090930220910810309181
:10498000091040910A1050910B1060910410709121
:1049900005108091061090910710FE013196FF934B
:1049A000EF930E94E9F40F949E7A0F900F908091FC
:1049B000571A8E3409F4B6C41092571A40E050E0EA
:1049C0006AE28AE00E946BAB11E010938B1C10929C
:1049D0008E1C65EA77E086E20E9470AC1093A40713
:1049E00010923D1A0C943E54809106081092571A6A
:1049F0008823B9F01092060881E080936E088091B8
:104A00000E0240E050E0813431F469E08AE00E9417
:104A10006BAB0C943E546AE28AE00E946BAB0C9440
:104A20003E5410926F1C10928E1CE5E7F6E08491C4
:104A30008F01882351F0082E000C990B0E9461B160
:104A40000F5F1F4FF8018491F4CF1092050881E0A9
:104A50000E94BCDC40E050E065E08AE00E946BAB65
:104A60000C943E549091181C992309F42EC2809105
:104A70001C1C823008F429C24734510561057105B8
:104A800009F4A3C09CF54B3251056105710509F489
:104A900062C09CF4473151056105710509F467C096
:104AA000483151056105710511F00C943E5482E0C6
:104AB00090E00E94F2E40C943E54403351056105AD
:104AC000710509F44EC0453351056105710509F4BE
:104AD000BCC14F3251056105710511F00C943E5473
:104AE0008FEF9FEF0E94F2E40C943E544038510542
:104AF0006105710509F441C004F54E3551056105A4
:104B0000710509F470C14F3551056105710511F04A
:104B10000C943E5414E410933D1A40E050E06BE0D6
:104B200084E10E946BAB40E050E065E18AE00E94C6
:104B30006BAB1093571A0C943E54423851056105E3
:104B40007105B9F144F14B3A51056105710509F45C
:104B5000C8C00C943E548EEF9FEF0E94F2E40C9478
:104B60003E5480E090E00E94F2E40C943E5481E0D8
:104B700090E00E94F2E40C943E548DEF9FEF9093EE
:104B80003F1A80933E1A40E050E06AE08AE00E94BB
:104B90006BAB0C943E5483E090E090933F1A80936B
:104BA0003E1A40E050E06AE08AE00E946BAB0C9451
:104BB0003E5410923F1A10923E1A40E050E06AE0D4
:104BC0008AE00E946BAB0C943E5440E050E068E0F9
:104BD0008AE00E946BAB81E48093571A41E061E068
:104BE00081E00F943B191092571A0F949E7A0E94FD
:104BF00051E110913E1A80911C1C823011F540E069
:104C000050E061E18AE00E946BAB80E58093571A27
:104C10000091191C010F0093191C002E000C110BA0
:104C200020E030E0A901CA01B9010F94CA1C40E09C
:104C300050E069E18AE00E946BAB1092571A0C9425
:104C40003E54833029F540E050E061E18AE00E9463
:104C50006BAB80E58093571A00911A1C010F0093EB
:104C60001A1C002E000C110B20E030E04CE553EC38
:104C700060E070E088EA92EC0F94CA1C40E050E0DB
:104C800069E18AE00E946BAB1092571A0C943E5473
:104C9000843011F00C943E5440E050E061E18AE031
:104CA0000E946BAB80E58093571A00911B1C010F8B
:104CB00000931B1C002E000C110B20E030E04CE593
:104CC00053EC60E070E084EA92E40F94CA1C40E088
:104CD00050E069E18AE00E946BAB1092571A0C9485
:104CE0003E541092571A8091191C40911A1C042F9F
:104CF000081B40911B1C142F181B602F002E000C4A
:104D0000770B880B990B0F94BF922DEC3CEC4CEC7D
:104D10005DEB0F94B88D60937A1C70937B1C80932D
:104D20007C1C90937D1C612F012E000C770B880B4F
:104D3000990B0F94BF922DEC3CEC4CEC5DEB0F9477
:104D4000B88D6093761C7093771C8093781C909339
:104D5000791C0023A1F040E050E06FE18AE00E945E
:104D60006BAB07FF07C0202F332721950CF430953C
:104D700008E0020F402F000F550B64E015C011230F
:104D8000B9F040E050E060E28AE00E946BAB17FFB0
:104D900007C0812F992781950CF4909518E0180F82
:104DA000412F110F550B65E08BE10E946BAB11C0D9
:104DB00014E410933D1A40E050E06BE084E10E945F
:104DC0006BAB40E050E065E18AE00E946BAB109372
:104DD000571A80E890E09093751C8093741C0E9491
:104DE00016CB0C943E5440911B1C8091191C142F1F
:104DF000181BC1F040E050E060E28AE00E946BAB1B
:104E000017FF07C0A12FBB27A1950CF4B09518E0A0
:104E10001A0F412F110F550B65E08BE10E946BAB10
:104E20000C943E5414E410933D1A40E050E06BE0C3
:104E300084E10E946BAB40E050E065E18AE00E94B3
:104E40006BAB1093571A0C943E5480913D1A8434E6
:104E500011F00C943E5410921C1C1092181C1092CD
:104E6000571A1092E40F1092E30F0F94C07610922D
:104E7000EA0F1092E90F0F9404771092EC0F109242
:104E8000EB0F0F94047710926F1C10928E1CEAE6C1
:104E9000F6E084918F01882351F0082E000C990BC5
:104EA0000E9461B10F5F1F4FF8018491F4CF1092FF
:104EB00005080E94BCDC40E050E065E08AE00E940A
:104EC0006BAB10923D1A0C943E54493D510510F0C5
:104ED0000C943E54FA018827EE58FF4F8F4F0D94E3
:104EE000AA9D81E08093EE070C943E5481E080936C
:104EF000ED070C943E5481E08093EC070C943E54F3
:104F000081E08093EB070C943E5481E08093EA07A4
:104F10000C943E540E9422B7009751F481E0809394
:104F2000EF078091D60F81508093D60F0C943E549A
:104F3000019711F00C943E5481E08093EF0740E01C
:104F400050E067E381E20E946BAB40E050E061E03B
:104F50008BE10E946BAB8091D60F81508093D60F6E
:104F60000C943E5410926F1C10928E1CEFE5F6E0EC
:104F700084918F01882351F0082E000C990B0E9418
:104F800061B10F5F1F4FF8018491F4CF10920508B3
:104F900081E00E94BCDC40E050E065E08AE00E94D5
:104FA0006BAB0C943E548091CE16882311F40C9474
:104FB0003E5480911E1781110C943E54CDB6DEB63E
:104FC0008091E8079091E9070E9466B7EFECF6E15F
:104FD000DF010D900020E9F78DB79EB78A1B9B0B70
:104FE0009C012553394E0FB6F8943EBF0FBE2DBF1E
:104FF0000DB71EB70F5F1F4FFF93EF9388E596E045
:105000009F938F931F930F930F946992780134E0CD
:10501000E30EF11C0F900F900F900F900F900F90D8
:10502000F7018081882349F0082E000C990B0F941A
:10503000A59FD7018D937D01F3CF8091181090919A
:10504000191004971CF4C8010F94D81884E596E051
:105050000E94BFDC0FB6F894DEBE0FBECDBE0C942E
:105060003E5481E08093F2070C943E5481E080939B
:10507000F1070C943E5440E050E062E18AE00E9467
:105080006BAB0C943E5440E050E06CE18AE00E942F
:105090006BAB80E00E94BCDC109204081092030805
:1050A0001092020881E0809305080C943E541092FF
:1050B0006F1C10928E1CE9E4F6E084918F01882326
:1050C00051F0082E000C990B0E9461B10F5F1F4F29
:1050D000F8018491F4CF109205080E94E97481E0F0
:1050E0000E94BCDC40E050E065E08AE00E946BABCF
:1050F0000C943E548091E90F9091EA0F892B29F08E
:105100001092EA0F1092E90F08C08091B00D9091B3
:10511000B10D9093EA0F8093E90F0F9404771092EA
:1051200004080C943E548091EB0F9091EC0F892B66
:1051300029F01092EC0F1092EB0F08C08091AE0D89
:105140009091AF0D9093EC0F8093EB0F0F94047739
:10515000109203080C943E548091E30F9091E40F59
:10516000892B29F01092E40F1092E30F1CC080915C
:10517000AC0D9091AD0D6091AA0D7091AB0D6817BB
:1051800079072CF4BC01990F880B990B04C0072EEA
:10519000000C880B990B0F94BF920F94DF9A7093B9
:1051A000E40F6093E30F0F94C076109202080C9402
:1051B0003E5485E496E00E94BFDC0C943E5440E0EF
:1051C00050E06EE18AE00E946BAB0C943E5440E0EC
:1051D00050E065E08AE00E946BAB10926F1C109269
:1051E0008E1CEAE3F6E084918F01882351F0082EAB
:1051F000000C990B0E9461B10F5F1F4FF801849161
:10520000F4CF1092050888E793E090931002809302
:105210000F020E9416CB0C943E5440E050E06AE12D
:105220008AE00E946BAB0E9443B28091CE16882325
:1052300011F40C943E548091D50F8093D60F2DEA33
:10524000E22E2FE0F22E31ECC32E3FE0D32E00E011
:1052500010E043E3842E46E0942E8091D50F90E039
:105260000817190794F56FEC76E186E497E10F943F
:10527000C63A5701D7018D919D917D010E9466B775
:10528000F50180819181D6018D939D936D0180916F
:105290001E17811113C0F401849193E3A92E96E0A7
:1052A000B92E882379F0082E000C990B0E9461B169
:1052B000FFEFAF1ABF0AF5018491F3CF8FEC96E1AF
:1052C0000F94EC5C0F5F1F4FC8CF87E090E00E9407
:1052D000F3890C943E5480910F0290911002803615
:1052E000974041F488E793E09093100280930F0277
:1052F0000E9416CB40E050E068E08AE00E946BAB71
:1053000081E48093571A8091CF1B8823D1F040E02D
:1053100061E081E00F943B190F949E7A8091571AB7
:105320008E3489F48FEF9FEFDC01809372029093AB
:105330007302A0937402B0937502109208080C9443
:105340004E5641E0E5CF81E00E94BCDC1092571A36
:1053500080E396E00E94BFDC0F949E7A8091571AFA
:105360008E3401F340E050E06BE08AE00E946BABCA
:105370000C943E5440E050E064E08AE00E946BAB45
:105380000C943E5440E050E064E28AE00E946BAB33
:1053900081E08093870789E48093571A1F921F92B8
:1053A00082E194E09F938F938E010F5F1F4F1F93B5
:1053B0000F930F9406A0B8018EE20E9470AC60912A
:1053C000B00D7091B10D072E000C880B990B0F9446
:1053D000BF9200E010E028EC31E440E050E00F9490
:1053E00066350E9416CB67E174E082E494E10F9485
:1053F00064356AE174E082E494E10F94643560916D
:10540000BE027091BF028091C0029091C10242E041
:1054100050E00F94C75D6EE174E082E494E10F9474
:1054200064352DEB37E346E05EE36091B6027091A0
:10543000B7028091B8029091B9020F94339A42E07A
:1054400050E00F94C75D62E274E082E494E10F944F
:1054500064352DEB37E346E05EE36091AE02709178
:10546000AF028091B0029091B1020F94B88D42E0EA
:1054700050E00F94C75D6091AE0D7091AF0D072E97
:10548000000C880B990B0F94BF9200E010E028EC01
:1054900031E441E050E00F9466350E9416CB67E19D
:1054A00074E082E494E10F9464356AE174E082E48C
:1054B00094E10F9464356091C2027091C3028091AF
:1054C000C4029091C50242E050E00F94C75D6EE1C6
:1054D00074E082E494E10F9464352DEB37E346E009
:1054E0005EE36091BA027091BB028091BC02909120
:1054F000BD020F94339A42E050E00F94C75D62E220
:1055000074E082E494E10F9464352DEB37E346E0D8
:105510005EE36091B2027091B3028091B402909107
:10552000B5020F94B88D42E050E00F94C75D109221
:10553000571A0E94E97440E050E06BE084E10E9459
:105540006BAB40E050E065E18AE00E946BAB84E425
:1055500080933D1A8093571A0F900F900F900F90E1
:105560000F900F900C943E5410926F1C10928E1C52
:10557000E5E2F6E084918F01882351F0082E000CBB
:10558000990B0E9461B10F5F1F4FF8018491F4CF16
:10559000109205080E94E97440E050E065E08AE05E
:1055A0000E946BAB0C943E5482E58093130281E021
:1055B0008093860740E050E06BE581E20E946BAB90
:1055C00040E050E06CE581E20E946BAB40E050E0CF
:1055D00060E08BE10E946BAB40E050E06AE781E263
:1055E0000E946BAB40E050E069E781E20E946BAB48
:1055F00040E050E06DE18AE00E946BAB8FEF80935A
:10560000AC1B0C943E5440E050E062E18AE00E9402
:105610006BAB40E050E06BE581E20E946BAB40E099
:1056200050E06CE581E20E946BAB40E050E060E04E
:105630008BE10E946BAB40E050E06AE781E20E94A0
:105640006BAB40E050E069E781E20E946BAB1092E7
:1056500086070C943E5410926F1C10928E1CEAE147
:10566000F6E084918F01882351F0082E000C990BED
:105670000E9461B10F5F1F4FF8018491F4CF109227
:10568000050840E050E065E08AE00E946BAB40E036
:1056900050E06BE581E20E946BAB40E050E06CE5CE
:1056A00081E20E946BAB40E050E060E08BE10E9441
:1056B0006BAB40E050E06AE781E20E946BAB40E0F8
:1056C00050E069E781E20E946BAB109286070C9470
:1056D0003E5441E050E06BE581E20E946BAB40E05C
:1056E00050E06CE581E20E946BAB41E050E060E08D
:1056F0008BE10E946BAB41E050E06AE781E20E94DF
:105700006BAB41E050E069E781E20E946BAB109225
:10571000AC1B0C943E5440E050E06BE581E20E94EB
:105720006BAB41E050E06CE581E20E946BAB41E085
:1057300050E060E08BE10E946BAB41E050E06AE733
:1057400081E20E946BAB41E050E069E781E20E9498
:105750006BAB81E08093AC1B0C943E5480910F02A4
:10576000909110028036974041F488E793E090933F
:10577000100280930F020E9416CB0091AC1B0F3FCA
:1057800011F40C943E5401111DC08091401B909166
:10579000411B60916E0770916F07681779072CF4B1
:1057A000BC01990F880B990B04C0072E000C880BC5
:1057B000990B0F94BF920F94DF9A7093EA0F609346
:1057C000E90F20C08091701C9091711C60916C0752
:1057D00070916D07681779072CF4BC01990F880B3D
:1057E000990B04C0072E000C880B990B0F94BF92E5
:1057F00010E0000F111F0751104F0F94DF9AD801CE
:105800006D937C930F94047781E08093551A81E423
:105810008093571A40E050E068E08AE00E946BAB4A
:105820008091CF1B882311F040E001C041E061E08E
:1058300081E00F943B1980E090E0A3E4B3E480930F
:105840000C1090930D10A0930E10B0930F10809039
:10585000981B9090991BA0909A1BB0909B1B209135
:1058600008103091091040910A1050910B1060916E
:105870000410709105108091061090910710E7EFC9
:105880006E2EEFE07E2E7F926F92F0E1CF2EF0E150
:10589000DF2EE12CF12C03E413E40E94E9F480E014
:1058A00090E0A0E2B1E48093081090930910A093D7
:1058B0000A10B0930B108090941B9090951BA090B1
:1058C000961BB090971BE0900C10F0900D1000917B
:1058D0000E1010910F1060910410709105108091BE
:1058E0000610909107107F926F9220E030E040E226
:1058F00051E40E94E9F40F949E7A0F900F900F905C
:105900000F908091571A8E3409F40CCD1092571ACB
:105910000E94E97460E074E08DE20E9470AC40E0A7
:1059200050E068E28AE00E946BAB0091AC1B10E093
:10593000F801EE0FFF1FEE0FFF1FE85FF34E6081CF
:105940007181828193810F94DF9A7093FB0760933A
:10595000FA07000F111FF801E751F04F8081918184
:105960009093F9078093F80788E48093571A0E9470
:10597000E97464EF71E080E090E00E941AD081E069
:105980008093FC070C943E5480910F02909110027A
:105990008036974041F488E793E09093100280931B
:1059A0000F020E9416CBE091AC1BEF3F11F40C9458
:1059B0003E5481E08093551AF0E0EE0FFF1FE7514F
:1059C000F04F84E091E0918380830F94047781E429
:1059D0008093571A40E050E068E08AE00E946BAB89
:1059E0008091CF1B882311F040E001C041E061E0CD
:1059F00081E00F943B190F949E7A8091571A8E3450
:105A000009F490CC80E090E0A3E4B3E480930C1020
:105A100090930D10A0930E10B0930F108090981BD0
:105A20009090991BA0909A1BB0909B1B20910810FE
:105A30003091091040910A1050910B1060910410A0
:105A4000709105108091061090910710F7EF6F2E5E
:105A5000FFE07F2E7F926F92A0E1CA2EA0E1DA2EA6
:105A6000E12CF12C03E413E40E94E9F40F949E7AF4
:105A70000F900F908091571A8E3409F453CC80E028
:105A800090E0A0E2B1E48093081090930910A093F5
:105A90000A10B0930B108090941B9090951BA090CF
:105AA000961BB090971BE0900C10F0900D10009199
:105AB0000E1010910F1060910410709105108091DC
:105AC0000610909107107F926F9220E030E040E244
:105AD00051E40E94E9F40F949E7A0F900F90809108
