:100000000C948D0D0C94BE0D0C94BE0D0C94BE0D75
:100010000C94BE0D0C94BE0D0C94BE0D0C94BE0D34
:100020000C94BE0D0C94BE0D0C94BE0D0C94BE0D24
:100030000C94BE0D0C94BE0D0C94BE0D0C94BE0D14
:100040000C94BE0D0D94C3410C94BE0D0C94BE0DCA
:100050000C94BE0D0C94BE0D0D94375A0D94FC609B
:100060000C94BE0D0D942C650D9462650C94BE0D20
:100070000C94BE0D0C94BE0D0C94BE0D0C94BE0DD4
:100080000C94BE0D0C94BE0D0C94BE0D0C94BE0DC4
:100090000C94BE0D0C94BE0D0C94BE0D0C94810EF0
:1000A0000C94BE0D0C94BE0D0C94BE0D0C94BE0DA4
:1000B0000C94BE0D0C94BE0D0C94BE0D0C94BE0D94
:1000C0000C94BE0D0C94BE0D0C94BE0D0D94D76512
:1000D0000D940D660C94BE0D0C94BE0D0C94BE0DCB
:1000E0000C94BE0DC7001F01C90029012D01030199
:1000F000DF00D7003301F300E900CB00F500150164
:100100003B01F100FD0023010901EF0027011B0164
:10011000E700FB00ED00FD0037013501E5002F0190
:10012000D3000D01E100F90011011D013901190190
:100130000101FF00D500CF000F01110105012101D0
:100140002B01084AD73B3BCE016E84BCBFFDC12FBB
:100150003D6C74319ABD56833DDA3D00C77F11BEB8
:10016000D9E4BB4C3E916BAAAABE000000803F05BB
:10017000A84CCDB2D44EB93836A9020C50B99186EC
:1001800088083CA6AAAA2ABE000000803F000D9461
:10019000BF5A0D94E85A0D9432620D94E9630D94A0
:1001A0000E630D9480090D94EE620D940A630D9414
:1001B000385B0D9445640D9494650D9468090D9415
:1001C000365B0D94E1620D94BC630D94BF620D9497
:1001D00088620D94445B0D94713C0D94A1620D9462
:1001E0006A620D9450620D943C5B0D9437620D94DD
:1001F00066640D94E7620D9497620D94C9620D9444
:1002000004630D9400630D941C5B0D9418630D94AE
:1002100036660D9462620D948F660D94DD620D94C6
:1002200012630D9425630D943F660D943C620D940A
:10023000C7630D94FC620D947E620D94F2620D947E
:10024000CC5A0D941C630D945A620D94D5630D9491
:1002500074620D94F55A0D9420630D940F5B0D9408
:10026000EB620D948B650D943A5B0D94B5620D9421
:10027000AB620D94F6620D9446624D3834205820DE
:1002800059205A2045004D313037004D313037006C
:1002900043616E6E6F7420656E7465722073756253
:1002A0006469723A20004D3234004D323320257398
:1002B000006175746F25692E67006572726F722018
:1002C00077726974696E6720746F2066696C650067
:1002D0004E6F74205344207072696E74696E6700AB
:1002E0002F005344207072696E74696E67206279C2
:1002F000746520002E0044656C6574696F6E20661D
:1003000061696C65642C2046696C653A2000466919
:100310006C652064656C657465643A002E006F70CE
:10032000656E206661696C65642C2046696C653A6F
:10033000200057726974696E6720746F2066696C5B
:10034000653A20002E006F70656E206661696C65ED
:10035000642C2046696C653A20002E006F70656E33
:10036000206661696C65642C2046696C653A2000E2
:1003700046696C652073656C656374656400205321
:10038000697A653A200046696C65206F70656E6514
:10039000643A20002E006F70656E206661696C659E
:1003A000642C2046696C653A20004E6F7720667297
:1003B0006573682066696C653A20004E6F7720642B
:1003C0006F696E672066696C653A20002220706F45
:1003D00073002220706172656E743A220053554298
:1003E000524F5554494E452043414C4C2074617244
:1003F0006765743A2200747279696E6720746F20A1
:1004000063616C6C207375622D67636F6465206631
:10041000696C6573207769746820746F6F206D61F3
:100420006E79206C6576656C732E204D4158206C7A
:100430006576656C2069733A005344206361726489
:10044000206F6B006F70656E526F6F74206661690C
:100450006C656400766F6C756D652E696E697420CD
:100460006661696C656400534420696E6974206636
:1004700061696C006563686F3A004572726F723A29
:100480000048617264636F6465642043616C6962F3
:1004900020616E64205049442044656661756C7427
:1004A0002053657474696E6773204C6F6164656472
:1004B0000048617264636F646564204465666175B9
:1004C0006C742053657474696E6773204C6F61643B
:1004D00065640053746F7265642073657474696E2B
:1004E00067732072657472696576656400206D615A
:1004F000782074656D7020422000206D6178207432
:10050000656D7020522000206D61782074656D70DB
:10051000204C2000207072696E74732066696E69C9
:1005200073686564200020686F757273207072694B
:100530006E742000207072696E747320004C4F47F7
:100540003A0020525F5052494E54200020525F42E0
:100550004544200020525F52454D4F564520002013
:10056000525F494E53455254200054656D70202807
:10057000EFBFBD43293A00204C5F5052494E5420F2
:1005800000204C5F4245442000204C5F52454D4FB7
:1005900056452000204C5F494E534552542000548C
:1005A000656D702028EFBFBD43293A00205A2070A6
:1005B000726F626500205A200020592000205820C8
:1005C000004F66667365747320286D6D293A0020AC
:1005D0004400204900202D204D333031205249471E
:1005E0004854205000204400204900204D33303131
:1005F000204C454654205000504944207365747483
:10060000696E67733A00205A0020590020204D324D
:100610003036205800486F6D65206F6666736574CC
:1006200020286D6D293A00204500205A00205800EE
:1006300020420020540020204D323035205300410C
:100640006476616E636564207661726961626C656F
:10065000733A20533D4D696E20666565647261741E
:100660006520286D6D2F73292C20543D4D696E2017
:1006700074726176656C206665656472617465206C
:10068000286D6D2F73292C20423D6D696E696D7543
:100690006D207365676D656E742074696D652028C3
:1006A0006D73292C20583D6D6178696D756D2058EA
:1006B00059206A65726B20286D6D2F73292C2020BC
:1006C0005A3D6D6178696D756D205A206A65726B4F
:1006D00020286D6D2F73292C2020453D6D61786990
:1006E0006D756D2045206A65726B20286D6D2F73C6
:1006F000290020540020204D323034205300416323
:1007000063656C65726174696F6E3A20533D616315
:1007100063656C65726174696F6E2C20543D7265FF
:10072000747261637420616363656C65726174697E
:100730006F6E00204500205A0020590020204D32C5
:1007400030312058004D6178696D756D20416363CB
:10075000656C65726174696F6E20286D6D2F7332E0
:10076000293A00204500205A0020590020204D320F
:1007700030332058004D6178696D756D2066656570
:1007800064726174657320286D6D2F73293A00209F
:100790004500205A0020590020204D3932205800B1
:1007A00053746570732070657220756E69743A00B9
:1007B00053657474696E67732053746F7265640057
:1007C0006563686F3A005072696E74657220686183
:1007D0006C7465642E206B696C6C28292063616CD5
:1007E0006C656421006F6B00526573656E643A201E
:1007F00000486F74656E64206F6666736574733A43
:10080000005A204F6666736574203A20007A5F6D47
:1008100061783A20007A5F6D696E3A20005A204F65
:100820006666736574005A204F6666736574206F40
:100830006B00486F74656E64206F666673657473D1
:100840003A007A5F6D696E3A2000795F6D61783A9F
:100850002000785F6D61783A2000785F6D696E3AAC
:100860002000205A3A0020593A0020436F756E74D8
:1008700020583A200020453A00205A3A0020593AA0
:1008800000583A004649524D574152455F4E414D3E
:10089000453A4D61726C696E2056313B205370723F
:1008A000696E7465722F6772626C206D6173687512
:1008B0007020666F722067656E36204649524D572C
:1008C0004152455F55524C3A68747470733A2F2FF9
:1008D0006769746875622E636F6D2F4572696B5A14
:1008E000616C6D2F4D61726C696E2F2050524F54A8
:1008F0004F434F4C5F56455253494F4E3A312E307D
:10090000204D414348494E455F545950453A4D6545
:100910006E64656C2045585452554445525F434FB0
:10092000554E543A3220555549443A3030303030E3
:100930003030302D303030302D303030302D3030C0
:1009400030302D3030303030303030303030300AD0
:100950000020423A0020453A00543A0020573A001D
:1009600020453A00543A002042403A0020403A00E4
:10097000202F003A00205400202F0020423A00206F
:100980002F006F6B20543A000A0A005374616E64A2
:1009900061726420446576696174696F6E3A200003
:1009A0000A004D65616E3A20000A002020207A3A44
:1009B000200000793A2000783A20003F53706563A8
:1009C0006966696564206E756D626572206F662068
:1009D0006C65677320696E206D6F76656D656E74EA
:1009E000206E6F7420706C61757361626C652E0A85
:1009F000003F537065636966696564205920706FB4
:100A0000736974696F6E206F7574206F66207261F0
:100A10006E67652E0A003F53706563696669656499
:100A2000205820706F736974696F6E206F75742021
:100A30006F662072616E67652E0A003F53706563B2
:100A400069666965642073616D706C652073697A8D
:100A500065206E6F7420706C61757361626C652EB9
:100A60000A0046756C6C20737570706F727420612B
:100A7000743A20687474703A2F2F33647072696E00
:100A800074626F6172642E636F6D2F666F72756D25
:100A90002E7068700A004D3438205A2D50726F62E3
:100AA00065205265706561746162696C6974792052
:100AB000746573742E20202056657273696F6E20E2
:100AC000322E30300A003F566572626F7365204CDB
:100AD0006576656C206E6F7420706C6175736162F1
:100AE0006C652E0A002569206D696E2C2025692011
:100AF00073656300456E642066696C65206C69737C
:100B00007400426567696E2066696C65206C697364
:100B100074000A00205A3A200020593A2000205838
:100B20003A2000426564000A0020616E7469686FB3
:100B3000726172690A3A200020686F726172690AF4
:100B400020002F3800766F6C746573200020566F7C
:100B50006C74657320636172676F6C20333A200098
:100B600020616E7469686F726172690A3A200020B0
:100B7000686F726172690A20002F3800766F6C749A
:100B80006573200020566F6C746573206361726713
:100B90006F6C20323A200020616E7469686F726158
:100BA00072690A3A200020686F726172690A200037
:100BB0002F3800766F6C746573200020566F6C744C
:100BC000657320636172676F6C20313A20000A0000
:100BD00020647A333A200020647A323A200020647C
:100BE0007A313A20000A00207A633A20005430001B
:100BF000486F6D6520582F59206265666F726520B9
:100C00005A000A00207A3A200020793A2000207801
:100C10003A200042656400486F6D6520582F5920C6
:100C20006265666F7265205A002200556E6B6E6FAA
:100C3000776E20636F6D6D616E643A2022002569C6
:100C400020686F757273202569206D696E757465F3
:100C50007300446F6E65207072696E74696E6720F0
:100C600066696C6500473639005072696E7465724A
:100C70002073746F707065642064756520746F20D4
:100C80006572726F72732E204669782074686520D1
:100C90006572726F7220616E6420757365204D39C4
:100CA000393920746F20726573746172742E202834
:100CB00054656D7065726174757265206973207218
:100CC000657365742E2053657420697420616674A1
:100CD00065722072657374617274696E6729006F42
:100CE0006B004E6F204C696E65204E756D626572AB
:100CF000207769746820636865636B73756D2C2059
:100D00004C617374204C696E653A20004E6F20432D
:100D10006865636B73756D2077697468206C696EA4
:100D200065206E756D6265722C204C617374204C69
:100D3000696E653A2000636865636B73756D206D3D
:100D400069736D617463682C204C617374204C6905
:100D50006E653A20004C696E65204E756D62657255
:100D6000206973206E6F74204C617374204C696E1F
:100D700065204E756D6265722B312C204C61737449
:100D8000204C696E653A20004D313130004D3834C9
:100D900020582059205A204500473238205830200A
:100DA000593000473730005052494E542053455473
:100DB00054494E4753200A00446F6E652073617694
:100DC000696E672066696C652E006F6B004D323965
:100DD0000073746172740030312D312E322E305216
:100DE00043002200656E717565696E6720220022DE
:100DF00000656E717565696E67202200543000547D
:100E0000300047333400473433004734330047342D
:100E10003100473430005431005430005430005415
:100E20003100543100543000543000543100473404
:100E300033004734330047343100473430005430F6
:100E400000543000473334005430004733340054EA
:100E50003000473334005430005430004D323400F9
:100E60004D323320257300FF01FF0000A040000039
:100E7000A0400000004033F39743008093430000FC
:100E8000524300000000008093430000000033F351
:100E9000974300809343000052430000000000008D
:100EA0000000000000006563686F3A004572726FD1
:100EB000723A0020636F6C64206578747275736990
:100EC0006F6E2070726576656E7465640065636828
:100ED0006F3A007C3C3E5E2B3D3F2F5B5D3B2C2AF6
:100EE000225C00205A3A0020593A0020583A006506
:100EF0006E6473746F7073206869743A200024F410
:100F0000D43050C38E20C2A24017828B7011127A47
:100F1000910D816CD90AA861E108C7586607615133
:100F200043061E4B5D05C145A7041A411104093D46
:100F30009803713931034036DB0265339102D430B6
:100F40005402802E1D02632CEE01752AC501B028C3
:100F5000A001102781018F2564012B244B01E02281
:100F60003401AC211F018D200D01801FFC00841E67
:100F7000ED00971DDF00B81CD200E61BC600201B49
:100F8000BC00641AB200B219A8000A19A0006A18BD
:100F90009900D117910040178B00B51684003116C7
:100FA0007E00B31579003A157300C7146F0058140A
:100FB0006A00EE1366008813630025135E00C712F3
:100FC0005B006C12570015125400C11151007011D2
:100FD0004F0021114B00D61049008D1047004610DC
:100FE000440002104200C00F4000800F3E00420F3C
:100FF0003C00060F3B00CB0E3800930E37005C0E12
:101000003500270E3400F30D3200C10D3100900D74
:101010003000600D2E00320D2D00050D2C00D90C76
:101020002B00AE0C2900850C29005C0C2700350C28
:1010300027000E0C2600E80B2400C40B2400A00B94
:1010400023007D0B23005A0B2100390B2100180BC4
:101050002000F80A1F00D90A1E00BB0A1E009D0AC4
:101060001D00800A1D00630A1C00470A1B002C0A91
:101070001B00110A1A00F7091A00DD091900C4093A
:101080001900AB091900920917007B0918006309C0
:1010900017004C09160036091600200916000A0927
:1010A0001500F5081500E0081400CC081400B80875
:1010B0001400A4081400900813007D0812006B08A7
:1010C00013005808120046081200340811002308C3
:1010D00011001208110001081100F0071000E007CC
:1010E0001000D0071000C0071000B0070F00A107C4
:1010F000100091070E0083070F0074070F006507AB
:101100000E0057070E0049070E003B070D002E0783
:101110000E0020070D0013070D0006070D00F9064D
:101120000C00ED060D00E0060C00D4060C00C8060D
:101130000C00BC060C00B0060C00A4060B009906BF
:101140000C008D060B0082060B0077060B006C0668
:101150000B0061060A0057060B004C060A00420607
:101160000A0038060A002E060A0024060A001A069B
:101170000A001006090007060A00FD050900F4052B
:101180000900EB050900E2050900D9050900D005B1
:101190000900C7050900BE050900B5050800AD0531
:1011A0000800A50509009C050800940508008C05A9
:1011B0000800840508007C050800740508006C051B
:1011C0000700650508005D050700560508004E0587
:1011D00007004705070040050800380507003105EE
:1011E00007002A050700230507001C050600160551
:1011F00007000F0507000805060002050700FB04AD
:101200000600F5040700EE040600E8040600E20408
:101210000700DB040600D5040600CF040600C9045D
:101220000600C3040600BD040600B7040600B104AE
:101230000500AC040600A6040600A00405009B04FB
:10124000060095040500900406008A040500850444
:101250000500800406007A0405007504050070048A
:1012600005006B04050066040500610405005C04CC
:10127000050057040500520405004D04050048040C
:101280000500430405003E0404003A04050035044B
:101290000500300404002C04050027040400230486
:1012A00005001E0404001A040400160405001104BD
:1012B00004000D04040009040500040404000004F3
:1012C0000400FC030400F8030400F4030400F0032A
:1012D0000400EC030400E8030400E4030400E0035A
:1012E0000400DC030400D8030400D4030400D0038A
:1012F0000400CC030400C8030300C503030024F466
:1013000004D9201BC40C5C0E9804C4095F02650755
:101310007101F405F900FB04B30048048700C10320
:1013200069005803550003034500BE023A008402D9
:10133000310053022A002902250004022000E401A2
:101340001C00C8011900AF011700980114008401A6
:101350001300710110006101100051010E004301E2
:101360000D0036010B002B010B0020010B001501B5
:1013700009000C01090003010800FB000800F3004C
:101380000800EB000700E4000600DE000600D800BD
:101390000600D2000600CC000500C7000500C20010
:1013A0000500BD000400B9000400B5000400B10050
:1013B0000400AD000400A9000400A5000300A20081
:1013C00003009F0004009B000300980003009500A9
:1013D000020093000300900003008D0002008B00C8
:1013E00003008800020086000200840003008100E0
:1013F00002007F0002007D0002007B0002007900F5
:101400000200770001007600020074000200720002
:101410000100710002006F0002006D0001006C000D
:1014200002006A0001006900020067000100660016
:10143000010065000100640002006200010061001B
:101440000100600001005F0002005D0001005C001F
:1014500001005B0001005A00010059000100580022
:101460000100570001005600010055000100540022
:101470000100530000005300010052000100510020
:101480000100500001004F0001004E0000004E001E
:1014900001004D0001004C0001004B0000004B001A
:1014A00001004A0001004900010048000000480016
:1014B0000100470001004600000046000100450011
:1014C000000045000100440001004300000043000B
:1014D0000100420000004200010041000000410004
:1014E0000100400001003F0000003F0001003E00FD
:1014F00000003E0001003D0000003D0001003C00F6
:1015000000003C0000003C0001003B0000003B00EC
:1015100001003A0000003A000100390000003900E3
:1015200001003800000038000000380001003700DA
:1015300000003700010036000000360000003600D1
:1015400001003500000035000000350001003400C6
:1015500000003400000034000100330000003300BC
:1015600000003300010032000000320000003200B1
:1015700001003100000031000000310001003000A6
:10158000000030000000300001002F0000002F009C
:1015900000002F0000002F0001002E0000002E0090
:1015A00000002E0001002D0000002D0000002D0085
:1015B00000002D0001002C0000002C0000002C0079
:1015C00000002C0001002B0000002B0000002B006D
:1015D00000002B0001002A0000002A0000002A0061
:1015E00000002A0001002900000029000000290055
:1015F0000000290000002900010028000000280048
:10160000000028000000280000002800010027003A
:10161000000027000000270000002700000027002E
:101620000100260000002600000026000000260021
:101630000000260001002500000025000000250014
:101640000000250000002500000025000100240006
:1016500000002400000024000000240000002400FA
:1016600001002300000023000000230000002300ED
:1016700000002300000023000000230001002200DE
:1016800000002200000022000000220000002200D2
:1016900000002200010021000000210000002100C4
:1016A00000002100000021000000210000002100B6
:1016B00001002000000020000000200000002000A9
:1016C000000020000000200000002000000020009A
:1016D00001001F0000001F0000001F0000001F008D
:1016E00000001F0000001F0000001F0001001E007E
:1016F00000001E0000001E0000001E0000006563C8
:10170000686F3A00504944204175746F74756E6576
:101710002066696E69736865642100504944204100
:1017200075746F74756E65206661696C65642120DF
:1017300074696D656F75740020403A006F6B2054BA
:101740003A006F6B20423A00504944204175746F53
:1017500074756E65206661696C6564212054656DE1
:10176000706572617475726520746F6F2068696747
:101770006800204B643A2000204B693A2000204B3F
:10178000703A200020436C617373696320504944B0
:1017900020002054753A2000204B753A2000206D1F
:1017A00061783A2000206D696E3A200020643A206A
:1017B0000020626961733A200050494420417574E9
:1017C0006F74756E652066696E6973686564212043
:1017D00050757420746865206C617374204B702C94
:1017E000204B6920616E64204B6420636F6E7374BC
:1017F000616E74732066726F6D2061626F76652012
:10180000696E746F20436F6E666967757261746983
:101810006F6E2E6800504944204175746F74756E68
:1018200065206661696C6564212074696D656F75FA
:10183000740020403A006F6B20543A006F6B2042D6
:101840003A00504944204175746F74756E65206686
:1018500061696C6564212054656D70657261747591
:10186000726520746F6F206869676800204B643A66
:101870002000204B693A2000204B703A2000204382
:101880006C61737369632050494420002054753A99
:101890002000204B753A2000206D61783A2000200E
:1018A0006D696E3A200020643A20002062696173FD
:1018B0003A200070012C0190012701B0012201C0E3
:1018C000011D01F00118011002130130020E016028
:1018D00002090190020401C002FF000003FA004067
:1018E00003F5008003F000D003EB002004E6007055
:1018F00004E100E004DC004005D700C005D2004050
:1019000006CD00D006C8008007C3003008BE00F036
:1019100008B900C009B400B00AAF00B00BAA00D0EB
:101920000CA500000EA000500F9B00C010960050A8
:1019300012910000148C00C0158700B0178200B00F
:10194000197D00D01B7800001E730040206E0090AF
:10195000226900F024640040275F0090295A00E0CB
:101960002B5500102E500020304B0010324600E066
:1019700033410090353C001037370070383200A0FA
:10198000392D00B03A2800A03B2300603C1E001017
:101990003D1900903D1400103E0F00703E0A00C03B
:1019A0003E0500003F000000000A0B02090C0D0E6E
:1019B0000807030401000000000000000000000010
:1019C0000000000000000000000000000000000017
:1019D00000000012111000000000000000000000D4
:1019E00000000000000000000000000000010210E4
:1019F0002020080810204010204080020102010829
:101A000004020101020408102040808040201008D8
:101A10000402018004020180402010080402010831
:101A20000402010102040810204080010204081091
:101A30002040800505050507050808080802020280
:101A4000020A0A0808040404040101010101010159
:101A5000010303030303030303040707070C0C0C30
:101A60000C0C0C0C0C020202020606060606060608
:101A7000060B0B0B0B0B0B0B0B000020002300269F
:101A80000029002C002F0032000001000003010695
:101A900001090100002200250028002B002E003142
:101AA00000340002010000050108010B01000021C3
:101AB00000240027002A002D00300033000101001F
:101AC00000040107010A014E414E494E495459494B
:101AD0004E46CDCCCC3D0AD7233C17B7D13877CC76
:101AE0002B329595E6241FB14F0A000020410000DB
:101AF000C84200401C4620BCBE4CCA1B0E5AAEC594
:101B00009D746364696E6F70737578585B00550ED1
:101B1000002EDD00DB001301D10011241FBECFEF2A
:101B2000D1E2DEBFCDBF00E00CBF1CE0A0E0B2E020
:101B3000E0E9F5EF02E00BBF02C007900D92A43B75
:101B4000B107D9F72EE1A4EBBCE001C01D92A3348C
:101B5000B207E1F71BE1C8E1DBE100E006C0229734
:101B60000109FE010BBF0F940D6FCE30D10780E04D
:101B70000807A9F70F9483660D94B67A0C940000B9
:101B80008091E30C90E02091E40C821B9109089570
:101B90002091E40C8091E30C281750F4E22FF0E040
:101BA000EB51F34F808190E02F5F2093E40C089578
:101BB0008FEF9FEF0895E091E40C8091E30CE8171C
:101BC00030F4F0E0EB51F34F808190E008958FEF17
:101BD0009FEF08950895CF92DF92EF92FF920F93B7
:101BE0001F93CF93DF937C01CB018A012091C00C1E
:101BF000222389F0EB016B01C40ED51ECC15DD0547
:101C000061F06991D701ED91FC910190F081E02D97
:101C1000C7011995F3CF642F4BD0C801DF91CF9145
:101C20001F910F91FF90EF90DF90CF900895CF9389
:101C3000DF931F92CDB7DEB769832091C00C2223BA
:101C4000D1F02091C10C203240F021E030E0FC01C5
:101C50003383228380E090E014C08091C20CE82F8F
:101C6000F0E0ED53F34F998190838F5F8093C20C26
:101C70008093C10C04C061E0CE01019619D081E0CF
:101C800090E00F90DF91CF910895FC0113821282B2
:101C900048EE53E060E070E04483558366837783C9
:101CA0008DE393E091838083089584EB9CE0EDCFF6
:101CB000613298F42091720D243089F46093270DDD
:101CC000FC0189E29DE0DC012A2F281B261718F46D
:101CD00021912D93F9CF80E0089581E0089582E06D
:101CE000089585ED8093BC008091BC0084FDFCCFFD
:101CF0001092720D089585EC8093BC001092720DC5
:101D000008951F920F920FB60F9211240BB60F92E7
:101D10002F933F934F935F936F937F938F939F93F3
:101D2000AF93BF93EF93FF938091B900887F803684
:101D300009F49DC070F5883209F45CC090F48031DC
:101D400009F455C038F4882309F4F3C0883009F445
:101D50004EC0F2C0883109F44DC0803209F45EC033
:101D6000EBC0803409F469C050F4803309F456C0E4
:101D7000883309F0E1C08093050DBDDFDDC08035FB
:101D800009F44FC0883509F45DC0883409F0D4C027
:101D9000D2C0883909F4C3C0A8F4883709F467C0F1
:101DA00038F4883609F463C0803709F460C0C4C0D1
:101DB000883809F4B4C0803909F45FC0803809F06C
:101DC000BBC05BC0803B09F482C038F4803A09F4A0
:101DD00066C0883A09F47BC0AFC0803C09F4A3C058
:101DE000883C09F4A0C0883B09F486C0A5C0809156
:101DF000710D10C090914A0D8091490D981770F5A2
:101E0000E0914A0D81E08E0F80934A0DF0E0E55B92
:101E1000F24F80818093BB0085EC82C08093050DDA
:101E20008AC0E0914A0D81E08E0F80934A0D809127
:101E3000BB00F0E0E55BF24F808390914A0D80910A
:101E4000490D6AC0E0914A0D81E08E0F80934A0DE2
:101E50008091BB00F0E0E55BF24F80838091700DD4
:101E6000811169C081E080936F0D84EA5DC083E0D9
:101E70008093720D1092060DCFCF8091060D8032A7
:101E800008F04DC0E091060D81E08E0F8093060DA5
:101E90008091BB00F0E0E95FF24F8083BDCF2BDF84
:101EA0008091060D803230F4E091060DF0E0E95F9C
:101EB000F24F10826091060D70E0E0916B0DF09191
:101EC0006C0D87E09DE019951092060D35C084E0F9
:101ED0008093720D1092280D1092270DE0916D0DD8
:101EE000F0916E0D19958091270D811105C081E04B
:101EF0008093270D1092290DE091280D81E08E0F1F
:101F00008093280DF0E0E75DF24F80818093BB0065
:101F10009091280D8091270D981708F47DCF85E8C2
:101F20008093BC0009C085EC8093BC001092720DB8
:101F300003C01092050DD5DEFF91EF91BF91AF91D7
:101F40009F918F917F916F915F914F913F912F91D1
:101F50000F900BBE0F900FBE0F901F901895DC01D5
:101F6000ED91FC910190F081E02D1994FC01148217
:101F700017821382128289E39CE091838083089503
:101F800029E33CE0FC01318320832781222319F0DF
:101F900004960D94EF370895CF92DF92EF92FF925F
:101FA0000F931F93CF93DF93EC01895A9F4FDEDF8E
:101FB000CE0188589F4FDADF7E0127E9E20EF11C3F
:101FC00087016E0133E3C31A3EEFD30AC801CEDFA7
:101FD000015E1F4F0C151D05C9F7FE01E153FE4FB1
:101FE00089E1818314823596178ACE018E509E4FE7
:101FF000BDDFFE01ED55FD4F10821182128213826A
:10200000389610821182128213821A821B821C82DD
:10201000188219826E0189E5C81A8DEFD80AF60177
:102020001082118212821382F80111821082FE0145
:10203000EF5EFD4F108286E391E0F7019C01119263
:1020400021503040E1F7FE01E155FD4F81E08083F2
:10205000CB5ADF4F198218820F94466168577C4E25
:102060008F4F9F4FF6016083718382839383DF914B
:10207000CF911F910F91FF90EF90DF90CF90089537
:10208000FC0120E03EE2DB014C91403241F028307F
:1020900011F430833196DB014C91408331962F5FF0
:1020A0006F5F7F4F2B3079F7108208952F923F9208
:1020B0004F925F926F927F928F929F92AF92BF9258
:1020C000CF92DF92EF92FF920F931F93CF93DF9304
:1020D000CDB7DEB7C858D1090FB6F894DEBF0FBE32
:1020E000CDBF8C016B017A01CA57DF4F1882C658E9
:1020F000D04084E0E80EF11C180192E1290E311C59
:10210000F801EC5AFF4FC957DF4FF983E883C758EE
:10211000D0405801F0E5AF1AFDEFBF0A38018EE458
:10212000681A8DEF780A80E4482E512C4C0E5D1E03
:1021300094E0490E511CA101BE016F5F7F4FC701A2
:102140000F94593618160CF009C12C85322F3871AE
:10215000303109F091C0F50180819181019702979A
:1021600008F48AC0BE016F5F7F4FCE0187589F4F32
:1021700087DFA0961FAEA097F6018081811107C06E
:1021800069E473E0CE01815A9F4F0F942E74B6011B
:10219000CE01815A9F4F0F942E74BE0167587F4F16
:1021A000CE01815A9F4F0F942E7469E473E0CE01E3
:1021B000815A9F4F0F942E74CE01805C9F4FD6DEC4
:1021C00021E0AE0147585F4FB701C2010F94E639D5
:1021D00081112EC0F50180819181892B49F5E4E7B9
:1021E000F4E064914F01662361F0772767FD7095F5
:1021F00083E09DE1B4DEFFEF8F1A9F0AF401649142
:10220000F2CF6BE473E083E09DE10F94CD666AE06A
:1022100070E083E09DE1A3DEBE0167587F4F83E05D
:102220009DE10F94CD666AE070E083E09DE197DE6A
:102230008BE1FE01EC5BFF4FDE01959601900D9264
:102240008A95E1F724968EAD9FAD24979CA38BA32E
:1022500089E39CE09AA389A3AE014F5D5F4FBE0165
:10226000615A7F4FC80122DFCE01819689DECE01FF
:10227000805C9F4F85DE5FCF8981882309F46EC023
:10228000853E09F458CF8E3209F455CF8F3509F4C5
:1022900052CFF8018289882331F08E3209F44BCF76
:1022A0008F3509F448CF23FD46CF81E0303109F066
:1022B00080E0C957DF4FE881F981C758D04080835B
:1022C000811108C08985873409F035CF8A858E371A
:1022D00009F431CF4801F5E08F0E911CBE016F5F0C
:1022E0007F4FC401CDDEF50180819181009781F49B
:1022F000B60183E09DE10F94CD66B40183E09DE1DA
:102300000F94CD666AE070E083E09DE128DE13CF94
:102310008130910539F4F301808191810196918397
:10232000808309CF029709F006CFCA57DF4FF881A3
:10233000C658D0402F2F30E0F301808191812817BB
:10234000390761F0CA57DF4FF881C658D040FF5FA8
:10235000CA57DF4FF883C658D040EDCEC857DF4F7D
:102360000FB6F894DEBF0FBECDBFDF91CF911F91A6
:102370000F91FF90EF90DF90CF90BF90AF909F9024
:102380008F907F906F905F904F903F902F90089527
:102390000F931F93CF93DF93CDB7DEB76F970FB631
:1023A000F894DEBF0FBECDBF8C01FC01E055FD4FA0
:1023B0001182108240E050E0BA01855A9F4F0F947D
:1023C0000C37C801895A9F4F2BE1FC013496DE017E
:1023D000159601900D922A95E1F7FC018281938177
:1023E0009C838B8389E39CE09A838983AE014F5F52
:1023F0005F4F66EA7CE0C80159DECE010196C0DD80
:102400006F960FB6F894DEBF0FBECDBFDF91CF91B0
:102410001F910F9108952BE1FB013496DC01149676
:1024200001900D922A95E1F7FB0122813381FC0195
:10243000338322830895EF92FF920F931F93CF93DC
:10244000DF93EC011C82FC01E25AFF4F808188235C
:1024500029F0CE01855A9F4F0F94EF377E0181E31B
:10246000E81A8EEFF80A45E360E0C7010F94703276
:1024700081113AC0E4E7F4E064918F01662359F0DA
:10248000772767FD709583E09DE169DD0F5F1F4F42
:10249000F8016491F3CFE7E6F4E064918F016623DD
:1024A00059F0772767FD709583E09DE158DD0F5F58
:1024B0001F4FF8016491F3CF6AE070E083E09DE183
:1024C0004EDD8E01095A1F4FB801CE0188589F4F2B
:1024D000A2DFCA58DF4F19830883DF91CF911F9184
:1024E0000F91FF90EF9008958E010C521E4F41E026
:1024F000B701C8010F94D93F81112AC040E0B7014C
:10250000C8010F94D93F811123C0EAE7F4E0649138
:102510008F01662359F0772767FD709583E09DE171
:102520001EDD0F5F1F4FF8016491F3CFE4E5F4E087
:1025300064918F01662309F4BFCF772767FD7095FB
:1025400083E09DE10CDD0F5F1F4FF8016491F2CF36
:10255000B801CE01855A9F4F0F94FD34811123C0DD
:10256000EAE7F4E064918F01662359F0772767FD6D
:10257000709583E09DE1F3DC0F5F1F4FF8016491DC
:10258000F3CFE4E4F4E064918F01662309F494CF7F
:10259000772767FD709583E09DE1E1DC0F5F1F4FBA
:1025A000F8016491F2CF81E08C83E4E7F4E0649178
:1025B0008F01662359F0772767FD709583E09DE1D1
:1025C000CEDC0F5F1F4FF8016491F3CFE9E3F4E035
:1025D00064918F01662309F46FCF772767FD7095AB
:1025E00083E09DE1BCDC0F5F1F4FF8016491F2CFE7
:1025F000FC01128214820895CF93DF93EC018C8149
:102600008823B9F06EE573E083E09DE10F94CD6619
:1026100040913510509136106091371070913810FC
:1026200022E030E083E09DE10F94B76881E08A8387
:102630001B82DF91CF910895FC018281882319F0DC
:10264000128281E083830895AF92BF92CF92DF928E
:10265000EF92FF920F931F93CF93DF931F92CDB70B
:10266000DEB78C018FE2FB0181935F01D12C41E049
:102670007801F3E3EF1AFEEFFF0A9FE1C92E2D2D3B
:1026800030E0F7018081918128173907D8F4C29E84
:10269000C001C39E900D112485569F4FB501800F38
:1026A000911F49830F94A434C50149815C010196AF
:1026B000F5012081222321F04D3810F44F5FF6CF31
:1026C000D394DDCF47FD11C0B501C8018A509E4F9C
:1026D0000F90DF91CF911F910F91FF90EF90DF90BE
:1026E000CF90BF90AF900D94A434F50110820F905D
:1026F000DF91CF911F910F91FF90EF90DF90CF90DE
:10270000BF90AF9008953F924F925F926F927F92E9
:102710008F929F92AF92BF92CF92DF92EF92FF92F1
:102720000F931F93CF93DF93CDB7DEB7AC970FB660
:10273000F894DEBF0FBECDBF8C016B01342EFC01BF
:102740008481882309F4D0C2E750FE4F808188231A
:1027500009F407C12111D1C07801FFEEEF1AFDEF96
:10276000FF0AF7018081882309F432C0EAE7F4E028
:1027700064918F01662359F0772767FD709583E098
:102780009DE1EDDB0F5F1F4FF8016491F3CFE6EFA2
:10279000F3E064918F01662359F0772767FD709508
:1027A00083E09DE1DCDB0F5F1F4FF8016491F3CF05
:1027B0004AE050E061E070E083E09DE10F947C67C7
:1027C0006AE070E083E09DE1CADB0E948E8F8CC2DC
:1027D000E4E7F4E064915F01662361F0772767FD29
:1027E000709583E09DE1BBDBFFEFAF1ABF0AF501F7
:1027F0006491F2CFEDEDF3E064915F01662361F047
:10280000772767FD709583E09DE1A9DBFFEFAF1AA5
:10281000BF0AF5016491F2CFB60183E09DE10F9408
:10282000CD66E2EDF3E064915F01662361F0772706
:1028300067FD709583E09DE192DBFFEFAF1ABF0A61
:10284000F5016491F2CFF70180812DE8B22EB80135
:10285000B89E600D711D11246A5E7D4FC801F4DEC3
:10286000F7018081B801B89E600D711D11246A5E68
:102870007D4F83E09DE10F94CD66ECECF3E0649135
:102880005F01662361F0772767FD709583E09DE126
:1028900066DBFFEFAF1ABF0AF5016491F2CF580172
:1028A000F5E5AF1AFDEFBF0AF50140815181628164
:1028B00073812AE030E083E09DE10F94A9676AE02C
:1028C00070E083E09DE14BDBF7012081F80184E0BB
:1028D000289FE00DF11D1124AF014E5E5D4FF50103
:1028E00080819181A281B381FA0180839183A28347
:1028F000B3832F5FF70120832EC0E4E7F4E06491F7
:102900007F01662361F0772767FD709583E09DE185
:1029100026DBFFEFEF1AFF0AF7016491F2CFEBEB32
:10292000F3E064917F01662361F0772767FD70957E
:1029300083E09DE114DBFFEFEF1AFF0AF7016491DA
:10294000F2CFB60183E09DE10F94CD666AE070E0BE
:1029500083E09DE104DBC8018A509E4F0F94EF375E
:1029600032C0F801EF5EFD4F1082E4E7F4E06491BD
:102970007F01662361F0772767FD709583E09DE115
:10298000EEDAFFEFEF1AFF0AF7016491F2CFEAEAFD
:10299000F3E064917F01662361F0772767FD70950E
:1029A00083E09DE1DCDAFFEFEF1AFF0AF7016491A3
:1029B000F2CFB60183E09DE10F94CD666AE070E04E
:1029C00083E09DE1CCDAF8011282CE0101965C0130
:1029D000CDDA280196E7490E511CC801895A9F4F4C
:1029E000F20191838083F60180818F3209F07BC0F0
:1029F0006FE270E0C6010F94397401967C01E11416
:102A0000F10409F476C06FE270E0C7010F943974E5
:102A10004C01009709F46EC0E816F90608F06AC088
:102A20003C016E187F08A301B701CE0180960F9478
:102A30006274E0E2F0E0EC0FFD1FE60DF71D10827E
:102A4000BE01605E7F4F83E09DE10F94CD666AE03A
:102A500070E083E09DE183DAF201608171816115AC
:102A6000710519F06C5F7F4F02C060E070E021E0FB
:102A7000AE01405E5F4FCE0105960F94E63981119D
:102A80002AC0E6E9F3E064918F01662359F07727C5
:102A900067FD709583E09DE162DA0F5F1F4FF801DB
:102AA0006491F3CFBE01605E7F4F83E09DE10F94A0
:102AB000CD66E4E9F3E064918F01662309F40DC16A
:102AC000772767FD709583E09DE149DA0F5F1F4F1F
:102AD000F8016491F2CFF201B182A0827401FFEF9C
:102AE000EF1AFF0A8CCFC80188589F4FF2019183DB
:102AF00080837601C8018A509E4F4C01F2016081AB
:102B00007181332009F49AC06115710519F06C5F69
:102B10007F4F02C060E070E021E0A701C4010F9484
:102B2000E639882309F462C0F40181899289A38976
:102B3000B489F801ED55FD4F80839183A283B3835F
:102B4000E6E8F3E064914F01C8018D559D4F6C019B
:102B5000662361F0772767FD709583E09DE1FFD9DB
:102B60009FEF891A990AF4016491F2CFB70183E0CB
:102B70009DE10F94CD66EEE7F3E064917F0166235B
:102B800061F0772767FD709583E09DE1E8D9FFEF5D
:102B9000EF1AFF0AF7016491F2CFF60140815181EB
:102BA000628173812AE030E083E09DE10F94A967A0
:102BB0006AE070E083E09DE1D2D9F801E555FD4F70
:102BC0001082118212821382E0E7F3E064918F0198
:102BD000662309F482C0772767FD709583E09DE145
:102BE000BED90F5F1F4FF8016491F2CFECE5F3E01F
:102BF00064918F01662359F0772767FD709583E014
:102C00009DE1ADD90F5F1F4FF8016491F3CFB7017C
:102C100083E09DE10F94CD66EAE5F3E064918F01D6
:102C2000662309F45AC0772767FD709583E09DE11C
:102C300096D90F5F1F4FF8016491F2CF61157105AE
:102C400019F06C5F7F4F02C060E070E026E5A701DD
:102C5000C4010F94E639811127C0E6E4F3E06491E2
:102C60008F01662359F0772767FD709583E09DE11A
:102C700076D90F5F1F4FF8016491F3CFB70183E05E
:102C80009DE10F94CD66E4E4F3E064918F01662347
:102C900021F1772767FD709583E09DE160D90F5F93
:102CA0001F4FF8016491F3CF81E0F8018083E2E3E4
:102CB000F3E064918F01662359F0772767FD7095E3
:102CC00083E09DE14CD90F5F1F4FF8016491F3CF72
:102CD000B60183E09DE10F94CD666AE070E083E089
:102CE0009DE13DD9C5014CD9AC960FB6F894DEBF35
:102CF0000FBECDBFDF91CF911F910F91FF90EF904D
:102D0000DF90CF90BF90AF909F908F907F906F900B
:102D10005F904F903F90089521E0FC01218340E0B7
:102D2000F2CC4F925F926F927F928F929F92AF926E
:102D3000BF92CF92DF92EF92FF920F931F93CF93A8
:102D4000DF93CDB7DEB7AC970FB6F894DEBF0FBEFA
:102D5000CDBF7C015B01FC018481882309F4F9C0AB
:102D6000C7018A509E4F0F94EF37F7011282CE01B0
:102D700001966C01FBD8270196E7490E511CC7014B
:102D8000895A9F4FF20191838083F50180818F32B0
:102D900009F077C06FE270E0C5010F9439748C01BF
:102DA0000F5F1F4F09F473C06FE270E0C8010F940A
:102DB00039744C01009709F46BC00817190708F023
:102DC00067C03C01601A710AA301B801CE01809668
:102DD0000F946274E0E2F0E0EC0FFD1FE60DF71DCA
:102DE0001082BE01605E7F4F83E09DE10F94CD664F
:102DF0006AE070E083E09DE1B2D8F2016081718108
:102E00006115710519F06C5F7F4F02C060E070E0E2
:102E100021E0AE01405E5F4FCE0105960F94E6398A
:102E200081112AC0EEE1F3E064918F01662359F02D
:102E3000772767FD709583E09DE191D80F5F1F4F65
:102E4000F8016491F3CFBE01605E7F4F83E09DE1A6
:102E50000F94CD66ECE1F3E064918F01662309F4F1
:102E600071C0772767FD709583E09DE178D80F5F8B
:102E70001F4FF8016491F2CFF201D182C082840128
:102E80008FCFC70188589F4FF201918380838501BE
:102E9000F20180819181009711F0049602C080E0D8
:102EA00090E0B8010F94BC3A882321F1EEE0F3E002
:102EB00064915F01662361F0772767FD709583E079
:102EC0009DE14DD8FFEFAF1ABF0AF5016491F2CF33
:102ED000B80183E09DE10F94CD666AE070E083E085
:102EE0009DE13DD8F701E555FD4F10821182128218
:102EF00013822DC0E6EFF2E064917F01662361F05A
:102F0000772767FD709583E09DE129D8FFEFEF1AE1
:102F1000FF0AF7016491F2CFB80183E09DE10F94BD
:102F2000CD66E4EFF2E064918F01662359F07727D4
:102F300067FD709583E09DE112D80F5F1F4FF80188
:102F40006491F3CF6AE070E083E09DE108D8C601A8
:102F500017D8AC960FB6F894DEBF0FBECDBFDF9189
:102F6000CF911F910F91FF90EF90DF90CF90BF9086
:102F7000AF909F908F907F906F905F904F9008954B
:102F80000F931F93CF93DF93EC018C81882309F477
:102F90003EC0E2EEF2E064918F01662361F0772794
:102FA00067FD709583E09DE10E94AF0F0F5F1F4F9B
:102FB000F8016491F2CFFE01E555FD4F408151814A
:102FC000628173812AE030E083E09DE10F94A9677C
:102FD000E0EEF2E064918F01662361F0772767FDF0
:102FE000709583E09DE10E94AF0F0F5F1F4FF801C6
:102FF0006491F2CFCD55DD4F488159816A817B8143
:103000002AE030E083E09DE10F94A96711C0E0ED74
:10301000F2E06491EF01662359F0772767FD709520
:1030200083E09DE10E94AF0F2196FE016491F3CFF2
:103030006AE070E083E09DE1DF91CF911F910F91F5
:103040000C94AF0FAF92BF92CF92DF92EF92FF92AC
:103050000F931F93CF93DF935C01EB01FB01019072
:103060000020E9F78F0101501109061B170B6C01B5
:10307000FAE0CF1AFEEFDF0AF60110826EE470E08C
:10308000CE010F9439747C01009729F4F80131972F
:10309000EC0FFD1F0DC060E270E00F943974EC017D
:1030A00021966AE270E0C7010F943974FC013197F0
:1030B0008DE081838AE082831382BE01C5018E5038
:1030C0009E4F0F94823CF6018081882391F1EAE7BC
:1030D000F4E06491EF01662359F0772767FD70955E
:1030E00083E09DE10E94AF0F2196FE016491F3CF32
:1030F000EAEBF2E06491EF01662359F0772767FD70
:10310000709583E09DE10E94AF0F2196FE016491CE
:10311000F3CF6AE070E083E09DE1DF91CF911F91F2
:103120000F91FF90EF90DF90CF90BF90AF900C94F5
:10313000AF0FDF91CF911F910F91FF90EF90DF9034
:10314000CF90BF90AF9008952F923F924F925F9291
:103150006F927F928F929F92AF92BF92CF92DF92A7
:10316000EF92FF920F931F93CF93DF93CDB7DEB70C
:10317000CC55D1090FB6F894DEBF0FBECDBF4C01C0
:103180008C0101551D4F662339F0F8011082F401BE
:10319000848181111DC015C0F8018081882309F444
:1031A000AFC0F401E955FD4FC080D180E280F380CB
:1031B0000F944661C616D706E806F90608F4A0C0C3
:1031C000E4CFC40138D9F4018481882309F498C07C
:1031D0007401F5E5EF0EF11CF70181818F93808179
:1031E0008F9381EB92E09F938F938E01015C1F4F31
:1031F0001F930F930F949F740F900F900F900F9049
:103200000F900F90B12CF80101900020E9F7319751
:10321000E01BF10BBE1684F46801CB0CD11CB7FC8B
:10322000DA94F6018081992787FD90950F94D773E2
:10323000F6018083B394E7CFFBE58F0E911C40E04D
:1032400050E0BA01C4010F940C37512CCE01019605
:103250006C013AEA632E32E0732E5E0191E2A90E10
:10326000B11C40E050E0B601C4010F945936181665
:10327000DCF5412CF60101900020E9F73197EC19BB
:10328000FD094E1674F41601240C311C47FC3A94C7
:10329000F101808190E00F94D773F1018083439412
:1032A000E9CF8A858E37E9F245E050E0B801C601E2
:1032B0000F945474892BA9F61F930F937F926F92EA
:1032C000BF92AF920F949F74C5010E943A3386EA71
:1032D00092E00E94B6330F900F900F900F900F90D6
:1032E0000F9055245394BDCF511004C08FEF9FEF22
:1032F000F70104C0F7018081918101969183808359
:10330000C45ADF4F0FB6F894DEBF0FBECDBFDF91BA
:10331000CF911F910F91FF90EF90DF90CF90BF90D2
:10332000AF909F908F907F906F905F904F903F9065
:103330002F9008950F931F93CF93DF93EC018C018F
:103340000A501E4FC8010F94A537C8010F94EF37DC
:1033500018821982DF91CF911F910F910895EF92FA
:10336000FF920F931F93CF93DF93CDB7DEB76F9785
:103370000FB6F894DEBF0FBECDBF8C017C0186E78F
:10338000E80EF11CC80188589F4FF7019183808394
:10339000E65CFD4F22E030E031832083329670E01E
:1033A0007183608340E050E0BA0104960F940C37BB
:1033B000F701808191812BE1FC013496DE011596A5
:1033C00001900D922A95E1F7FC01828193819C8303
:1033D0008B8389E39CE09A838983AE014F5F5F4FC3
:1033E00066EA7CE0C8010E945610CE0101960E9458
:1033F000C00F6F960FB6F894DEBF0FBECDBFDF9142
:10340000CF911F910F91FF90EF900895CF92DF928F
:10341000EF92FF920F931F93CF93DF93CDB7DEB759
:103420006F970FB6F894DEBF0FBECDBF8C016C0155
:1034300026E7C20ED11C88589F4FF60191838083E6
:10344000E65CFD4F21E030E0318320837801FEE42B
:10345000EF1AFDEFFF0AF7011182108240E050E001
:10346000BA0104960F940C37F601808191812BE10B
:10347000FC013496DE01159601900D922A95E1F734
:10348000FC01828193819C838B8389E39CE09A83F6
:103490008983AE014F5F5F4F66EA7CE0C8010E94FE
:1034A0005610CE0101960E94C00FF70180819181D4
:1034B0006F960FB6F894DEBF0FBECDBFDF91CF91F0
:1034C0001F910F91FF90EF90DF90CF900895AF92F2
:1034D000BF92CF92DF92EF92FF920F931F93CF9301
:1034E000DF93CDB7DEB76F970FB6F894DEBF0FBE90
:1034F000CDBF8C017B01CE0101960E94B60FF80171
:10350000E158FF4F80816801811104C027E5C20E98
:10351000D11C03C088E7C80ED11C21E0A701B60169
:103520006C5F7F4FCE0105960F94E639811136C04E
:10353000E4E7F4E064918F01662361F0772767FD8B
:10354000709583E09DE10E94AF0F0F5F1F4FF80160
:103550006491F2CFE0E9F2E064918F01662361F0BB
:10356000772767FD709583E09DE10E94AF0F0F5FA5
:103570001F4FF8016491F2CFB70183E09DE10F94F2
:10358000CD666AE070E083E09DE10E94AF0FCE015E
:1035900001960E94C00F8FEF9FEF3AC0F801E353EE
:1035A000FE4F808191818A30910530F59C012F5F1B
:1035B0003F4F318320832FE1289F7001299FF00C1A
:1035C0001124F7E9EF0EF11CE00EF11E5C01B701CA
:1035D000C7014F960E940B1221E0A21AB1088FE199
:1035E000E81AF108EFEFAE16BE0689F7B601C8017A
:1035F00089569F4F0E940B12BE016F5F7F4FC8011B
:1036000088589F4F0E940B12CE0101960E94C00F56
:103610006F960FB6F894DEBF0FBECDBFDF91CF918E
:103620001F910F91FF90EF90DF90CF90BF90AF90E0
:103630000895EF92FF920F931F93CF93DF93EC01C6
:10364000C353DE4F288139812115310529F12150DD
:103650003109398328838C0109561F4FB8018858D6
:103660009F4F0E940B12C80100E010E028813981B1
:103670007C014FE1E40EF11C0217130738F40F5FD1
:103680001F4FB7010E940B12C701F0CF81E090E0FD
:10369000232B21F080E002C08FEF9FEFDF91CF91CD
:1036A0001F910F91FF90EF900895EF92FF920F936B
:1036B0001F93CF93DF93EC0110927B1080910C103D
:1036C00090910D10019690930D1080930C10FED0E8
:1036D0008BE892E00E94B6330F9457498E010F5E3B
:1036E0001D4FF80180819E012A503E4F79018823A9
:1036F000A9F1C9010F94EF37F801808181508083CF
:10370000BE01FDE88F9F600D711D11246A5E7D4F23
:1037100021E041E0CE010E948313F8018081FE0187
:1037200024E0829FE00DF11D1124EE5EFD4F4081EB
:10373000518162817381FE01E555FD4F40835183C4
:1037400062837383C7010F940C37CE01DF91CF9151
:103750001F910F91FF90EF900C94FC120F94E7498A
:10376000C7010F94EF371A8221E030E045E050E0C6
:103770006AE070E08EED93E10E94792B80E090E0AA
:103780000E9477790F94574986E892E00E94B633F9
:103790000F9457491092F71C1092F61C1092F91CC6
:1037A0001092F81C1092F51C1092F41C1092CB1081
:1037B0001092CA101092C9108AE792E00E94B633A4
:1037C000809183198823F9F010928319C091051014
:1037D000D0E0CC0FDD1FCA50D34E68817981882795
:1037E00077FD8095982F0F94D76A20919D02309194
:1037F0009E0240919F025091A0020F94386C1816BF
:1038000014F419821882DF91CF911F910F91FF90CC
:10381000EF9008958D559D4FFC01608171818281EB
:103820009381089585559D4FFC016081718182814E
:1038300093810895EF92FF920F931F93CF93DF939D
:103840001F92CDB7DEB78C017B01460FF701619166
:103850007F01F8018081918149830F949D79F8015E
:103860008081918101969183808349814E11EECFB1
:103870000F90DF91CF911F910F91FF90EF900895DE
:10388000EF92FF920F931F93CF93DF931F92CDB7C9
:10389000DEB78C017B01460FF8018081918149835D
:1038A0000F949579F70181937F01F80180819181CF
:1038B00001969183808349814E11EECF0F90DF9165
:1038C000CF911F910F91FF90EF9008950F931F9349
:1038D000CF93DF93CDB7DEB768970FB6F894DEBF0E
:1038E0000FBECDBF80E390E3A0E3B0E08D839E8365
:1038F000AF83B88704E610E0188F0F8B44E0BE0159
:103900006B5F7F4FCE01479695DF40E164EE79E132
:10391000CE0147968FDF40E164EF79E1CE01479613
:1039200089DF40E164ED79E1CE01479683DF44E031
:103930006CEC79E1CE0147967DDF44E068EC79E1FB
:10394000CE01479677DF44E060ED79E1CE014796FE
:1039500071DF44E068EB79E1CE0147966BDF44E02C
:1039600064E07AE1CE01479665DF44E064EC79E1FA
:10397000CE0147965FDF44E060EC79E1CE014796E7
:1039800059DF44E06CEB79E1CE01479653DF4CE020
:1039900068E470E1CE0147964DDF87ED90E09E8BA5
:1039A0008D8B8DE290E09C8B8B8B1A8A198A80EF2D
:1039B00090E0988B8F8786E490E09E878D871C86A9
:1039C0001B8642E0BE016B5E7F4FCE01479632DF21
:1039D00042E0BE016D5E7F4FCE0147962BDF42E095
:1039E000BE016F5E7F4FCE01479624DF42E0BE01ED
:1039F000615F7F4FCE0147961DDF42E0BE01635FEE
:103A00007F4FCE01479616DF42E0BE01655F7F4FD4
:103A1000CE0147960FDF44E065E370E1CE014796A3
:103A200009DF44E06BE272E0CE01479603DF44E039
:103A300063E372E0CE014796FDDE44E06BE372E0A3
:103A4000CE014796F7DE42E066EA70E1CE01479686
:103A5000F1DE42E06AEA70E1CE014796EBDE42E039
:103A600068EA70E1CE014796E5DE42E064EA70E183
:103A7000CE014796DFDE42E066E970E1CE0147966F
:103A8000D9DE42E06AE970E1CE014796D3DE42E03A
:103A900068E970E1CE014796CDDE42E064E970E16D
:103AA000CE014796C7DE42E06EE970E1CE0147964F
:103AB000C1DE42E062EA70E1CE014796BBDE42E041
:103AC00060EA70E1CE014796B5DE42E06CE970E154
:103AD000CE014796AFDE42E06EE870E1CE01479638
:103AE000A9DE42E062E970E1CE014796A3DE42E042
:103AF00060E970E1CE0147969DDE42E06CE870E13E
:103B0000CE01479697DE44E06CEF72E0CE01479617
:103B100091DE44E064EF72E0CE0147968BDE44E034
:103B20006CEE72E0CE01479685DE44E060E073E023
:103B3000CE0147967FDE44E068EF72E0CE01479603
:103B400079DE44E060EF72E0CE01479673DE42E03A
:103B500060E170E1CE0147966DDE42E06CE070E11D
:103B6000CE01479667DE42E06AE070E1CE014796FB
:103B700061DE42E068E070E1CE0147965BDE42E044
:103B80006EE070E1CE01479655DE42E066E070E1FE
:103B9000CE0147964FDE80E290E09A87898742E027
:103BA000BE01675F7F4FCE01479644DE86E591E315
:103BB000A2E3B0E089839A83AB83BC83188F0F8B19
:103BC00044E0BE016F5F7F4FCE01479633DEE0ECED
:103BD000F7E064918F01662361F0772767FD7095A8
:103BE00083E09DE10E94AF0F0F5F1F4FF8016491CA
:103BF000F2CFE0EBF7E064918F01662361F0772765
:103C000067FD709583E09DE10E94AF0F0F5F1F4F2E
:103C1000F8016491F2CF6AE070E083E09DE10E94D8
:103C2000AF0F68960FB6F894DEBF0FBECDBFDF9121
:103C3000CF911F910F9108950F931F93CF93DF930F
:103C4000C0ECD7E0FE0164918E01662361F0772716
:103C500067FD709583E09DE10E94AF0F0F5F1F4FDE
:103C6000F8016491F2CFE0EAF7E064918F016623F6
:103C700061F0772767FD709583E09DE10E94AF0FAB
:103C80000F5F1F4FF8016491F2CF6AE070E083E0AC
:103C90009DE10E94AF0FFE01649100EC17E06623E6
:103CA00061F0772767FD709583E09DE10E94AF0F7B
:103CB0000F5F1F4FF8016491F2CF4091E4195091CA
:103CC000E5196091E6197091E71988E997E00E947B
:103CD000CE324091E8195091E9196091EA1970913A
:103CE000EB1985E997E00E94CE324091EC19509192
:103CF000ED196091EE197091EF1982E997E00E9439
:103D0000CE324091F0195091F1196091F2197091F1
:103D1000F3198FE897E00E94CE3266EA7CE083E0F8
:103D20009DE10F94CD666AE070E083E09DE10E9422
:103D3000AF0FFE01649100EC17E0662361F0772776
:103D400067FD709583E09DE10E94AF0F0F5F1F4FED
:103D5000F8016491F2CFE5E7F7E064918F01662303
:103D600061F0772767FD709583E09DE10E94AF0FBA
:103D70000F5F1F4FF8016491F2CF6AE070E083E0BB
:103D80009DE10E94AF0FFE01649100EC17E06623F5
:103D900061F0772767FD709583E09DE10E94AF0F8A
:103DA0000F5F1F4FF8016491F2CF4091F4195091C9
:103DB000F5196091F6197091F7198CE697E00E9459
:103DC000CE324091F8195091F9196091FA19709119
:103DD000FB1989E697E00E94CE324091FC19509180
:103DE000FD196091FE197091FF1986E697E00E9417
:103DF000CE324091001A5091011A6091021A7091CE
:103E0000031A83E697E00E94CE3266EA7CE083E004
:103E10009DE10F94CD666AE070E083E09DE10E9431
:103E2000AF0FFE01649100EC17E0662361F0772785
:103E300067FD709583E09DE10E94AF0F0F5F1F4FFC
:103E4000F8016491F2CFE5E4F7E064918F01662315
:103E500061F0772767FD709583E09DE10E94AF0FC9
:103E60000F5F1F4FF8016491F2CF6AE070E083E0CA
:103E70009DE10E94AF0FFE01649100EC17E0662304
:103E800061F0772767FD709583E09DE10E94AF0F99
:103E90000F5F1F4FF8016491F2CF4091D4195091F8
:103EA000D5196091D6197091D7198CE397E00E94CB
:103EB00016334091D8195091D9196091DA1970913F
:103EC000DB1989E397E00E9416334091DC19509189
:103ED000DD196091DE197091DF1986E397E00E9489
:103EE00016334091E0195091E1196091E2197091F7
:103EF000E31983E397E00E94163366EA7CE083E0EF
:103F00009DE10F94CD666AE070E083E09DE10E9440
:103F1000AF0FFE01649100EC17E0662361F0772794
:103F200067FD709583E09DE10E94AF0F0F5F1F4F0B
:103F3000F8016491F2CFEEEFF6E064918F01662311
:103F400061F0772767FD709583E09DE10E94AF0FD8
:103F50000F5F1F4FF8016491F2CF6AE070E083E0D9
:103F60009DE10E94AF0FFE01649100EC17E0662313
:103F700061F0772767FD709583E09DE10E94AF0FA8
:103F80000F5F1F4FF8016491F2CF4091CC1950910F
:103F9000CD196091CE197091CF1985EF96E00E94EE
:103FA000CE324091C8195091C9196091CA197091C7
:103FB000CB1982EF96E00E94CE3266EA7CE083E085
:103FC0009DE10F94CD666AE070E083E09DE10E9480
:103FD000AF0FFE01649100EC17E0662361F07727D4
:103FE00067FD709583E09DE10E94AF0F0F5F1F4F4B
:103FF000F8016491F2CFEFE3F6E064918F0166235C
:1040000061F0772767FD709583E09DE10E94AF0F17
:104010000F5F1F4FF8016491F2CF6AE070E083E018
:104020009DE10E94AF0FFE01649100EC17E0662352
:1040300061F0772767FD709583E09DE10E94AF0FE7
:104040000F5F1F4FF8016491F2CF4091D01950914A
:10405000D1196091D2197091D31986E396E00E942C
:10406000CE324091B8195091B9196091BA19709136
:10407000BB1983E396E00E94CE324091041A50911E
:10408000051A6091061A7091071A80E396E00E9463
:1040900016334091C4195091C5196091C619709199
:1040A000C7198DE296E00E94CE324091C01950911E
:1040B000C1196091C2197091C3198AE296E00E94F9
:1040C000CE324091BC195091BD196091BE197091CA
:1040D000BF1987E296E00E94CE3266EA7CE083E078
:1040E0009DE10F94CD666AE070E083E09DE10E945F
:1040F000AF0FFE01649100EC17E0662361F07727B3
:1041000067FD709583E09DE10E94AF0F0F5F1F4F29
:10411000F8016491F2CFE5E1F6E064918F01662346
:1041200061F0772767FD709583E09DE10E94AF0FF6
:104130000F5F1F4FF8016491F2CF6AE070E083E0F7
:104140009DE10E94AF0FFE01649100EC17E0662331
:1041500061F0772767FD709583E09DE10E94AF0FC6
:104160000F5F1F4FF8016491F2CF409148105091BA
:10417000491060914A1070914B108CE096E00E94BB
:10418000CE3240914C1050914D1060914E10709174
:104190004F1089E096E00E94CE324091501050912D
:1041A0005110609152107091531086E096E00E9479
:1041B000CE3266EA7CE083E09DE10F94CD666AE052
:1041C00070E083E09DE10E94AF0FFE01649100EC7E
:1041D00017E0662361F0772767FD709583E09DE126
:1041E0000E94AF0F0F5F1F4FF8016491F2CFE8EF0D
:1041F000F5E064918F01662361F0772767FD709584
:1042000083E09DE10E94AF0F0F5F1F4FF8016491A3
:10421000F2CF6AE070E083E09DE10E94AF0FFE0103
:10422000649100EC17E0662361F0772767FD7095D5
:1042300083E09DE10E94AF0F0F5F1F4FF801649173
:10424000F2CF4091FC025091FD026091FE0270910C
:10425000FF028BEE95E00E94CE326091F4027091E5
:10426000F5028091F6029091F7020F94B05BAB01DA
:10427000BC0188EE95E00E94CE326091EC02709114
:10428000ED028091EE029091EF020F94BC5BAB01C6
:10429000BC0185EE95E00E94CE3240910003509122
:1042A0000103609102037091030385ED95E00E9484
:1042B000CE326091F8027091F9028091FA029091E9
:1042C000FB020F94B05BAB01BC0182ED95E00E9454
:1042D000CE326091F0027091F1028091F2029091E1
:1042E000F3020F94BC5BAB01BC018FEC95E00E9424
:1042F000CE3266EA7CE083E09DE10F94CD666AE011
:1043000070E083E09DE10E94AF0FFE01649100EC3C
:1043100017E0662361F0772767FD709583E09DE1E4
:104320000E94AF0F0F5F1F4FF8016491F2CFE1ECD5
:10433000F5E064918F01662361F0772767FD709542
:1043400083E09DE10E94AF0F0F5F1F4FF801649162
:10435000F2CF6AE070E083E09DE10E94AF0FFE01C2
:10436000649100EC17E0662361F0772767FD709594
:1043700083E09DE10E94AF0F0F5F1F4FF801649132
:10438000F2CF40912B0250912C0260912D0270913E
:104390002E028DEB95E00E94CE3240913302509177
:1043A0003402609135027091360289EB95E00E94EB
:1043B000CE3240913B0250913C0260913D0270919F
:1043C0003E0285EB95E00E94CE324091351050912F
:1043D000361060913710709138108CEA95E00E9489
:1043E000CE3266EA7CE083E09DE10F94CD666AE020
:1043F00070E083E09DE10E94AF0FFE01649100EC4C
:1044000017E0662361F0772767FD709583E09DE1F3
:104410000E94AF0F0F5F1F4FF8016491F2CFEFE9D9
:10442000F5E064918F01662361F0772767FD709551
:1044300083E09DE10E94AF0F0F5F1F4FF801649171
:10444000F2CF6AE070E083E09DE10E94AF0FFE01D1
:10445000649100EC17E0662361F0772767FD7095A3
:1044600083E09DE10E94AF0F0F5F1F4FF801649141
:10447000F2CF6091AA107091AB10882777FD8095DC
:10448000982F0F94D76AAB01BC0184E995E00E9494
:10449000CE326091A8107091A910882777FD809581
:1044A000982F0F94D76AAB01BC0189E895E00E9470
:1044B000CE326091A4107091A510882777FD809569
:1044C000982F0F94D76AAB01BC0181E895E00E9458
:1044D000CE326091A6107091A710882777FD809545
:1044E000982F0F94D76AAB01BC0187E795E00E9433
:1044F000CE3266EA7CE083E09DE10F94CD666AE00F
:1045000070E083E09DE10E94AF0FFE01649100EC3A
:1045100017E0662361F0772767FD709583E09DE1E2
:104520000E94AF0F0F5F1F4FF8016491F2CFEAE6D0
:10453000F5E064918F01662361F0772767FD709540
:1045400083E09DE10E94AF0F0F5F1F4FF801649160
:10455000F2CF6AE070E083E09DE10E94AF0FFE01C0
:10456000649100EC17E0662361F0772767FD709592
:1045700083E09DE10E94AF0F0F5F1F4FF801649130
:10458000F2CF6091A2107091A310882777FD8095DB
:10459000982F0F94D76AAB01BC018FE595E00E947C
:1045A000CE326091A0107091A110882777FD809580
:1045B000982F0F94D76AAB01BC0184E595E00E9467
:1045C000CE3260919C1070919D10882777FD809568
:1045D000982F0F94D76AAB01BC018CE495E00E9440
:1045E000CE3260919E1070919F10882777FD809544
:1045F000982F0F94D76AAB01BC0182E495E00E942A
:10460000CE3266EA7CE083E09DE10F94CD666AE0FD
:1046100070E083E09DE10E94AF0FFE01649100EC29
:1046200017E0662361F0772767FD709583E09DE1D1
:104630000E94AF0F0F5F1F4FF8016491F2CFEDE3BF
:10464000F5E064918F01662361F0772767FD70952F
:1046500083E09DE10E94AF0F0F5F1F4FF80164914F
:10466000F2CF6AE070E083E09DE10E94AF0FFE01AF
:10467000C49100EC17E0CC2369F06C2F772767FD1D
:10468000709583E09DE10E94AF0F0F5F1F4FF8010F
:10469000C491F1CF6091101070911110882777FDAF
:1046A0008095982F0F94D76AAB01BC0184E395E005
:1046B0000E94CE3260910E1070910F10882777FD06
:1046C0008095982F0F94D76AAB01BC0186E295E0E4
:1046D0000E94CE3260910C1070910D10882777FDEA
:1046E0008095982F0F94D76AAB01BC0184E195E0C7
:1046F0000E94CE3260910A1070910B10882777FDCE
:104700008095982F0F94D76AAB01BC0187E095E0A4
:104710000E94CE326091081070910910882777FDB1
:104720008095982F0F94D76AAB01BC018AEF94E073
:104730000E94CE326091061070910710882777FD95
:104740008095982F0F94D76AAB01BC018DEE94E051
:104750000E94CE3266EA7CE083E09DE10F94CD6654
:104760006AE070E083E09DE1DF91CF911F910F91AE
:104770000C94AF0FAF92BF92CF92DF92EF92FF9265
:104780000F931F93CF93DF93CDB7DEB7E0970FB6AC
:10479000F894DEBF0FBECDBF80E1E4E0F3E0DE01C0
:1047A000919601900D928A95E1F780E1E4E1F3E0C2
:1047B000DE01519601900D928A95E1F780E1E4E2E5
:1047C000F3E0DE01119601900D928A95E1F76E01FA
:1047D00081E2C80ED11C84EEE82E89E1F82E8E010C
:1047E0000F5E1F4F64EF79E1AE014F5F5F4F94EDB5
:1047F000A92E99E1B92E20E030E0F6018191919146
:10480000A191B1916F01F70181939193A193B1931C
:104810007F01F80181919191A191B1918F01FB01EB
:1048200081939193A193B193BF01FA0181919191E9
:10483000A191B191AF01F50181939193A193B193AE
:104840005F012F5F3F4F24303105B9F60F94E22B03
:1048500080E090E8ABEBB4E48093CC199093CD1951
:10486000A093CE19B093CF1980E090E0AAEFB4E402
:104870008093C8199093C919A093CA19B093CB1902
:104880001092D0191092D1191092D2191092D319F6
:1048900080E29EE4A0E0B0E08093041A9093051AB1
:1048A000A093061AB093071A1092B8191092B9196A
:1048B0001092BA191092BB1980E090E0A0EAB0E41F
:1048C0008093C4199093C519A093C619B093C719C2
:1048D0004DEC5CEC6CEC7EE34093C0195093C11935
:1048E0006093C2197093C3198093BC199093BD193A
:1048F000A093BE19B093BF1910925010109251108E
:10490000109252101092531010924C1010924D10A1
:1049100010924E1010924F101092481010924910A1
:1049200010924A1010924B1067ED70E07093A71030
:104930006093A6104CED50E05093AB104093AA103A
:104940002AEA30E03093A9102093A81081E490E087
:104950009093A5108093A410709397106093961075
:1049600050939B1040939A10309399102093981075
:10497000909395108093941070939F1060939E1065
:104980005093A3104093A2103093A1102093A01035
:1049900090939D1080939C1070938F1060938E1055
:1049A0005093931040939210309391102093901055
:1049B00090938D1080938C108AE999E9A9E3B0EC6B
:1049C0008093351090933610A0933710B093381021
:1049D000E0ECF7E064918F01662361F0772767FDD3
:1049E000709583E09DE10E94AF0F0F5F1F4FF801AC
:1049F0006491F2CFE1EBF4E064918F01662361F002
:104A0000772767FD709583E09DE10E94AF0F0F5FF0
:104A10001F4FF8016491F2CF6AE070E083E09DE1FE
:104A2000E0960FB6F894DEBF0FBECDBFDF91CF91F9
:104A30001F910F91FF90EF90DF90CF90BF90AF90BC
:104A40000C94AF0FCF92DF92EF92FF92CF93DF9350
:104A500083E393EFA7E9B3E480932B0290932C02B6
:104A6000A0932D02B0932E028AE999E9A9E1BEEB49
:104A70008093330290933402A0933502B0933602B0
:104A80008DEC9CECACECBDEB80933B0290933C0234
:104A9000A0933D02B0933E022CE5C22E2FE8D22E09
:104AA00022E7E22E21E4F22EC092FC02D092FD0217
:104AB000E092FE02F092FF0261EE7AE784E99FE362
:104AC0000F94AA5B6093F4027093F5028093F60250
:104AD0009093F7026FE175E885E492E40F94B65B7A
:104AE0006093EC027093ED028093EE029093EF02DC
:104AF000C0920003D0920103E0920203F0920303FC
:104B000061EE7AE784E99FE30F94AA5B6093F80271
:104B10007093F9028093FA029093FB026FE175E8BB
:104B200085E492E40F94B65B6093F0027093F10217
:104B30008093F2029093F30280E090E0A0E8BFE35C
:104B40008093E4029093E502A093E602B093E7021B
:104B50008093E8029093E902A093EA02B093EB02FB
:104B6000E0ECF7E06491EF01662359F0772767FDE9
:104B7000709583E09DE10E94AF0F2196FE01649144
:104B8000F3CFE1E8F4E06491EF01662359F0772771
:104B900067FD709583E09DE10E94AF0F2196FE01B5
:104BA0006491F3CF6AE070E083E09DE1DF91CF9103
:104BB000FF90EF90DF90CF900C94AF0F0F931F9367
:104BC000CF93DF93CDB7DEB768970FB6F894DEBF0B
:104BD0000FBECDBF84E690E0988F8F8B86E591E382
:104BE000A2E3B0E089839A83AB83BC8344E0BE0137
:104BF0006B5F7F4FCE0147960E94401C43E050E020
:104C0000BE016B5F7F4FCE0101960F945474892BC8
:104C100009F09BC140E164EE79E1CE0147960E9424
:104C2000401C40E164EF79E1CE0147960E94401CB0
:104C300040E164ED79E1CE0147960E94401C0F945B
:104C4000E22B44E06CEC79E1CE0147960E94401CD7
:104C500044E068EC79E1CE0147960E94401C44E0B4
:104C600060ED79E1CE0147960E94401C44E068EB7C
:104C700079E1CE0147960E94401C44E064E07AE16D
:104C8000CE0147960E94401C44E064EC79E1CE01DD
:104C900047960E94401C44E060EC79E1CE014796C3
:104CA0000E94401C44E06CEB79E1CE0147960E94E3
:104CB000401C4CE068E470E1CE0147960E94401C25
:104CC00042E0BE016B5E7F4FCE0147960E94401CC2
:104CD00042E0BE016D5E7F4FCE0147960E94401CB0
:104CE00042E0BE016F5E7F4FCE0147960E94401C9E
:104CF00042E0BE01615F7F4FCE0147960E94401C9B
:104D000042E0BE01635F7F4FCE0147960E94401C88
:104D100042E0BE01655F7F4FCE0147960E94401C76
:104D200044E065E370E1CE0147960E94401C44E0F8
:104D30006BE272E0CE0147960E94401C44E063E3C0
:104D400072E0CE0147960E94401C44E06BE372E0A3
:104D5000CE0147960E94401C42E066EA70E1CE0117
:104D600047960E94401C42E06AEA70E1CE014796F5
:104D70000E94401C42E068EA70E1CE0147960E9422
:104D8000401C42E064EA70E1CE0147960E94401C5C
:104D900042E066E970E1CE0147960E94401C42E085
:104DA0006AE970E1CE0147960E94401C42E068E942
:104DB00070E1CE0147960E94401C42E064E970E138
:104DC000CE0147960E94401C42E06EE970E1CE01A0
:104DD00047960E94401C42E062EA70E1CE0147968D
:104DE0000E94401C42E060EA70E1CE0147960E94BA
:104DF000401C42E06CE970E1CE0147960E94401CE5
:104E000042E06EE870E1CE0147960E94401C42E00D
:104E100062E970E1CE0147960E94401C42E060E9E1
:104E200070E1CE0147960E94401C42E06CE870E1C0
:104E3000CE0147960E94401C44E06CEF72E0CE0128
:104E400047960E94401C44E064EF72E0CE01479612
:104E50000E94401C44E06CEE72E0CE0147960E9436
:104E6000401C44E060E073E0CE0147960E94401C85
:104E700044E068EF72E0CE0147960E94401C44E097
:104E800060EF72E0CE0147960E94401C42E060E174
:104E900070E1CE0147960E94401C42E06CE070E158
:104EA000CE0147960E94401C42E06AE070E1CE01CC
:104EB00047960E94401C42E068E070E1CE014796B0
:104EC0000E94401C42E06EE070E1CE0147960E94D5
:104ED000401C42E066E070E1CE0147960E94401C13
:104EE00042E0BE01675F7F4FCE0147960E94401CA3
:104EF0000F94D14BE0ECF7E064918F01662361F0F1
:104F0000772767FD709583E09DE10E94AF0F0F5FEB
:104F10001F4FF8016491F2CFE3EDF4E064918F014B
:104F2000662361F0772767FD709583E09DE10E941D
:104F3000AF0F0F5F1F4FF8016491F2CF6AE070E08E
:104F400083E09DE10E94AF0F04C014DC7BDD0E9472
:104F5000661C68960FB6F894DEBF0FBECDBFDF911A
:104F6000CF911F910F910895823D9440F1F41092DA
:104F70000F1010920E10109207101092061010923F
:104F80000B1010920A101092091010920810109233
:104F900011101092101010920D1010920C1067E664
:104FA00073E083E09DE10D94D8660895FC01E65915
:104FB000F109E63AF10518F068E773E023C0FB0158
:104FC000E659F109E63AF105B8F7FA01E659F109AF
:104FD000E63AF10588F7F9013597EA36F10560F709
:104FE0009093AB108093AA107093A9106093A810AF
:104FF0005093A7104093A6103093A5102093A410AF
:1050000064E978E083E09DE10D94D866FC01E659FF
:10501000F109E63AF10518F068E773E023C0FB01F7
:10502000E659F109E63AF105B8F7FA01E659F1094E
:10503000E63AF10588F7F9013597EA36F10560F7A8
:105040009093A3108093A2107093A1106093A0106E
:1050500050939F1040939E1030939D1020939C106E
:1050600064E978E083E09DE10D94D866AF92BF9249
:10507000CF92DF92EF92FF920F931F9360932B02D8
:1050800070932C0280932D0290932E022093330272
:10509000309334024093350250933602E0923B0243
:1050A000F0923C0200933D0210933E02A092351014
:1050B000B0923610C0923710D09238101F910F91D5
:1050C000FF90EF90DF90CF90BF90AF900895FC01DC
:1050D000EA57FF4F11821082329611821082329667
:1050E00011821082369711821082B1971082DC01F2
:1050F000A958BF4FED93FC93769628EE33E03183A9
:10510000208332961182108232961182108232965A
:1051100010823196118210820895CF93DF93EC01B3
:10512000CE57DF4F88819981DC01ED91FC9104809D
:10513000F581E02D199518161906A4F78881998133
:10514000DC01ED91FC910680F781E02D1995DF914E
:10515000CF9108950F931F93CF93DF93EC01CE5718
:10516000DF4F88819981DC01ED91FC910480F5810C
:10517000E02D199518161906A4F788819981DC018C
:10518000ED91FC910680F781E02D199500E010E08B
:10519000182F88819981DC01ED91FC910680F781BF
:1051A000E02D1995802B912BDF91CF911F910F91BD
:1051B0000895FC01E958FF4FA081B1818D599F4F9F
:1051C0008A179B0780F48FEF8C93808191810197E0
:1051D0009183808380917E0D90917F0D01979093B4
:1051E0007F0D80937E0D08950F931F93CF93DF93D0
:1051F0008C01EC01CE57DF4F88819981DC01ED9164
:10520000FC910480F581E02D1995892B41F4F8017A
:10521000E358FF4F8DEF9FEF918380830AC0888111
:105220009981DC01ED91FC910680F781E02D1995C3
:105230009927DF91CF911F910F910895FC01E358B9
:10524000FF4F11821082D0CF0895CF93DF93EC01EE
:10525000CE57DF4F88819981DC01ED91FC9106806A
:10526000F781E02D199597FFF5CFDF91CF91089544
:10527000CF93DF93EC01E9DFFE01E05AFF4F10828C
:105280003196108231961082799611821082109296
:105290007F0D10927E0D3497CD59DF4FD183C0839F
:1052A0001882DF91CF910895CF93DF93EC01CE590F
:1052B000DF4F28812223D1F09C01205A3F4FF90172
:1052C000508146E0FC01459FE00DF11D1124DB01FA
:1052D00001900D924A95E1F7F90180818F5F8F70FF
:1052E000808388818150888381E001C080E0DF91E4
:1052F000CF910895BF92CF92DF92EF92FF920F93DA
:105300001F93CF93DF93FB01EC01CE59DF4FE88071
:105310002DE02E15B0F1AC014F595F4FDA010C9121
:1053200010E0980160E070E0F12CA6E0DA2EE616BD
:10533000F70681F12150310910F42FE030E0D29EC0
:10534000D001D39EB00D1124A80FB91FBC90C0800E
:10535000BC1014C01196BC901197C180BC100EC037
:105360001296BC901297C280BC1008C0838113961D
:105370008C931397848114968C9321C06F5F7F4F19
:10538000D6CFFC01E358FF4F2BEF3FEF3183208353
:1053900080E015C026E0209FD001219FB00D112490
:1053A000A80FB91F01900D922A95E1F7FA018081AB
:1053B0008F5F8F70808388818F5F888381E0DF912A
:1053C000CF911F910F91FF90EF90DF90CF90BF9002
:1053D0000895FC01E958FF4F0190F081E02D6083B2
:1053E000635071096230710520F4FC01E158FF4FF0
:1053F000108208950F931F93CF93DF931F92CDB721
:10540000DEB78C0180917E0D90917F0D449724F042
:10541000C80169832DDF698180917E0D90917F0D98
:10542000019690937F0D80937E0DF801E958FF4F10
:105430008081918101969183808370E0C8010F90F3
:10544000DF91CF911F910F91C4CFAF92BF92CF92B6
:10545000DF92EF92FF921F93CF93DF931F92CDB70E
:10546000DEB75C016983EADE182F65012DE7C20E05
:10547000D11CD6018D919C916981039699F4F50117
:10548000EE59FF4F8081882309F477C0B4960190CC
:10549000F081E02D309709F470C0662309F46DC0E7
:1054A00019956BC07501E7E7EE0EF11CD701ED9180
:1054B000FC918081813049F018F08230E9F036C0EB
:1054C0001A3059F11B3039F42CC01A3031F138F44C
:1054D000163009F44FC0173009F055C01CC01B30FE
:1054E00001F1153109F04FC0C50163DE8CEF9FEF6C
:1054F000F6019183808347C0173069F038F4153086
:1055000009F041C0C50155DE63E00EC01A3029F034
:105510001B3039F038C064E007C010927D0D66E0A2
:1055200003C010927D0D67E0C50164DFD701ED91E6
:10553000FC9180819DEF980F923010F57501FFE787
:10554000EF0EF11CD7012C91222301F180917C0DEB
:10555000812780937C0DE22FF0E0EA58F24F108310
:105560002530D9F4811114C066E77DE0C501C2DEA3
:10557000F7011082C5011DDE06C080E090E05AC030
:105580008650823070F081E090E054C0812FE1CFEE
:1055900088EF9FEFD6018D939C932F5FF7012083B7
:1055A000F2CF80917D0D813031F41093740D82E043
:1055B00080937D0DE8CF813020F41093730D81E04E
:1055C000F7CF823001F71093750D83E080937D0D46
:1055D0008091730D8A3091F4F501E857FF4F0190E7
:1055E000F081E02D3097A1F48091750D815080936A
:1055F000750D8823E1F0C50190DDF6CF8B30B9F44D
:10560000F501E657FF4F0190F081E02D309729F02A
:10561000612F8091740D19950AC08091750D81508C
:105620008093750D882319F0C50194DDF6CFC5016F
:1056300074DDA0CF0F90DF91CF911F91FF90EF907D
:10564000DF90CF90BF90AF900895AF92BF92CF926E
:10565000DF92EF92FF920F931F93CF93DF93EC01B2
:105660000F9446616B017C018E0107581F4FD801D2
:105670008D919C91AA2797FDA095BA2FC80ED91E8F
:10568000EA1EFB1E5E01B7E7AB0EB11C0F9446612C
:105690006C157D058E059F05D8F460E0CE01D5DE42
:1056A000019779F40F9446616B017C01F8018081C8
:1056B0009181AA2797FDA095BA2FC80ED91EEA1E80
:1056C000FB1ED501ED91FC9180818111DFCF06C0D9
:1056D000C358DF4F8FEF9FEF99838883DF91CF917E
:1056E0001F910F91FF90EF90DF90CF90BF90AF9000
:1056F0000895BF92CF92DF92EF92FF920F931F9384
:10570000CF93DF938C01D62EC42E79019EDFF80152
:10571000E358FF4F11821082E801CE57DF4F888196
:105720009981DC01ED91FC910190F081E02D61E027
:10573000199588819981DC01ED91FC910190F081AE
:10574000E02D6D2D199588819981DC01ED91FC91F9
:105750000190F081E02D6C2D1995BB24B394BC24ED
:10576000BD2488819981DC01ED91FC910190F0814B
:10577000E02D6F2D1995BF2488819981FF24DC01CC
:10578000ED91FC910190F081E02D6E2D19958881AD
:105790009981DC01ED91FC916B2D6E250190F081DA
:1057A000E02D199561E0C80125DEDF91CF911F91B1
:1057B0000F91FF90EF90DF90CF90BF900895AF9240
:1057C000BF92CF92DF92EF92FF920F931F93CF93EE
:1057D000DF935C016B017A01EA0109900020E9F78F
:1057E0002197C41BD50BCF3FD10511F00CF048C059
:1057F0002CDF85010E571F4FD8018D919C91DC0144
:10580000ED91FC910190F081E02D62E01995F80195
:1058100080819181DC01ED91FC910190F081E02D7E
:105820006C2D1995B2E0CB26F80180819181DC01C5
:10583000ED91FC910190F081E02D6C2F1995CC2613
:10584000DD26D7016C91F80180819181DC01ED9119
:10585000FC910190F081E02D662351F01995F7013C
:1058600081917F01992787FD9095C826D926E9CF98
:105870006C2D199561E0C501BDDD80E090E002C0AE
:105880008FEF9FEFDF91CF911F910F91FF90EF90DE
:10589000DF90CF90BF90AF9008952F923F924F929C
:1058A0005F926F927F928F929F92AF92BF92CF92B0
:1058B000DF92EF92FF920F931F93CF93DF93CDB7B9
:1058C000DEB7A9970FB6F894DEBF0FBECDBF9FA37A
:1058D0008EA379A768A769017A01580119A220E06F
:1058E00030E0A901C701B6010F94356A26013701DE
:1058F00087FF04C077FA709477F8709400E010E0A6
:1059000060E070E080E09FE30A151B054CF420E0A6
:1059100030E040E251E40F943C6A0F5F1F4FF4CF38
:105920009B01AC01C301B2010F945C692B013C01E6
:105930000F94A96A962E272E382E892E0F94D56A99
:105940009B01AC01C301B2010F945B698E010A197E
:105950001B090F5D1F4F1DA30CA3BBA2AAA2EAA1A6
:10596000FBA11E161F0624F520E030E040E251E4C2
:105970000F940A6D2B013C010F94A46A20E3260FBB
:10598000ECA1FDA12193FDA3ECA3882777FD8095D1
:10599000982F0F94D76A9B01AC01C301B2010F94F9
:1059A0005B692AA13BA1215031093BA32AA3D7CF90
:1059B0001A141B0424F48EE2F80182938F014AE04A
:1059C000442E512C612C712C692D722D832D982D14
:1059D000A30192010F940A6E892DFAE02F9F80197E
:1059E0001124015011098A3014F4805D01C0895CD2
:1059F000F8018083211531054105510529F0922ECA
:105A0000232E342E852EE0CF20E030E0A901C701FF
:105A1000B6010F94356A87FF05C001501109F801DE
:105A20008DE28083A80168A579A58EA19FA1C7DE1C
:105A300080E090E0A9960FB6F894DEBF0FBECDBF10
:105A4000DF91CF911F910F91FF90EF90DF90CF905A
:105A5000BF90AF909F908F907F906F905F904F908E
:105A60003F902F9008958A579F4FFC017183608368
:105A70000895CF93DF93EC01FC01EE57FF4F718344
:105A8000608360E0B7DCFE01E05AFF4F1082319680
:105A90001082CE59DF4F1882DF91CF9108950F9376
:105AA0001F93CF93DF938C01C4EED9E1F80161918C
:105AB0007191819191918F012991399149915991D8
:105AC0000F940A6D0F94A46AF8016487758786871E
:105AD0009787F9E1C43FDF0749F7DF91CF911F9125
