:100000000C948E0D0C94BF0D0C94BF0D0C94BF0D71
:100010000C94BF0D0C94BF0D0C94BF0D0C94BF0D30
:100020000C94BF0D0C94BF0D0C94BF0D0C94BF0D20
:100030000C94BF0D0C94BF0D0C94BF0D0C94BF0D10
:100040000C94BF0D0D94E1480C94BF0D0C94BF0DA2
:100050000C94BF0D0C94BF0D0D9455610D941A684E
:100060000C94BF0D0D944A6C0D94806C0C94BF0DD4
:100070000C94BF0D0C94BF0D0C94BF0D0C94BF0DD0
:100080000C94BF0D0C94BF0D0C94BF0D0C94BF0DC0
:100090000C94BF0D0C94BF0D0C94BF0D0C94820EEC
:1000A0000C94BF0D0C94BF0D0C94BF0D0C94BF0DA0
:1000B0000C94BF0D0C94BF0D0C94BF0D0C94BF0D90
:1000C0000C94BF0D0C94BF0D0C94BF0D0D94F56CEA
:1000D0000D942B6D0C94BF0D0C94BF0D0C94BF0DA3
:1000E0000C94BF0D33011101270113012B011B01DA
:1000F000FB001901F5002F01E300D300E900030123
:10010000E500EF003B01D100C9000701F100D90073
:100110000D01230101013B012901D5002D0117012A
:1001200005011501EB00CD00CB001D013501C70015
:100130002501CF00FF00F700F300CB002101FD00F7
:100140003901084AD73B3BCE016E84BCBFFDC12FAD
:100150003D6C74319ABD56833DDA3D00C77F11BEB8
:10016000D9E4BB4C3E916BAAAABE000000803F05BB
:10017000A84CCDB2D44EB93836A9020C50B99186EC
:1001800088083CA6AAAA2ABE000000803F000D9461
:100190001A6A0D9480690D94436A0D94056A0D9452
:1001A000226A0D9478690D9450690D94D3690D9469
:1001B0005D6D0D949C690D94076B0D94846B0D948B
:1001C00022100D943A100D9462620D9464690D949E
:1001D000636B0D9455690D94FF690D94DA6A0D9463
:1001E0006E690D9492690D94306A0D9458620D9465
:1001F0002C6A0D94546D0D9454620D943A6A0D94CA
:10020000286A0D94BF690D945A690D940C6A0D9477
:1002100088690D94A96C0D94E56A0D94A6690D94F6
:100220008F430D94EA610D9413620D94FB690D9454
:10023000096A0D9456620D943A620D94106A0D94F9
:10024000B26C0D94366A0D94B5690D941E6A0D94C6
:1002500006620D94C9690D942D620D94DD690D94AB
:100260005A620D94AD6D0D94DD610D94146A0D9478
:10027000F36A0D943E6A0D94E7694D383420582096
:1002800059205A2045004D313037004D313037006C
:1002900043616E6E6F7420656E7465722073756253
:1002A0006469723A20004D3234004D323320257398
:1002B000006175746F25692E67006572726F722018
:1002C00077726974696E6720746F2066696C650067
:1002D0004E6F74205344207072696E74696E6700AB
:1002E0002F005344207072696E74696E67206279C2
:1002F000746520002E0044656C6574696F6E20661D
:1003000061696C65642C2046696C653A2000466919
:100310006C652064656C657465643A002E006F70CE
:10032000656E206661696C65642C2046696C653A6F
:10033000200057726974696E6720746F2066696C5B
:10034000653A20002E006F70656E206661696C65ED
:10035000642C2046696C653A20002E006F70656E33
:10036000206661696C65642C2046696C653A2000E2
:1003700046696C652073656C656374656400205321
:10038000697A653A200046696C65206F70656E6514
:10039000643A20002E006F70656E206661696C659E
:1003A000642C2046696C653A20004E6F7720667297
:1003B0006573682066696C653A20004E6F7720642B
:1003C0006F696E672066696C653A20002220706F45
:1003D00073002220706172656E743A220053554298
:1003E000524F5554494E452043414C4C2074617244
:1003F0006765743A2200747279696E6720746F20A1
:1004000063616C6C207375622D67636F6465206631
:10041000696C6573207769746820746F6F206D61F3
:100420006E79206C6576656C732E204D4158206C7A
:100430006576656C2069733A005344206361726489
:10044000206F6B006F70656E526F6F74206661690C
:100450006C656400766F6C756D652E696E697420CD
:100460006661696C656400534420696E6974206636
:1004700061696C006563686F3A004572726F723A29
:100480000048617264636F6465642043616C6962F3
:1004900020616E64205049442044656661756C7427
:1004A0002053657474696E6773204C6F6164656472
:1004B0000048617264636F646564204465666175B9
:1004C0006C742053657474696E6773204C6F61643B
:1004D00065640053746F7265642073657474696E2B
:1004E00067732072657472696576656400206D615A
:1004F000782074656D7020422000206D6178207432
:10050000656D7020522000206D61782074656D70DB
:10051000204C2000207072696E74732066696E69C9
:1005200073686564200020686F757273207072694B
:100530006E742000207072696E747320004C4F47F7
:100540003A0020525F5052494E54200020525F42E0
:100550004544200020525F52454D4F564520002013
:10056000525F494E53455254200054656D70202807
:10057000EFBFBD43293A00204C5F5052494E5420F2
:1005800000204C5F4245442000204C5F52454D4FB7
:1005900056452000204C5F494E534552542000548C
:1005A000656D702028EFBFBD43293A00205A2070A6
:1005B000726F626500205A200020592000205820C8
:1005C000004F66667365747320286D6D293A0020AC
:1005D0004400204900202D204D333031205249471E
:1005E0004854205000204400204900204D33303131
:1005F000204C454654205000504944207365747483
:10060000696E67733A00205A0020590020204D324D
:100610003036205800486F6D65206F6666736574CC
:1006200020286D6D293A00204500205A00205800EE
:1006300020420020540020204D323035205300410C
:100640006476616E636564207661726961626C656F
:10065000733A20533D4D696E20666565647261741E
:100660006520286D6D2F73292C20543D4D696E2017
:1006700074726176656C206665656472617465206C
:10068000286D6D2F73292C20423D6D696E696D7543
:100690006D207365676D656E742074696D652028C3
:1006A0006D73292C20583D6D6178696D756D2058EA
:1006B00059206A65726B20286D6D2F73292C2020BC
:1006C0005A3D6D6178696D756D205A206A65726B4F
:1006D00020286D6D2F73292C2020453D6D61786990
:1006E0006D756D2045206A65726B20286D6D2F73C6
:1006F000290020540020204D323034205300416323
:1007000063656C65726174696F6E3A20533D616315
:1007100063656C65726174696F6E2C20543D7265FF
:10072000747261637420616363656C65726174697E
:100730006F6E00204500205A0020590020204D32C5
:1007400030312058004D6178696D756D20416363CB
:10075000656C65726174696F6E20286D6D2F7332E0
:10076000293A00204500205A0020590020204D320F
:1007700030332058004D6178696D756D2066656570
:1007800064726174657320286D6D2F73293A00209F
:100790004500205A0020590020204D3932205800B1
:1007A00053746570732070657220756E69743A00B9
:1007B00053657474696E67732053746F7265640057
:1007C0006563686F3A005072696E74657220686183
:1007D0006C7465642E206B696C6C28292063616CD5
:1007E0006C656421006F6B00526573656E643A201E
:1007F00000486F74656E64206F6666736574733A43
:10080000005A204F6666736574203A20007A5F6D47
:1008100061783A20007A5F6D696E3A20005A204F65
:100820006666736574005A204F6666736574206F40
:100830006B00486F74656E64206F666673657473D1
:100840003A007A5F6D696E3A2000795F6D61783A9F
:100850002000785F6D61783A2000785F6D696E3AAC
:100860002000205A3A0020593A0020436F756E74D8
:1008700020583A200020453A00205A3A0020593AA0
:1008800000583A004649524D574152455F4E414D3E
:10089000453A4D61726C696E2056313B205370723F
:1008A000696E7465722F6772626C206D6173687512
:1008B0007020666F722067656E36204649524D572C
:1008C0004152455F55524C3A68747470733A2F2FF9
:1008D0006769746875622E636F6D2F4572696B5A14
:1008E000616C6D2F4D61726C696E2F2050524F54A8
:1008F0004F434F4C5F56455253494F4E3A312E307D
:10090000204D414348494E455F545950453A4D6545
:100910006E64656C2045585452554445525F434FB0
:10092000554E543A3220555549443A3030303030E3
:100930003030302D303030302D303030302D3030C0
:1009400030302D3030303030303030303030300AD0
:100950000020423A0020453A00543A0020573A001D
:1009600020453A00543A002042403A0020403A00E4
:10097000202F003A00205400202F0020423A00206F
:100980002F006F6B20543A000A0A005374616E64A2
:1009900061726420446576696174696F6E3A200003
:1009A0000A004D65616E3A20000A002020207A3A44
:1009B000200000793A2000783A20003F53706563A8
:1009C0006966696564206E756D626572206F662068
:1009D0006C65677320696E206D6F76656D656E74EA
:1009E000206E6F7420706C61757361626C652E0A85
:1009F000003F537065636966696564205920706FB4
:100A0000736974696F6E206F7574206F66207261F0
:100A10006E67652E0A003F53706563696669656499
:100A2000205820706F736974696F6E206F75742021
:100A30006F662072616E67652E0A003F53706563B2
:100A400069666965642073616D706C652073697A8D
:100A500065206E6F7420706C61757361626C652EB9
:100A60000A0046756C6C20737570706F727420612B
:100A7000743A20687474703A2F2F33647072696E00
:100A800074626F6172642E636F6D2F666F72756D25
:100A90002E7068700A004D3438205A2D50726F62E3
:100AA00065205265706561746162696C6974792052
:100AB000746573742E20202056657273696F6E20E2
:100AC000322E30300A003F566572626F7365204CDB
:100AD0006576656C206E6F7420706C6175736162F1
:100AE0006C652E0A002569206D696E2C2025692011
:100AF00073656300456E642066696C65206C69737C
:100B00007400426567696E2066696C65206C697364
:100B100074000A00205A3A200020593A2000205838
:100B20003A2000426564000A0020616E7469686FB3
:100B3000726172690A3A200020686F726172690AF4
:100B400020002F3800766F6C746573200020566F7C
:100B50006C74657320636172676F6C20333A200098
:100B600020616E7469686F726172690A3A200020B0
:100B7000686F726172690A20002F3800766F6C749A
:100B80006573200020566F6C746573206361726713
:100B90006F6C20323A200020616E7469686F726158
:100BA00072690A3A200020686F726172690A200037
:100BB0002F3800766F6C746573200020566F6C744C
:100BC000657320636172676F6C20313A20000A0000
:100BD00020647A333A200020647A323A200020647C
:100BE0007A313A20000A00207A633A20005430001B
:100BF000486F6D6520582F59206265666F726520B9
:100C00005A000A00207A3A200020793A2000207801
:100C10003A200042656400486F6D6520582F5920C6
:100C20006265666F7265205A002200556E6B6E6FAA
:100C3000776E20636F6D6D616E643A2022002569C6
:100C400020686F757273202569206D696E757465F3
:100C50007300446F6E65207072696E74696E6720F0
:100C600066696C6500473639005072696E7465724A
:100C70002073746F707065642064756520746F20D4
:100C80006572726F72732E204669782074686520D1
:100C90006572726F7220616E6420757365204D39C4
:100CA000393920746F20726573746172742E202834
:100CB00054656D7065726174757265206973207218
:100CC000657365742E2053657420697420616674A1
:100CD00065722072657374617274696E6729006F42
:100CE0006B004E6F204C696E65204E756D626572AB
:100CF000207769746820636865636B73756D2C2059
:100D00004C617374204C696E653A20004E6F20432D
:100D10006865636B73756D2077697468206C696EA4
:100D200065206E756D6265722C204C617374204C69
:100D3000696E653A2000636865636B73756D206D3D
:100D400069736D617463682C204C617374204C6905
:100D50006E653A20004C696E65204E756D62657255
:100D6000206973206E6F74204C617374204C696E1F
:100D700065204E756D6265722B312C204C61737449
:100D8000204C696E653A20004D313130004D3834C9
:100D900020582059205A204500473238205830200A
:100DA000593000473730005052494E542053455473
:100DB00054494E4753200A00446F6E652073617694
:100DC000696E672066696C652E006F6B004D323965
:100DD0000073746172740030312D312E322E305216
:100DE0004363002200656E717565696E672022009D
:100DF0002200656E717565696E67202200543000AF
:100E0000543000473334004734330047343300470D
:100E10003431004734300054310054300054300035
:100E200054310054310054300054300054310047E4
:100E300034330047343300473431004734300054F2
:100E4000300054300047333400543000473334000E
:100E5000543000473334005430005430004D3234A5
:100E6000004D323320257300FF01FF0000A0400039
:100E700000A0400000004033F397430080934300FC
:100E80000052430000000000809343000000003344
:100E9000F39743008093430000524300000000009A
:100EA000000000000000006563686F3A0045727240
:100EB0006F723A0020636F6C64206578747275738A
:100EC000696F6E2070726576656E74656400656327
:100ED000686F3A007C3C3E5E2B3D3F2F5B5D3B2CB8
:100EE0002A225C00205A3A0020593A0020583A0041
:100EF000656E6473746F7073206869743A2000249F
:100F0000F4D43050C38E20C2A24017828B701112CD
:100F10007A910D816CD90AA861E108C7586607610A
:100F20005143061E4B5D05C145A7041A4111040932
:100F30003D9803713931034036DB0265339102D4A9
:100F4000305402802E1D02632CEE01752AC501B0BB
:100F500028A001102781018F2564012B244B01E07B
:100F6000223401AC211F018D200D01801FFC008463
:100F70001EED00971DDF00B81CD200E61BC6002046
:100F80001BBC00641AB200B219A8000A19A0006ABA
:100F9000189900D117910040178B00B516840031C5
:100FA000167E00B31579003A157300C7146F005808
:100FB000146A00EE1366008813630025135E00C7F1
:100FC000125B006C12570015125400C111510070D1
:100FD000114F0021114B00D61049008D10470046DB
:100FE00010440002104200C00F4000800F3E00423B
:100FF0000F3C00060F3B00CB0E3800930E37005C11
:101000000E3500270E3400F30D3200C10D31009073
:101010000D3000600D2E00320D2D00050D2C00D975
:101020000C2B00AE0C2900850C29005C0C27003528
:101030000C27000E0C2600E80B2400C40B2400A093
:101040000B23007D0B23005A0B2100390B210018C4
:101050000B2000F80A1F00D90A1E00BB0A1E009DC3
:101060000A1D00800A1D00630A1C00470A1B002C91
:101070000A1B00110A1A00F7091A00DD091900C439
:10108000091900AB091900920917007B09180063C0
:101090000917004C09160036091600200916000A27
:1010A000091500F5081500E0081400CC081400B874
:1010B000081400A4081400900813007D0812006BA7
:1010C00008130058081200460812003408110023C3
:1010D0000811001208110001081100F0071000E0CB
:1010E000071000D0071000C0071000B0070F00A1C4
:1010F00007100091070E0083070F0074070F0065AB
:10110000070E0057070E0049070E003B070D002E83
:10111000070E0020070D0013070D0006070D00F94C
:10112000060C00ED060D00E0060C00D4060C00C80D
:10113000060C00BC060C00B0060C00A4060B0099BF
:10114000060C008D060B0082060B0077060B006C68
:10115000060B0061060A0057060B004C060A004207
:10116000060A0038060A002E060A0024060A001A9B
:10117000060A001006090007060A00FD050900F42A
:10118000050900EB050900E2050900D9050900D0B1
:10119000050900C7050900BE050900B5050800AD31
:1011A000050800A50509009C050800940508008CA9
:1011B000050800840508007C050800740508006C1B
:1011C000050700650508005D050700560508004E87
:1011D00005070047050700400508003805070031EE
:1011E0000507002A050700230507001C0506001651
:1011F0000507000F0507000805060002050700FBAC
:10120000040600F5040700EE040600E8040600E208
:10121000040700DB040600D5040600CF040600C95D
:10122000040600C3040600BD040600B7040600B1AE
:10123000040500AC040600A6040600A00405009BFB
:1012400004060095040500900406008A0405008544
:10125000040500800406007A04050075040500708A
:101260000405006B04050066040500610405005CCC
:1012700004050057040500520405004D040500480C
:10128000040500430405003E0404003A040500354B
:10129000040500300404002C040500270404002386
:1012A0000405001E0404001A0404001604050011BD
:1012B0000404000D040400090405000404040000F3
:1012C000040400FC030400F8030400F4030400F029
:1012D000030400EC030400E8030400E4030400E05A
:1012E000030400DC030400D8030400D4030400D08A
:1012F000030400CC030400C8030300C50303002457
:10130000F404D9201BC40C5C0E9804C4095F026568
:10131000077101F405F900FB04B30048048700C11C
:101320000369005803550003034500BE023A0084D8
:1013300002310053022A002902250004022000E4A1
:10134000011C00C8011900AF0117009801140084A6
:10135000011300710110006101100051010E0043E2
:10136000010D0036010B002B010B0020010B0015B5
:101370000109000C01090003010800FB000800F34B
:10138000000800EB000700E4000600DE000600D8BD
:10139000000600D2000600CC000500C7000500C210
:1013A000000500BD000400B9000400B5000400B150
:1013B000000400AD000400A9000400A5000300A281
:1013C0000003009F0004009B0003009800030095A9
:1013D00000020093000300900003008D0002008BC8
:1013E00000030088000200860002008400030081E0
:1013F0000002007F0002007D0002007B00020079F5
:101400000002007700010076000200740002007202
:10141000000100710002006F0002006D0001006C0D
:101420000002006A00010069000200670001006616
:10143000000100650001006400020062000100611B
:10144000000100600001005F0002005D0001005C1F
:101450000001005B0001005A000100590001005822
:101460000001005700010056000100550001005422
:101470000001005300000053000100520001005120
:10148000000100500001004F0001004E0000004E1E
:101490000001004D0001004C0001004B0000004B1A
:1014A0000001004A00010049000100480000004816
:1014B0000001004700010046000000460001004511
:1014C000000000450001004400010043000000430B
:1014D0000001004200000042000100410000004104
:1014E000000100400001003F0000003F0001003EFD
:1014F0000000003E0001003D0000003D0001003CF6
:101500000000003C0000003C0001003B0000003BEC
:101510000001003A0000003A0001003900000039E3
:1015200000010038000000380000003800010037DA
:1015300000000037000100360000003600000036D1
:1015400000010035000000350000003500010034C6
:1015500000000034000000340001003300000033BC
:1015600000000033000100320000003200000032B1
:1015700000010031000000310000003100010030A6
:1015800000000030000000300001002F0000002F9C
:101590000000002F0000002F0001002E0000002E90
:1015A0000000002E0001002D0000002D0000002D85
:1015B0000000002D0001002C0000002C0000002C79
:1015C0000000002C0001002B0000002B0000002B6D
:1015D0000000002B0001002A0000002A0000002A61
:1015E0000000002A00010029000000290000002955
:1015F0000000002900000029000100280000002848
:10160000000000280000002800000028000100273A
:10161000000000270000002700000027000000272E
:101620000001002600000026000000260000002621
:101630000000002600010025000000250000002514
:101640000000002500000025000000250001002406
:1016500000000024000000240000002400000024FA
:1016600000010023000000230000002300000023ED
:1016700000000023000000230000002300010022DE
:1016800000000022000000220000002200000022D2
:1016900000000022000100210000002100000021C4
:1016A00000000021000000210000002100000021B6
:1016B00000010020000000200000002000000020A9
:1016C000000000200000002000000020000000209A
:1016D0000001001F0000001F0000001F0000001F8D
:1016E0000000001F0000001F0000001F0001001E7E
:1016F0000000001E0000001E0000001E000000652B
:1017000063686F3A00504944204175746F74756E78
:10171000652066696E6973686564210050494420DC
:101720004175746F74756E65206661696C656421BE
:101730002074696D656F75740020403A006F6B20EE
:10174000543A006F6B20423A00504944204175746E
:101750006F74756E65206661696C656421205465DF
:101760006D706572617475726520746F6F20686941
:10177000676800204B643A2000204B693A20002023
:101780004B703A200020436C6173736963205049A9
:101790004420002054753A2000204B753A20002048
:1017A0006D61783A2000206D696E3A200020643A1D
:1017B000200020626961733A20005049442041753D
:1017C000746F74756E652066696E697368656421EF
:1017D0002050757420746865206C617374204B70A0
:1017E0002C204B6920616E64204B6420636F6E7304
:1017F00074616E74732066726F6D2061626F7665BE
:1018000020696E746F20436F6E66696775726174CC
:10181000696F6E2E6800504944204175746F74756D
:101820006E65206661696C6564212074696D656F01
:1018300075740020403A006F6B20543A006F6B20A3
:10184000423A00504944204175746F74756E6520AA
:101850006661696C6564212054656D7065726174A0
:1018600075726520746F6F206869676800204B642B
:101870003A2000204B693A2000204B703A2000208B
:10188000436C617373696320504944200020547590
:101890003A2000204B753A2000206D61783A2000F4
:1018A000206D696E3A200020643A20002062696150
:1018B000733A200070012C0190012701B001220130
:1018C000C0011D01F00118011002130130020E01C8
:1018D0006002090190020401C002FF000003FA0047
:1018E0004003F5008003F000D003EB002004E60085
:1018F0007004E100E004DC004005D700C005D20020
:101900004006CD00D006C8008007C3003008BE00E6
:10191000F008B900C009B400B00AAF00B00BAA00CB
:10192000D00CA500000EA000500F9B00C010960028
:101930005012910000148C00C0158700B01782006F
:10194000B0197D00D01B7800001E730040206E008F
:1019500090226900F024640040275F0090295A001B
:10196000E02B5500102E500020304B001032460066
:10197000E033410090353C001037370070383200BA
:10198000A0392D00B03A2800A03B2300603C1E0087
:10199000103D1900903D1400103E0F00703E0A00EB
:1019A000C03E0500003F000000000A0B02090C0DBC
:1019B0000E08070304010000000000000000000002
:1019C0000000000000000000000000000000000017
:1019D00000000000121110000000000000000000D4
:1019E00000000000000000000000000000000102F4
:1019F0001020200808102040102040800201020121
:101A000008040201010204081020408080402010D8
:101A10000804020180040201804020100804020131
:101A20000804020101020408102040800102040899
:101A30001020408005050505070508080808020272
:101A400002020A0A08080404040401010101010158
:101A500001010303030303030303040707070C0C3B
:101A60000C0C0C0C0C0C0202020206060606060602
:101A700006060B0B0B0B0B0B0B0B000020002300BF
:101A8000260029002C002F00320000010000030175
:101A90000601090100002200250028002B002E006D
:101AA0003100340002010000050108010B010000B3
:101AB0002100240027002A002D00300033000101FE
:101AC0000000040107010A014E414E494E49545994
:101AD000494E46CDCCCC3D0AD7233C17B7D13877F9
:101AE000CC2B329595E6241FB14F0A00002041000F
:101AF00000C84200401C4620BCBE4CCA1B0E5AAE59
:101B0000C59D746364696E6F70737578585B00006F
:101B1000560E012EDF001F01D700E10011241FBE69
:101B2000CFEFD1E2DEBFCDBF00E00CBF1CE0A0E0F4
:101B3000B2E0E6E4F4E003E00BBF02C007900D92D0
:101B4000A23AB107D9F72EE1A2EABCE001C01D928A
:101B5000AC33B207E1F71BE1CAE1DBE100E006C00C
:101B600022970109FE010BBF0F945F76C031D107A8
:101B700080E00807A9F70F94A16D0D9411820C94D1
:101B800000008091D10C90E02091D20C821B910931
:101B900008952091D20C8091D10C281750F4E22F97
:101BA000F0E0ED52F34F808190E02F5F2093D20C54
:101BB00008958FEF9FEF0895E091D20C8091D10CA2
:101BC000E81730F4F0E0ED52F34F808190E0089593
:101BD0008FEF9FEF08950895CF92DF92EF92FF92DB
:101BE0000F931F93CF93DF937C01CB018A01209148
:101BF000AE0C222389F0EB016B01C40ED51ECC156F
:101C0000DD0561F06991D701ED91FC910190F081C2
:101C1000E02DC7011995F3CF642F4BD0C801DF9198
:101C2000CF911F910F91FF90EF90DF90CF9008958B
:101C3000CF93DF931F92CDB7DEB769832091AE0CAF
:101C40002223D1F02091AF0C203240F021E030E08F
:101C5000FC013383228380E090E014C08091B00CBB
:101C6000E82FF0E0EF54F34F998190838F5F8093DA
:101C7000B00C8093AF0C04C061E0CE01019619D086
:101C800081E090E00F90DF91CF910895FC011382E5
:101C9000128248EE53E060E070E04483558366832F
:101CA00077838EE393E091838083089582EA9CE0BA
:101CB000EDCF613298F42091600D243089F4609367
:101CC000150DFC0187E19DE0DC012A2F281B26175A
:101CD00018F421912D93F9CF80E0089581E00895C3
:101CE00082E0089585ED8093BC008091BC0084FD66
:101CF000FCCF1092600D089585EC8093BC0010928B
:101D0000600D08951F920F920FB60F9211240BB61B
:101D10000F922F933F934F935F936F937F938F9384
:101D20009F93AF93BF93EF93FF938091B900887F08
:101D3000803609F49DC070F5883209F45CC090F4D7
:101D4000803109F455C038F4882309F4F3C0883091
:101D500009F44EC0F2C0883109F44DC0803209F454
:101D60005EC0EBC0803409F469C050F4803309F4DC
:101D700056C0883309F0E1C08093F30CBDDFDDC0AD
:101D8000803509F44FC0883509F45DC0883409F006
:101D9000D4C0D2C0883909F4C3C0A8F4883709F484
:101DA00067C038F4883609F463C0803709F460C02E
:101DB000C4C0883809F4B4C0803909F45FC08038E1
:101DC00009F0BBC05BC0803B09F482C038F4803AA4
:101DD00009F466C0883A09F47BC0AFC0803C09F4BE
:101DE000A3C0883C09F4A0C0883B09F486C0A5C004
:101DF00080915F0D10C09091380D8091370D98172C
:101E000070F5E091380D81E08E0F8093380DF0E091
:101E1000E75CF24F80818093BB0085EC82C08093A9
:101E2000F30C8AC0E091380D81E08E0F8093380D5D
:101E30008091BB00F0E0E75CF24F80839091380D19
:101E40008091370D6AC0E091380D81E08E0F80934C
:101E5000380D8091BB00F0E0E75CF24F8083809109
:101E60005E0D811169C081E080935D0D84EA5DC0E3
:101E700083E08093600D1092F40CCFCF8091F40C2E
:101E8000803208F04DC0E091F40C81E08E0F809319
:101E9000F40C8091BB00F0E0EB50F34F8083BDCF9A
:101EA0002BDF8091F40C803230F4E091F40CF0E000
:101EB000EB50F34F10826091F40C70E0E091590DFB
:101EC000F0915A0D85EF9CE019951092F40C35C0F5
:101ED00084E08093600D1092160D1092150DE09124
:101EE0005B0DF0915C0D19958091150D811105C068
:101EF00081E08093150D1092170DE091160D81E091
:101F00008E0F8093160DF0E0E95EF24F8081809392
:101F1000BB009091160D8091150D981708F47DCF98
:101F200085E88093BC0009C085EC8093BC001092CA
:101F3000600D03C01092F30CD5DEFF91EF91BF91BD
:101F4000AF919F918F917F916F915F914F913F9151
:101F50002F910F900BBE0F900FBE0F901F901895F2
:101F6000DC01ED91FC910190F081E02D1994FC01D0
:101F7000148217821382128287E29CE0918380830D
:101F8000089527E23CE0FC0131832083278122234E
:101F900019F004960D940D3F0895CF92DF92EF92C1
:101FA000FF920F931F93CF93DF93EC01895A9F4FBA
:101FB000DEDFCE0188589F4FDADF7E0127E9E20E8F
:101FC000F11C87016E0133E3C31A3EEFD30AC80147
:101FD000CEDF015E1F4F0C151D05C9F7FE01E15351
:101FE000FE4F89E1818314823596178ACE018E5087
:101FF0009E4FBDDFFE01ED55FD4F10821182128212
:102000001382389610821182128213821A821B82E6
:102010001C82188219826E0189E5C81A8DEFD80AD0
:10202000F6011082118212821382F801118210824D
:10203000FE01EF5EFD4F108286E391E0F7019C0107
:10204000119221503040E1F7FE01E155FD4F81E052
:102050008083CB5ADF4F198218820F9464686857C7
:102060007C4E8F4F9F4FF6016083718382839383F1
:10207000DF91CF911F910F91FF90EF90DF90CF9064
:102080000895FC0120E03EE2DB014C91403241F03A
:10209000283011F430833196DB014C914083319626
:1020A0002F5F6F5F7F4F2B3079F7108208952F924B
:1020B0003F924F925F926F927F928F929F92AF92D8
:1020C000BF92CF92DF92EF92FF920F931F93CF9325
:1020D000DF93CDB7DEB7C858D1090FB6F894DEBF8D
:1020E0000FBECDBF8C016B017A01CA57DF4F18823A
:1020F000C658D04084E0E80EF11C180192E1290E88
:10210000311CF801EC5AFF4FC957DF4FF983E883C0
:10211000C758D0405801F0E5AF1AFDEFBF0A3801AB
:102120008EE4681A8DEF780A80E4482E512C4C0E0C
:102130005D1E94E0490E511CA101BE016F5F7F4FEF
:10214000C7010F94773D18160CF009C12C85322F6A
:102150003871303109F091C0F5018081918101978A
:10216000029708F48AC0BE016F5F7F4FCE01875887
:102170009F4F87DFA0961FAEA097F6018081811147
:1021800007C06AE473E0CE01815A9F4F0F94897BA8
:10219000B601CE01815A9F4F0F94897BBE016758CB
:1021A0007F4FCE01815A9F4F0F94897B6AE473E081
:1021B000CE01815A9F4F0F94897BCE01805C9F4F47
:1021C000D6DE21E0AE0147585F4FB701C2010F9440
:1021D000044181112EC0F50180819181892B49F53F
:1021E000E4E7F4E064914F01662361F0772767FD2F
:1021F00070958CEF9CE1B4DEFFEF8F1A9F0AF4011B
:102200006491F2CF6CE473E08CEF9CE10F94EB6D82
:102210006AE070E08CEF9CE1A3DEBE0167587F4F5F
:102220008CEF9CE10F94EB6D6AE070E08CEF9CE129
:1022300097DE8BE1FE01EC5BFF4FDE01959601908E
:102240000D928A95E1F724968EAD9FAD24979CA3BD
:102250008BA387E29CE09AA389A3AE014F5D5F4FF9
:10226000BE01615A7F4FC80122DFCE01819689DE0F
:10227000CE01805C9F4F85DE5FCF8981882309F482
:102280006EC0853E09F458CF8E3209F455CF8F3594
:1022900009F452CFF8018289882331F08E3209F493
:1022A0004BCF8F3509F448CF23FD46CF81E0303145
:1022B00009F080E0C957DF4FE881F981C758D04065
:1022C0008083811108C08985873409F035CF8A85DC
:1022D0008E3709F431CF4801F5E08F0E911CBE0115
:1022E0006F5F7F4FC401CDDEF50180819181009742
:1022F00081F4B6018CEF9CE10F94EB6DB4018CEF8F
:102300009CE10F94EB6D6AE070E08CEF9CE128DEBD
:1023100013CF8130910539F4F301808191810196C9
:102320009183808309CF029709F006CFCA57DF4F08
:10233000F881C658D0402F2F30E0F3018081918181
:102340002817390761F0CA57DF4FF881C658D040C7
:10235000FF5FCA57DF4FF883C658D040EDCEC8574D
:10236000DF4F0FB6F894DEBF0FBECDBFDF91CF9128
:102370001F910F91FF90EF90DF90CF90BF90AF90A3
:102380009F908F907F906F905F904F903F902F9095
:1023900008950F931F93CF93DF93CDB7DEB76F9759
:1023A0000FB6F894DEBF0FBECDBF8C01FC01E05527
:1023B000FD4F1182108240E050E0BA01855A9F4FD4
:1023C0000F942A3EC801895A9F4F2BE1FC01349695
:1023D000DE01159601900D922A95E1F7FC018281AC
:1023E00093819C838B8387E29CE09A838983AE01EF
:1023F0004F5F5F4F64E97CE0C80159DECE01019672
:10240000C0DD6F960FB6F894DEBF0FBECDBFDF9173
:10241000CF911F910F9108952BE1FB013496DC01C0
:10242000149601900D922A95E1F7FB0122813381E8
:10243000FC01338322830895EF92FF920F931F9341
:10244000CF93DF93EC011C82FC01E25AFF4F8081A5
:10245000882329F0CE01855A9F4F0F940D3F7E01AE
:1024600081E3E81A8EEFF80A45E360E0C7010F94B4
:102470008E3981113AC0E4E7F4E064918F0166235C
:1024800059F0772767FD70958CEF9CE169DD0F5F50
:102490001F4FF8016491F3CFE7E6F4E064918F01F8
:1024A000662359F0772767FD70958CEF9CE158DD26
:1024B0000F5F1F4FF8016491F3CF6AE070E08CEF7B
:1024C0009CE14EDD8E01095A1F4FB801CE0188589C
:1024D0009F4FA2DFCA58DF4F19830883DF91CF9146
:1024E0001F910F91FF90EF9008958E010C521E4F97
:1024F00041E0B701C8010F94F74681112AC040E0BE
:10250000B701C8010F94F746811123C0EAE7F4E050
:1025100064918F01662359F0772767FD70958CEFE2
:102520009CE11EDD0F5F1F4FF8016491F3CFE4E5DE
:10253000F4E064918F01662309F4BFCF772767FD2C
:1025400070958CEF9CE10CDD0F5F1F4FF8016491DB
:10255000F2CFB801CE01855A9F4F0F941B3C8111D9
:1025600023C0EAE7F4E064918F01662359F07727EE
:1025700067FD70958CEF9CE1F3DC0F5F1F4FF80156
:102580006491F3CFE4E4F4E064918F01662309F4ED
:1025900094CF772767FD70958CEF9CE1E1DC0F5FAE
:1025A0001F4FF8016491F2CF81E08C83E4E7F4E0FF
:1025B00064918F01662359F0772767FD70958CEF42
:1025C0009CE1CEDC0F5F1F4FF8016491F3CFE9E38C
:1025D000F4E064918F01662309F46FCF772767FDDC
:1025E00070958CEF9CE1BCDC0F5F1F4FF80164918C
:1025F000F2CFFC01128214820895CF93DF93EC0195
:102600008C818823B9F06FE573E08CEF9CE10F9427
:10261000EB6D40912D1050912E1060912F10709104
:10262000301022E030E08CEF9CE10F94D56F81E018
:102630008A831B82DF91CF910895FC0182818823D8
:1026400019F0128281E083830895AF92BF92CF92F6
:10265000DF92EF92FF920F931F93CF93DF931F921E
:10266000CDB7DEB78C018FE2FB0181935F01D12CE6
:1026700041E07801F3E3EF1AFEEFFF0A9FE1C92E74
:102680002D2D30E0F7018081918128173907D8F48A
:10269000C29EC001C39E900D112485569F4FB50167
:1026A000800F911F49830F94C23BC50149815C0192
:1026B0000196F5012081222321F04D3810F44F5F5F
:1026C000F6CFD394DDCF47FD11C0B501C8018A50C4
:1026D0009E4F0F90DF91CF911F910F91FF90EF9040
:1026E000DF90CF90BF90AF900D94C23BF501108268
:1026F0000F90DF91CF911F910F91FF90EF90DF909E
:10270000CF90BF90AF9008953F924F925F926F929B
:102710007F928F929F92AF92BF92CF92DF92EF9271
:10272000FF920F931F93CF93DF93CDB7DEB7AC9794
:102730000FB6F894DEBF0FBECDBF8C016B01342EF7
:10274000FC018481882309F4D0C2E750FE4F8081C8
:10275000882309F407C12111D1C07801FFEEEF1AD7
:10276000FDEFFF0AF7018081882309F432C0EAE710
:10277000F4E064918F01662359F0772767FD709527
:102780008CEF9CE1EDDB0F5F1F4FF8016491F3CFFD
:10279000E6EFF3E064918F01662359F0772767FD38
:1027A00070958CEF9CE1DCDB0F5F1F4FF8016491AB
:1027B000F3CF4AE050E061E070E08CEF9CE10F94D1
:1027C0009A6E6AE070E08CEF9CE1CADB0E94BF92D7
:1027D0008CC2E4E7F4E064915F01662361F077273F
:1027E00067FD70958CEF9CE1BBDBFFEFAF1ABF0A72
:1027F000F5016491F2CFEDEDF3E064915F016623A2
:1028000061F0772767FD70958CEF9CE1A9DBFFEF06
:10281000AF1ABF0AF5016491F2CFB6018CEF9CE1CB
:102820000F94EB6DE2EDF3E064915F01662361F0DC
:10283000772767FD70958CEF9CE192DBFFEFAF1A75
:10284000BF0AF5016491F2CFF70180812DE8B22E25
:10285000B801B89E600D711D11246A5E7D4FC801DC
:10286000F4DEF7018081B801B89E600D711D11245E
:102870006A5E7D4F8CEF9CE10F94EB6DECECF3E026
:1028800064915F01662361F0772767FD70958CEF97
:102890009CE166DBFFEFAF1ABF0AF5016491F2CF4E
:1028A0005801F5E5AF1AFDEFBF0AF50140815181EE
:1028B000628173812AE030E08CEF9CE10F94C76E57
:1028C0006AE070E08CEF9CE14BDBF7012081F801BE
:1028D00084E0289FE00DF11D1124AF014E5E5D4F95
:1028E000F50180819181A281B381FA018083918376
:1028F000A283B3832F5FF70120832EC0E4E7F4E0C7
:1029000064917F01662361F0772767FD70958CEFF6
:102910009CE126DBFFEFEF1AFF0AF7016491F2CF8B
:10292000EBEBF3E064917F01662361F0772767FDAD
:1029300070958CEF9CE114DBFFEFEF1AFF0AF701B3
:102940006491F2CFB6018CEF9CE10F94EB6D6AE0DD
:1029500070E08CEF9CE104DBC8018A509E4F0F941D
:102960000D3F32C0F801EF5EFD4F1082E4E7F4E066
:1029700064917F01662361F0772767FD70958CEF86
:102980009CE1EEDAFFEFEF1AFF0AF7016491F2CF54
:10299000EAEAF3E064917F01662361F0772767FD3F
:1029A00070958CEF9CE1DCDAFFEFEF1AFF0AF7017C
:1029B0006491F2CFB6018CEF9CE10F94EB6D6AE06D
:1029C00070E08CEF9CE1CCDAF8011282CE01019626
:1029D0005C01CDDA280196E7490E511CC801895ADD
:1029E0009F4FF20191838083F60180818F3209F03D
:1029F0007BC06FE270E0C6010F94947B01967C016E
:102A0000E114F10409F476C06FE270E0C7010F949D
:102A1000947B4C01009709F46EC0E816F90608F0A3
:102A20006AC03C016E187F08A301B701CE018096F1
:102A30000F94BD7BE0E2F0E0EC0FFD1FE60DF71D0B
:102A40001082BE01605E7F4F8CEF9CE10F94EB6DB6
:102A50006AE070E08CEF9CE183DAF20160817181C1
:102A60006115710519F06C5F7F4F02C060E070E086
:102A700021E0AE01405E5F4FCE0105960F94044108
:102A800081112AC0E6E9F3E064918F01662359F0D1
:102A9000772767FD70958CEF9CE162DA0F5F1F4F1F
:102AA000F8016491F3CFBE01605E7F4F8CEF9CE133
:102AB0000F94EB6DE4E9F3E064918F01662309F470
:102AC0000DC1772767FD70958CEF9CE149DA0F5FA8
:102AD0001F4FF8016491F2CFF201B182A08274011C
:102AE000FFEFEF1AFF0A8CCFC80188589F4FF20101
:102AF000918380837601C8018A509E4F4C01F20178
:102B000060817181332009F49AC06115710519F053
:102B10006C5F7F4F02C060E070E021E0A701C4015C
:102B20000F940441882309F462C0F40181899289D9
:102B3000A389B489F801ED55FD4F80839183A28369
:102B4000B383E6E8F3E064914F01C8018D559D4FD2
:102B50006C01662361F0772767FD70958CEF9CE12F
:102B6000FFD99FEF891A990AF4016491F2CFB70156
:102B70008CEF9CE10F94EB6DEEE7F3E064917F0145
:102B8000662361F0772767FD70958CEF9CE1E8D9AB
:102B9000FFEFEF1AFF0AF7016491F2CFF6014081CF
:102BA0005181628173812AE030E08CEF9CE10F94C7
:102BB000C76E6AE070E08CEF9CE1D2D9F801E55570
:102BC000FD4F1082118212821382E0E7F3E06491DC
:102BD0008F01662309F482C0772767FD70958CEF1B
:102BE0009CE1BED90F5F1F4FF8016491F2CFECE575
:102BF000F3E064918F01662359F0772767FD7095A4
:102C00008CEF9CE1ADD90F5F1F4FF8016491F3CFBA
:102C1000B7018CEF9CE10F94EB6DEAE5F3E0649172
:102C20008F01662309F45AC0772767FD70958CEFF2
:102C30009CE196D90F5F1F4FF8016491F2CF6115A7
:102C4000710519F06C5F7F4F02C060E070E026E50F
:102C5000A701C4010F940441811127C0E6E4F3E009
:102C600064918F01662359F0772767FD70958CEF8B
:102C70009CE176D90F5F1F4FF8016491F3CFB70144
:102C80008CEF9CE10F94EB6DE4E4F3E064918F0131
:102C9000662321F1772767FD70958CEF9CE160D961
:102CA0000F5F1F4FF8016491F3CF81E0F80180833B
:102CB000E2E3F3E064918F01662359F0772767FD23
:102CC00070958CEF9CE14CD90F5F1F4FF801649118
:102CD000F3CFB6018CEF9CE10F94EB6D6AE070E0EE
:102CE0008CEF9CE13DD9C5014CD9AC960FB6F89458
:102CF000DEBF0FBECDBFDF91CF911F910F91FF902F
:102D0000EF90DF90CF90BF90AF909F908F907F908B
:102D10006F905F904F903F90089521E0FC012183D8
:102D200040E0F2CC4F925F926F927F928F929F928F
:102D3000AF92BF92CF92DF92EF92FF920F931F93C9
:102D4000CF93DF93CDB7DEB7AC970FB6F894DEBF65
:102D50000FBECDBF7C015B01FC018481882309F497
:102D6000F9C0C7018A509E4F0F940D3FF7011282A0
:102D7000CE0101966C01FBD8270196E7490E511C44
:102D8000C701895A9F4FF20191838083F5018081A9
:102D90008F3209F077C06FE270E0C5010F94947B29
:102DA0008C010F5F1F4F09F473C06FE270E0C80120
:102DB0000F94947B4C01009709F46BC00817190716
:102DC00008F067C03C01601A710AA301B801CE0186
:102DD00080960F94BD7BE0E2F0E0EC0FFD1FE60D66
:102DE000F71D1082BE01605E7F4F8CEF9CE10F9457
:102DF000EB6D6AE070E08CEF9CE1B2D8F20160818B
:102E000071816115710519F06C5F7F4F02C060E040
:102E100070E021E0AE01405E5F4FCE0105960F9459
:102E2000044181112AC0EEE1F3E064918F01662331
:102E300059F0772767FD70958CEF9CE191D80F5F73
:102E40001F4FF8016491F3CFBE01605E7F4F8CEF9E
:102E50009CE10F94EB6DECE1F3E064918F0166234C
:102E600009F471C0772767FD70958CEF9CE178D8E5
:102E70000F5F1F4FF8016491F2CFF201D182C0823F
:102E800084018FCFC70188589F4FF20191838083BF
:102E90008501F20180819181009711F0049602C0B2
:102EA00080E090E0B8010F94DA41882321F1EEE050
:102EB000F3E064915F01662361F0772767FD709509
:102EC0008CEF9CE14DD8FFEFAF1ABF0AF50164917A
:102ED000F2CFB8018CEF9CE10F94EB6D6AE070E0EB
:102EE0008CEF9CE13DD8F701E555FD4F1082118232
:102EF000128213822DC0E6EFF2E064917F01662317
:102F000061F0772767FD70958CEF9CE129D8FFEF82
:102F1000EF1AFF0AF7016491F2CFB8018CEF9CE140
:102F20000F94EB6DE4EFF2E064918F01662359F0AA
:102F3000772767FD70958CEF9CE112D80F5F1F4FCC
:102F4000F8016491F3CF6AE070E08CEF9CE108D85F
:102F5000C60117D8AC960FB6F894DEBF0FBECDBF32
:102F6000DF91CF911F910F91FF90EF90DF90CF9065
:102F7000BF90AF909F908F907F906F905F904F9099
:102F800008950F931F93CF93DF93EC018C818823D7
:102F900009F43EC0E2EEF2E064918F01662361F035
:102FA000772767FD70958CEF9CE10E94B00F0F5F53
:102FB0001F4FF8016491F2CFFE01E555FD4F4081AE
:102FC0005181628173812AE030E08CEF9CE10F94A3
:102FD000C76EE0EEF2E064918F01662361F077271F
:102FE00067FD70958CEF9CE10E94B00F0F5F1F4F43
:102FF000F8016491F2CFCD55DD4F488159816A8146
:103000007B812AE030E08CEF9CE10F94C76E11C009
:10301000E0EDF2E06491EF01662359F0772767FD58
:1030200070958CEF9CE10E94B00F2196FE01649197
:10303000F3CF6AE070E08CEF9CE1DF91CF911F91BC
:103040000F910C94B00FAF92BF92CF92DF92EF929C
:10305000FF920F931F93CF93DF935C01EB01FB0172
:1030600001900020E9F78F0101501109061B170B91
:103070006C01FAE0CF1AFEEFDF0AF60110826EE46F
:1030800070E0CE010F94947B7C01009729F4F80145
:103090003197EC0FFD1F0DC060E270E00F94947B40
:1030A000EC0121966AE270E0C7010F94947BFC0169
:1030B00031978DE081838AE082831382BE01C5014E
:1030C0008E509E4F0F94A043F6018081882391F18A
:1030D000EAE7F4E06491EF01662359F0772767FD92
:1030E00070958CEF9CE10E94B00F2196FE016491D7
:1030F000F3CFEAEBF2E06491EF01662359F0772712
:1031000067FD70958CEF9CE10E94B00F2196FE0147
:103110006491F3CF6AE070E08CEF9CE1DF91CF9196
:103120001F910F91FF90EF90DF90CF90BF90AF90E5
:103130000C94B00FDF91CF911F910F91FF90EF9002
:10314000DF90CF90BF90AF9008952F923F924F9213
:103150005F926F927F928F929F92AF92BF92CF9227
:10316000DF92EF92FF920F931F93CF93DF93CDB730
:10317000DEB7CC55D1090FB6F894DEBF0FBECDBF78
:103180004C018C0101551D4F662339F0F801108266
:10319000F401848181111DC015C0F801808188234C
:1031A00009F4AFC0F401E955FD4FC080D180E28041
:1031B000F3800F946468C616D706E806F90608F48B
:1031C000A0C0E4CFC40138D9F4018481882309F474
:1031D00098C07401F5E5EF0EF11CF70181818F9322
:1031E00080818F9381EB92E09F938F938E01015C9E
:1031F0001F4F1F930F930F94FA7B0F900F900F9018
:103200000F900F900F90B12CF80101900020E9F77A
:103210003197E01BF10BBE1684F46801CB0CD11C76
:10322000B7FCDA94F6018081992787FD90950F9479
:10323000327BF6018083B394E7CFFBE58F0E911CC0
:1032400040E050E0BA01C4010F942A3E512CCE0157
:1032500001966C013AEA632E32E0732E5E0191E230
:10326000A90EB11C40E050E0B601C4010F94773DB7
:103270001816DCF5412CF60101900020E9F7319792
:10328000EC19FD094E1674F41601240C311C47FC90
:103290003A94F101808190E00F94327BF1018083B8
:1032A0004394E9CF8A858E37E9F245E050E0B801D2
:1032B000C6010F94AF7B892BA9F61F930F937F92C2
:1032C0006F92BF92AF920F94FA7BC5010E943B337D
:1032D00086EA92E00E94B7330F900F900F900F9004
:1032E0000F900F9055245394BDCF511004C08FEF11
:1032F0009FEFF70104C0F7018081918101969183CE
:103300008083C45ADF4F0FB6F894DEBF0FBECDBF27
:10331000DF91CF911F910F91FF90EF90DF90CF90B1
:10332000BF90AF909F908F907F906F905F904F90E5
:103330003F902F9008950F931F93CF93DF93EC014D
:103340008C010A501E4FC8010F94C33EC8010F9450
:103350000D3F18821982DF91CF911F910F9108952F
:10336000EF92FF920F931F93CF93DF93CDB7DEB70A
:103370006F970FB6F894DEBF0FBECDBF8C017C01F6
:1033800086E7E80EF11CC80188589F4FF70191832A
:103390008083E65CFD4F22E030E03183208332966B
:1033A00070E07183608340E050E0BA0104960F94AE
:1033B0002A3EF701808191812BE1FC013496DE01E8
:1033C000159601900D922A95E1F7FC018281938177
:1033D0009C838B8387E29CE09A838983AE014F5F55
:1033E0005F4F64E97CE0C8010E945710CE0101964E
:1033F0000E94C10F6F960FB6F894DEBF0FBECDBF0F
:10340000DF91CF911F910F91FF90EF900895CF9290
:10341000DF92EF92FF920F931F93CF93DF93CDB77D
:10342000DEB76F970FB6F894DEBF0FBECDBF8C012D
:103430006C0126E7C20ED11C88589F4FF60191837C
:103440008083E65CFD4F21E030E03183208378010A
:10345000FEE4EF1AFDEFFF0AF7011182108240E04F
:1034600050E0BA0104960F942A3EF60180819181C2
:103470002BE1FC013496DE01159601900D922A9500
:10348000E1F7FC01828193819C838B8387E29CE03E
:103490009A838983AE014F5F5F4F64E97CE0C80186
:1034A0000E945710CE0101960E94C10FF701808142
:1034B00091816F960FB6F894DEBF0FBECDBFDF913E
:1034C000CF911F910F91FF90EF90DF90CF900895D3
:1034D000AF92BF92CF92DF92EF92FF920F931F9322
:1034E000CF93DF93CDB7DEB76F970FB6F894DEBFFB
:1034F0000FBECDBF8C017B01CE0101960E94B70F9C
:10350000F801E158FF4F80816801811104C027E56F
:10351000C20ED11C03C088E7C80ED11C21E0A70150
:10352000B6016C5F7F4FCE0105960F940441811167
:1035300036C0E4E7F4E064918F01662361F07727F9
:1035400067FD70958CEF9CE10E94B00F0F5F1F4FDD
:10355000F8016491F2CFE0E9F2E064918F01662313
:1035600061F0772767FD70958CEF9CE10E94B00FAA
:103570000F5F1F4FF8016491F2CFB7018CEF9CE110
:103580000F94EB6D6AE070E08CEF9CE10E94B00F4D
:10359000CE0101960E94C10F8FEF9FEF3AC0F80154
:1035A000E353FE4F808191818A30910530F59C0173
:1035B0002F5F3F4F318320832FE1289F7001299F88
:1035C000F00C1124F7E9EF0EF11CE00EF11E5C0186
:1035D000B701C7014F960E940C1221E0A21AB10850
:1035E0008FE1E81AF108EFEFAE16BE0689F7B601D3
:1035F000C80189569F4F0E940C12BE016F5F7F4F1A
:10360000C80188589F4F0E940C12CE0101960E945B
:10361000C10F6F960FB6F894DEBF0FBECDBFDF911E
:10362000CF911F910F91FF90EF90DF90CF90BF90BF
:10363000AF900895EF92FF920F931F93CF93DF9374
:10364000EC01C353DE4F288139812115310529F161
:1036500021503109398328838C0109561F4FB80145
:1036600088589F4F0E940C12C80100E010E028818A
:1036700039817C014FE1E40EF11C0217130738F485
:103680000F5F1F4FB7010E940C12C701F0CF81E0FE
:1036900090E0232B21F080E002C08FEF9FEFDF91BD
:1036A000CF911F910F91FF90EF900895EF92FF92AD
:1036B0000F931F93CF93DF93EC01109273108091BF
:1036C000FF0F909100100196909300108093FF0FD0
:1036D000FED08BE892E00E94B7330F9475508E01B4
:1036E0000F5E1D4FF80180819E012A503E4F7901E7
:1036F0008823A9F1C9010F940D3FF8018081815001
:103700008083BE01FDE88F9F600D711D11246A5EEC
:103710007D4F21E041E0CE010E948413F8018081B9
:10372000FE0124E0829FE00DF11D1124EE5EFD4FAD
:103730004081518162817381FE01E555FD4F4083D7
:10374000518362837383C7010F942A3ECE01DF91B8
:10375000CF911F910F91FF90EF900C94FD120F9459
:103760000551C7010F940D3F1A8221E030E045E07A
:1037700050E06AE070E086ED93E10E947A2B80E0F1
:1037800090E00E94D37B0F94755086E892E00E94EF
:10379000B7330F9475501092F01C1092EF1C1092DA
:1037A000F21C1092F11C1092EE1C1092ED1C109263
:1037B000C3101092C2101092C1108AE792E00E94CA
:1037C000B73380917C198823F9F010927C19C0914D
:1037D000F80FD0E0CC0FDD1FC151D34E6881798145
:1037E000882777FD8095982F0F94F57120919E0280
:1037F00030919F024091A0025091A1020F94567304
:10380000181614F419821882DF91CF911F910F912D
:10381000FF90EF9008958D559D4FFC01608171815F
:1038200082819381089585559D4FFC01608171814E
:10383000828193810895EF92FF920F931F93CF930C
:10384000DF931F92CDB7DEB78C017B01460FF701E6
:1038500061917F01F8018081918149830F94F88003
:10386000F8018081918101969183808349814E1175
:10387000EECF0F90DF91CF911F910F91FF90EF90BE
:103880000895EF92FF920F931F93CF93DF931F92B0
:10389000CDB7DEB78C017B01460FF80180819181A5
:1038A00049830F94F080F70181937F01F8018081B3
:1038B000918101969183808349814E11EECF0F90C3
:1038C000DF91CF911F910F91FF90EF9008950F938B
:1038D0001F93CF93DF93CDB7DEB768970FB6F894F9
:1038E000DEBF0FBECDBF80E390E3A0E3B0E08D83E9
:1038F0009E83AF83B88704E610E0188F0F8B44E0F7
:10390000BE016B5F7F4FCE01479695DF40E16DEDC5
:1039100079E1CE0147968FDF40E16DEE79E1CE018E
:10392000479689DF40E16DEC79E1CE01479683DF70
:1039300044E065EC79E1CE0147967DDF44E061EC3F
:1039400079E1CE01479677DF44E069EC79E1CE0179
:10395000479671DF44E061EB79E1CE0147966BDF7A
:1039600044E06DEF79E1CE01479665DF44E06DEB11
:1039700079E1CE0147965FDF44E069EB79E1CE0162
:10398000479659DF44E065EB79E1CE01479653DF76
:103990004CE060E470E1CE0147964DDF87ED90E0AA
:1039A0009E8B8D8B8DE290E09C8B8B8B1A8A198A73
:1039B00080EF90E0988B8F8786E490E09E878D87DC
:1039C0001C861B8642E0BE016B5E7F4FCE01479690
:1039D00032DF42E0BE016D5E7F4FCE0147962BDFA6
:1039E00042E0BE016F5E7F4FCE01479624DF42E08A
:1039F000BE01615F7F4FCE0147961DDF42E0BE01F1
:103A0000635F7F4FCE01479616DF42E0BE01655FE0
:103A10007F4FCE0147960FDF44E06DE270E1CE01AB
:103A2000479609DF44E06BE272E0CE01479603DF80
:103A300044E063E372E0CE014796FDDE44E06BE3D1
:103A400072E0CE014796F7DE42E06EE970E1CE010A
:103A50004796F1DE42E062EA70E1CE014796EBDE86
:103A600042E060EA70E1CE014796E5DE42E06CE9B3
:103A700070E1CE014796DFDE42E06EE870E1CE01F4
:103A80004796D9DE42E062E970E1CE014796D3DE87
:103A900042E060E970E1CE014796CDDE42E06CE89D
:103AA00070E1CE014796C7DE42E066E970E1CE01E3
:103AB0004796C1DE42E06AE970E1CE014796BBDE7F
:103AC00042E068E970E1CE014796B5DE42E064E984
:103AD00070E1CE014796AFDE42E066E870E1CE01CC
:103AE0004796A9DE42E06AE870E1CE014796A3DE80
:103AF00042E068E870E1CE0147969DDE42E064E86E
:103B000070E1CE01479697DE44E06DEF72E0CE01A2
:103B1000479691DE44E065EF72E0CE0147968BDE7A
:103B200044E06DEE72E0CE01479685DE44E061E050
:103B300073E0CE0147967FDE44E069EF72E0CE018C
:103B4000479679DE44E061EF72E0CE01479673DE7E
:103B500042E063E070E1CE0147966DDE42E06FEF38
:103B60007FE0CE01479667DE42E06DEF7FE0CE0159
:103B7000479661DE42E06BEF7FE0CE0147965BDE69
:103B800042E061E070E1CE01479655DE42E069EF28
:103B90007FE0CE0147964FDE80E290E09A878987EA
:103BA00042E0BE01675F7F4FCE01479644DE86E567
:103BB00091E3A2E3B0E089839A83AB83BC83188F3F
:103BC0000F8B44E0BE016F5F7F4FCE01479633DE1F
:103BD000E0ECF7E064918F01662361F0772767FDE1
:103BE00070958CEF9CE10E94B00F0F5F1F4FF801A2
:103BF0006491F2CFE0EBF7E064918F01662361F00E
:103C0000772767FD70958CEF9CE10E94B00F0F5FE6
:103C10001F4FF8016491F2CF6AE070E08CEF9CE1F5
:103C20000E94B00F68960FB6F894DEBF0FBECDBFEE
:103C3000DF91CF911F910F9108950F931F93CF9311
:103C4000DF93C0ECD7E0FE0164918E01662361F042
:103C5000772767FD70958CEF9CE10E94B00F0F5F96
:103C60001F4FF8016491F2CFE0EAF7E064918F0111
:103C7000662361F0772767FD70958CEF9CE10E94C9
:103C8000B00F0F5F1F4FF8016491F2CF6AE070E050
:103C90008CEF9CE10E94B00FFE01649100EC17E0F4
:103CA000662361F0772767FD70958CEF9CE10E9499
:103CB000B00F0F5F1F4FF8016491F2CF4091DD19F3
:103CC0005091DE196091DF197091E01988E997E051
:103CD0000E94CF324091E1195091E2196091E319AD
:103CE0007091E41985E997E00E94CF324091E5197F
:103CF0005091E6196091E7197091E81982E997E00F
:103D00000E94CF324091E9195091EA196091EB1964
:103D10007091EC198FE897E00E94CF3264E97CE063
:103D20008CEF9CE10F94EB6D6AE070E08CEF9CE10E
:103D30000E94B00FFE01649100EC17E0662361F071
:103D4000772767FD70958CEF9CE10E94B00F0F5FA5
:103D50001F4FF8016491F2CFE5E7F7E064918F011E
:103D6000662361F0772767FD70958CEF9CE10E94D8
:103D7000B00F0F5F1F4FF8016491F2CF6AE070E05F
:103D80008CEF9CE10E94B00FFE01649100EC17E003
:103D9000662361F0772767FD70958CEF9CE10E94A8
:103DA000B00F0F5F1F4FF8016491F2CF4091ED19F2
:103DB0005091EE196091EF197091F0198CE697E02F
:103DC0000E94CF324091F1195091F2196091F3198C
:103DD0007091F41989E697E00E94CF324091F5196D
:103DE0005091F6196091F7197091F81986E697E0ED
:103DF0000E94CF324091F9195091FA196091FB1944
:103E00007091FC1983E697E00E94CF3264E97CE070
:103E10008CEF9CE10F94EB6D6AE070E08CEF9CE11D
:103E20000E94B00FFE01649100EC17E0662361F080
:103E3000772767FD70958CEF9CE10E94B00F0F5FB4
:103E40001F4FF8016491F2CFE5E4F7E064918F0130
:103E5000662361F0772767FD70958CEF9CE10E94E7
:103E6000B00F0F5F1F4FF8016491F2CF6AE070E06E
:103E70008CEF9CE10E94B00FFE01649100EC17E012
:103E8000662361F0772767FD70958CEF9CE10E94B7
:103E9000B00F0F5F1F4FF8016491F2CF4091CD1921
:103EA0005091CE196091CF197091D0198CE397E0A1
:103EB0000E9417334091D1195091D2196091D319B2
:103EC0007091D41989E397E00E9417334091D51976
:103ED0005091D6196091D7197091D81986E397E05F
:103EE0000E9417334091D9195091DA196091DB196A
:103EF0007091DC1983E397E00E94173364E97CE05A
:103F00008CEF9CE10F94EB6D6AE070E08CEF9CE12C
:103F10000E94B00FFE01649100EC17E0662361F08F
:103F2000772767FD70958CEF9CE10E94B00F0F5FC3
:103F30001F4FF8016491F2CFEEEFF6E064918F012C
:103F4000662361F0772767FD70958CEF9CE10E94F6
:103F5000B00F0F5F1F4FF8016491F2CF6AE070E07D
:103F60008CEF9CE10E94B00FFE01649100EC17E021
:103F7000662361F0772767FD70958CEF9CE10E94C6
:103F8000B00F0F5F1F4FF8016491F2CF4091C51938
:103F90005091C6196091C7197091C81985EF96E0C4
:103FA0000E94CF324091C1195091C2196091C3193A
:103FB0007091C41982EF96E00E94CF3264E97CE0F0
:103FC0008CEF9CE10F94EB6D6AE070E08CEF9CE16C
:103FD0000E94B00FFE01649100EC17E0662361F0CF
:103FE000772767FD70958CEF9CE10E94B00F0F5F03
:103FF0001F4FF8016491F2CFEFE3F6E064918F0177
:10400000662361F0772767FD70958CEF9CE10E9435
:10401000B00F0F5F1F4FF8016491F2CF6AE070E0BC
:104020008CEF9CE10E94B00FFE01649100EC17E060
:10403000662361F0772767FD70958CEF9CE10E9405
:10404000B00F0F5F1F4FF8016491F2CF4091C91973
:104050005091CA196091CB197091CC1986E396E002
:104060000E94CF324091B1195091B2196091B319A9
:104070007091B41983E396E00E94CF324091FD190C
:104080005091FE196091FF197091001A80E396E03B
:104090000E9417334091BD195091BE196091BF190C
:1040A0007091C0198DE296E00E94CF324091B9190B
:1040B0005091BA196091BB197091BC198AE296E0CF
:1040C0000E94CF324091B5195091B6196091B7193D
:1040D0007091B81987E296E00E94CF3264E97CE0E3
:1040E0008CEF9CE10F94EB6D6AE070E08CEF9CE14B
:1040F0000E94B00FFE01649100EC17E0662361F0AE
:10410000772767FD70958CEF9CE10E94B00F0F5FE1
:104110001F4FF8016491F2CFE5E1F6E064918F0161
:10412000662361F0772767FD70958CEF9CE10E9414
:10413000B00F0F5F1F4FF8016491F2CF6AE070E09B
:104140008CEF9CE10E94B00FFE01649100EC17E03F
:10415000662361F0772767FD70958CEF9CE10E94E4
:10416000B00F0F5F1F4FF8016491F2CF40914010E4
:104170005091411060914210709143108CE096E094
:104180000E94CF32409144105091451060914610EA
:104190007091471089E096E00E94CF32409148101C
:1041A0005091491060914A1070914B1086E096E052
:1041B0000E94CF3264E97CE08CEF9CE10F94EB6DC0
:1041C0006AE070E08CEF9CE10E94B00FFE01649108
:1041D00000EC17E0662361F0772767FD70958CEFA0
:1041E0009CE10E94B00F0F5F1F4FF8016491F2CF66
:1041F000E8EFF5E064918F01662361F0772767FDB2
:1042000070958CEF9CE10E94B00F0F5F1F4FF8017B
:104210006491F2CF6AE070E08CEF9CE10E94B00FF5
:10422000FE01649100EC17E0662361F0772767FDDB
:1042300070958CEF9CE10E94B00F0F5F1F4FF8014B
:104240006491F2CF4091FD025091FE026091FF0215
:10425000709100038BEE95E00E94CF326091F502E1
:104260007091F6028091F7029091F8020F94CE625D
:10427000AB01BC0188EE95E00E94CF326091ED0267
:104280007091EE028091EF029091F0020F94DA6249
:10429000AB01BC0185EE95E00E94CF324091010355
:1042A00050910203609103037091040385ED95E042
:1042B0000E94CF326091F9027091FA028091FB0264
:1042C0009091FC020F94CE62AB01BC0182ED95E0AF
:1042D0000E94CF326091F1027091F2028091F3025C
:1042E0009091F4020F94DA62AB01BC018FEC95E07F
:1042F0000E94CF3264E97CE08CEF9CE10F94EB6D7F
:104300006AE070E08CEF9CE10E94B00FFE016491C6
:1043100000EC17E0662361F0772767FD70958CEF5E
:104320009CE10E94B00F0F5F1F4FF8016491F2CF24
:10433000E1ECF5E064918F01662361F0772767FD7A
:1043400070958CEF9CE10E94B00F0F5F1F4FF8013A
:104350006491F2CF6AE070E08CEF9CE10E94B00FB4
:10436000FE01649100EC17E0662361F0772767FD9A
:1043700070958CEF9CE10E94B00F0F5F1F4FF8010A
:104380006491F2CF40912B0250912C0260912D024A
:1043900070912E028DEB95E00E94CF324091330256
:1043A00050913402609135027091360289EB95E0AC
:1043B0000E94CF3240913B0250913C0260913D02FD
:1043C00070913E0285EB95E00E94CF3240912D1016
:1043D00050912E1060912F10709130108CEA95E062
:1043E0000E94CF3264E97CE08CEF9CE10F94EB6D8E
:1043F0006AE070E08CEF9CE10E94B00FFE016491D6
:1044000000EC17E0662361F0772767FD70958CEF6D
:104410009CE10E94B00F0F5F1F4FF8016491F2CF33
:10442000EFE9F5E064918F01662361F0772767FD7E
:1044300070958CEF9CE10E94B00F0F5F1F4FF80149
:104440006491F2CF6AE070E08CEF9CE10E94B00FC3
:10445000FE01649100EC17E0662361F0772767FDA9
:1044600070958CEF9CE10E94B00F0F5F1F4FF80119
:104470006491F2CF6091A2107091A310882777FD0C
:104480008095982F0F94F571AB01BC0184E995E0FC
:104490000E94CF326091A0107091A110882777FD03
:1044A0008095982F0F94F571AB01BC0189E895E0D8
:1044B0000E94CF3260919C1070919D10882777FDEB
:1044C0008095982F0F94F571AB01BC0181E895E0C0
:1044D0000E94CF3260919E1070919F10882777FDC7
:1044E0008095982F0F94F571AB01BC0187E795E09B
:1044F0000E94CF3264E97CE08CEF9CE10F94EB6D7D
:104500006AE070E08CEF9CE10E94B00FFE016491C4
:1045100000EC17E0662361F0772767FD70958CEF5C
:104520009CE10E94B00F0F5F1F4FF8016491F2CF22
:10453000EAE6F5E064918F01662361F0772767FD75
:1045400070958CEF9CE10E94B00F0F5F1F4FF80138
:104550006491F2CF6AE070E08CEF9CE10E94B00FB2
:10456000FE01649100EC17E0662361F0772767FD98
:1045700070958CEF9CE10E94B00F0F5F1F4FF80108
:104580006491F2CF60919A1070919B10882777FD0B
:104590008095982F0F94F571AB01BC018FE595E0E4
:1045A0000E94CF326091981070919910882777FD02
:1045B0008095982F0F94F571AB01BC0184E595E0CF
:1045C0000E94CF326091941070919510882777FDEA
:1045D0008095982F0F94F571AB01BC018CE495E0A8
:1045E0000E94CF326091961070919710882777FDC6
:1045F0008095982F0F94F571AB01BC0182E495E092
:104600000E94CF3264E97CE08CEF9CE10F94EB6D6B
:104610006AE070E08CEF9CE10E94B00FFE016491B3
:1046200000EC17E0662361F0772767FD70958CEF4B
:104630009CE10E94B00F0F5F1F4FF8016491F2CF11
:10464000EDE3F5E064918F01662361F0772767FD64
:1046500070958CEF9CE10E94B00F0F5F1F4FF80127
:104660006491F2CF6AE070E08CEF9CE10E94B00FA1
:10467000FE01C49100EC17E0CC2369F06C2F772782
:1046800067FD70958CEF9CE10E94B00F0F5F1F4F8C
:10469000F801C491F1CF6091031070910410882744
:1046A00077FD8095982F0F94F571AB01BC0184E3E1
:1046B00095E00E94CF32609101107091021088271E
:1046C00077FD8095982F0F94F571AB01BC0186E2C0
:1046D00095E00E94CF326091FF0F70910010882703
:1046E00077FD8095982F0F94F571AB01BC0184E1A3
:1046F00095E00E94CF326091FD0F7091FE0F8827E8
:1047000077FD8095982F0F94F571AB01BC0187E080
:1047100095E00E94CF326091FB0F7091FC0F8827CB
:1047200077FD8095982F0F94F571AB01BC018AEF4E
:1047300094E00E94CF326091F90F7091FA0F8827B0
:1047400077FD8095982F0F94F571AB01BC018DEE2C
:1047500094E00E94CF3264E97CE08CEF9CE10F94FE
:10476000EB6D6AE070E08CEF9CE1DF91CF911F91DF
:104770000F910C94B00FAF92BF92CF92DF92EF9255
:10478000FF920F931F93CF93DF93CDB7DEB7E097E0
:104790000FB6F894DEBF0FBECDBF80E1E5E0F3E0D9
:1047A000DE01919601900D928A95E1F780E1E5E1B5
:1047B000F3E0DE01519601900D928A95E1F780E1D8
:1047C000E5E2F3E0DE01119601900D928A95E1F7A2
:1047D0006E0181E2C80ED11C8DEDE82E89E1F82E24
:1047E0008E010F5E1F4F6DEE79E1AE014F5F5F4F9F
:1047F0009DECA92E99E1B92E20E030E0F6018191DF
:104800009191A191B1916F01F70181939193A1933E
:10481000B1937F01F80181919191A191B1918F01A3
:10482000FB0181939193A193B193BF01FA0181910F
:104830009191A191B191AF01F50181939193A193D0
:10484000B1935F012F5F3F4F24303105B9F60F94CC
:10485000DC3280E090E8ABEBB4E48093C519909330
:10486000C619A093C719B093C81980E090E0AAEFC9
:10487000B4E48093C1199093C219A093C319B09363
:10488000C4191092C9191092CA191092CB1910921A
:10489000CC1980E29EE4A0E0B0E08093FD199093F3
:1048A000FE19A093FF19B093001A1092B11910923B
:1048B000B2191092B3191092B41980E090E0A0EAF6
:1048C000B0E48093BD199093BE19A093BF19B09323
:1048D000C0194DEC5CEC6CEC7EE34093B91950933D
:1048E000BA196093BB197093BC198093B519909352
:1048F000B619A093B719B093B81910924810109236
:10490000491010924A1010924B10109244101092BD
:1049100045101092461010924710109240101092BD
:104920004110109242101092431067ED70E07093A6
:104930009F1060939E104CED50E05093A310409355
:10494000A2102AEA30E03093A1102093A01081E455
:1049500090E090939D1080939C1070938F106093C3
:104960008E10509393104093921030939110209397
:10497000901090938D1080938C107093971060938B
:10498000961050939B1040939A1030939910209357
:104990009810909395108093941070938710609363
:1049A000861050938B1040938A1030938910209377
:1049B000881090938510809384108AE999E9A9E37F
:1049C000B0EC80932D1090932E10A0932F10B093E5
:1049D0003010E0ECF7E064918F01662361F07727F7
:1049E00067FD70958CEF9CE10E94B00F0F5F1F4F29
:1049F000F8016491F2CFE1EBF4E064918F0166235A
:104A000061F0772767FD70958CEF9CE10E94B00FF5
:104A10000F5F1F4FF8016491F2CF6AE070E08CEFF6
:104A20009CE1E0960FB6F894DEBF0FBECDBFDF91DC
:104A3000CF911F910F91FF90EF90DF90CF90BF909B
:104A4000AF900C94B00FCF92DF92EF92FF92CF9382
:104A5000DF9383E393EFA7E9B3E480932B02909372
:104A60002C02A0932D02B0932E028AE999E9A9E1C4
:104A7000BEEB8093330290933402A0933502B0933F
:104A800036028DEC9CECACECBDEB80933B0290933A
:104A90003C02A0933D02B0933E022CE5C22E2FE8CB
:104AA000D22E22E7E22E21E4F22EC092FD02D09215
:104AB000FE02E092FF02F092000361EE7AE784E9E1
:104AC0009FE30F94C8626093F5027093F60280939F
:104AD000F7029093F8026FE175E885E492E40F9491
:104AE000D4626093ED027093EE028093EF02909394
:104AF000F002C0920103D0920203E0920303F0920D
:104B0000040361EE7AE784E99FE30F94C86260933F
:104B1000F9027093FA028093FB029093FC026FE11A
:104B200075E885E492E40F94D4626093F102709387
:104B3000F2028093F3029093F40280E090E0A0E808
:104B4000BFE38093E5029093E602A093E702B0935F
:104B5000E8028093E9029093EA02A093EB02B093FB
:104B6000EC02E0ECF7E06491EF01662359F077275F
:104B700067FD70958CEF9CE10E94B00F2196FE01BD
:104B80006491F3CFE1E8F4E06491EF01662359F01A
:104B9000772767FD70958CEF9CE10E94B00F2196FE
:104BA000FE016491F3CF6AE070E08CEF9CE1DF914D
:104BB000CF91FF90EF90DF90CF900C94B00F0F93B8
:104BC0001F93CF93DF93CDB7DEB768970FB6F894F6
:104BD000DEBF0FBECDBF84E690E0988F8F8B86E559
:104BE00091E3A2E3B0E089839A83AB83BC8344E082
:104BF000BE016B5F7F4FCE0147960E94411C43E090
:104C000050E0BE016B5F7F4FCE0101960F94AF7BEA
:104C1000892B09F09BC140E16DED79E1CE0147960A
:104C20000E94411C40E16DEE79E1CE0147960E9461
:104C3000411C40E16DEC79E1CE0147960E94411C98
:104C40000F94DC3244E065EC79E1CE0147960E9496
:104C5000411C44E061EC79E1CE0147960E94411C81
:104C600044E069EC79E1CE0147960E94411C44E0A2
:104C700061EB79E1CE0147960E94411C44E06DEF63
:104C800079E1CE0147960E94411C44E06DEB79E149
:104C9000CE0147960E94411C44E069EB79E1CE01C8
:104CA00047960E94411C44E065EB79E1CE014796AE
:104CB0000E94411C4CE060E470E1CE0147960E94E6
:104CC000411C42E0BE016B5E7F4FCE0147960E94C1
:104CD000411C42E0BE016D5E7F4FCE0147960E94AF
:104CE000411C42E0BE016F5E7F4FCE0147960E949D
:104CF000411C42E0BE01615F7F4FCE0147960E949A
:104D0000411C42E0BE01635F7F4FCE0147960E9487
:104D1000411C42E0BE01655F7F4FCE0147960E9475
:104D2000411C44E06DE270E1CE0147960E94411CB7
:104D300044E06BE272E0CE0147960E94411C44E0E1
:104D400063E372E0CE0147960E94411C44E06BE3AE
:104D500072E0CE0147960E94411C42E06EE970E18C
:104D6000CE0147960E94411C42E062EA70E1CE010A
:104D700047960E94411C42E060EA70E1CE014796EE
:104D80000E94411C42E06CE970E1CE0147960E940E
:104D9000411C42E06EE870E1CE0147960E94411C42
:104DA00042E062E970E1CE0147960E94411C42E078
:104DB00060E970E1CE0147960E94411C42E06CE838
:104DC00070E1CE0147960E94411C42E066E970E125
:104DD000CE0147960E94411C42E06AE970E1CE0193
:104DE00047960E94411C42E068E970E1CE01479677
:104DF0000E94411C42E064E970E1CE0147960E94A6
:104E0000411C42E066E870E1CE0147960E94411CD9
:104E100042E06AE870E1CE0147960E94411C42E000
:104E200068E870E1CE0147960E94411C42E064E8C8
:104E300070E1CE0147960E94411C44E06DEF72E0A4
:104E4000CE0147960E94411C44E065EF72E0CE011E
:104E500047960E94411C44E06DEE72E0CE014796F9
:104E60000E94411C44E061E073E0CE0147960E943D
:104E7000411C44E069EF72E0CE0147960E94411C5C
:104E800044E061EF72E0CE0147960E94411C42E08F
:104E900063E070E1CE0147960E94411C42E06FEF53
:104EA0007FE0CE0147960E94411C42E06DEF7FE01B
:104EB000CE0147960E94411C42E06BEF7FE0CE019D
:104EC00047960E94411C42E061E070E1CE014796A6
:104ED0000E94411C42E069EF7FE0CE0147960E94AC
:104EE000411C42E0BE01675F7F4FCE0147960E94A2
:104EF000411C0F94EF52E0ECF7E064918F016623C0
:104F000061F0772767FD70958CEF9CE10E94B00FF0
:104F10000F5F1F4FF8016491F2CFE3EDF4E064916D
:104F20008F01662361F0772767FD70958CEF9CE118
:104F30000E94B00F0F5F1F4FF8016491F2CF6AE03B
:104F400070E08CEF9CE10E94B00F04C014DC7BDDAC
:104F50000E94671C68960FB6F894DEBF0FBECDBFE7
:104F6000DF91CF911F910F910895823D9440F1F40C
:104F700010920210109201101092FA0F1092F90F75
:104F80001092FE0F1092FD0F1092FC0F1092FB0F6B
:104F90001092041010920310109200101092FF0F44
:104FA00068E673E08CEF9CE10D94F66D0895FC01CA
:104FB000E659F109E63AF10518F069E773E023C014
:104FC000FB01E659F109E63AF105B8F7FA01E659AD
:104FD000F109E63AF10588F7F9013597EA36F10566
:104FE00060F79093A3108093A2107093A110609328
:104FF000A01050939F1040939E1030939D102093CB
:105000009C1062E778E08CEF9CE10D94F66DFC015A
:10501000E659F109E63AF10518F069E773E023C0B3
:10502000FB01E659F109E63AF105B8F7FA01E6594C
:10503000F109E63AF10588F7F9013597EA36F10505
:1050400060F790939B1080939A10709399106093DF
:10505000981050939710409396103093951020938A
:10506000941062E778E08CEF9CE10D94F66DAF92BE
:10507000BF92CF92DF92EF92FF920F931F936093B4
:105080002B0270932C0280932D0290932E0220937A
:105090003302309334024093350250933602E0924B
:1050A0003B02F0923C0200933D0210933E02A0921C
:1050B0002D10B0922E10C0922F10D09230101F9150
:1050C0000F91FF90EF90DF90CF90BF90AF90089539
:1050D000FC01EA57FF4F1182108232961182108232
:1050E000329611821082369711821082B197108207
:1050F000DC01A958BF4FED93FC93769628EE33E080
:10510000318320833296118210823296118210826E
:10511000329610823196118210820895CF93DF93D8
:10512000EC01CE57DF4F88819981DC01ED91FC9134
:105130000480F581E02D199518161906A4F78881C9
:105140009981DC01ED91FC910680F781E02D1995A4
:10515000DF91CF9108950F931F93CF93DF93EC01CD
:10516000CE57DF4F88819981DC01ED91FC9104805D
:10517000F581E02D199518161906A4F788819981F3
:10518000DC01ED91FC910680F781E02D199500E09E
:1051900010E0182F88819981DC01ED91FC91068047
:1051A000F781E02D1995802B912BDF91CF911F91E5
:1051B0000F910895FC01E958FF4FA081B1818D59ED
:1051C0009F4F8A179B0780F48FEF8C93808191818A
:1051D00001979183808380916C0D90916D0D019763
:1051E00090936D0D80936C0D08950F931F93CF9343
:1051F000DF938C01EC01CE57DF4F88819981DC0170
:10520000ED91FC910480F581E02D1995892B41F4F5
:10521000F801E358FF4F8DEF9FEF918380830AC021
:1052200088819981DC01ED91FC910680F781E02D68
:1052300019959927DF91CF911F910F910895FC0146
:10524000E358FF4F11821082D0CF0895CF93DF93A0
:10525000EC01CE57DF4F88819981DC01ED91FC9103
:105260000680F781E02D199597FFF5CFDF91CF915B
:105270000895CF93DF93EC01E9DFFE01E05AFF4F81
:1052800010823196108231961082799611821082A6
:1052900010926D0D10926C0D3497CD59DF4FD18364
:1052A000C0831882DF91CF910895CF93DF93EC01F3
:1052B000CE59DF4F28812223D1F09C01205A3F4F45
:1052C000F901508146E0FC01459FE00DF11D1124DC
:1052D000DB0101900D924A95E1F7F90180818F5F22
:1052E0008F70808388818150888381E001C080E055
:1052F000DF91CF910895BF92CF92DF92EF92FF920C
:105300000F931F93CF93DF93FB01EC01CE59DF4F37
:10531000E8802DE02E15B0F1AC014F595F4FDA0156
:105320000C9110E0980160E070E0F12CA6E0DA2E1C
:10533000E616F70681F12150310910F42FE030E034
:10534000D29ED001D39EB00D1124A80FB91FBC90DE
:10535000C080BC1014C01196BC901197C180BC10C5
:105360000EC01296BC901297C280BC1008C08381F8
:1053700013968C931397848114968C9321C06F5F3E
:105380007F4FD6CFFC01E358FF4F2BEF3FEF318328
:10539000208380E015C026E0209FD001219FB00D22
:1053A0001124A80FB91F01900D922A95E1F7FA0177
:1053B00080818F5F8F70808388818F5F888381E099
:1053C000DF91CF911F910F91FF90EF90DF90CF90E1
:1053D000BF900895FC01E958FF4F0190F081E02D46
:1053E0006083635071096230710520F4FC01E1585B
:1053F000FF4F108208950F931F93CF93DF931F9257
:10540000CDB7DEB78C0180916C0D90916D0D4497F6
:1054100024F0C80169832DDF698180916C0D909122
:105420006D0D019690936D0D80936C0DF801E95808
:10543000FF4F8081918101969183808370E0C80144
:105440000F90DF91CF911F910F91C4CFAF92BF9278
:10545000CF92DF92EF92FF921F93CF93DF931F9231
:10546000CDB7DEB75C016983EADE182F65012DE751
:10547000C20ED11CD6018D919C916981039699F43D
:10548000F501EE59FF4F8081882309F477C0B49667
:105490000190F081E02D309709F470C0662309F483
:1054A0006DC019956BC07501E7E7EE0EF11CD701D1
:1054B000ED91FC918081813049F018F08230E9F063
:1054C00036C01A3059F11B3039F42CC01A3031F182
:1054D00038F4163009F44FC0173009F055C01CC01D
:1054E0001B3001F1153109F04FC0C50163DE8CEFAF
:1054F0009FEFF6019183808347C0173069F038F43D
:10550000153009F041C0C50155DE63E00EC01A3008
:1055100029F01B3039F038C064E007C010926B0DE1
:1055200066E003C010926B0D67E0C50164DFD70130
:10553000ED91FC9180819DEF980F923010F57501EF
:10554000FFE7EF0EF11CD7012C91222301F180918E
:105550006A0D812780936A0DE22FF0E0EC59F24F3B
:1055600010832530D9F4811114C064E67DE0C501B3
:10557000C2DEF7011082C5011DDE06C080E090E0AA
:105580005AC08650823070F081E090E054C0812F84
:10559000E1CF88EF9FEFD6018D939C932F5FF701AA
:1055A0002083F2CF80916B0D813031F41093620D26
:1055B00082E080936B0DE8CF813020F41093610D71
:1055C00081E0F7CF823001F71093630D83E0809381
:1055D0006B0D8091610D8A3091F4F501E857FF4F12
:1055E0000190F081E02D3097A1F48091630D8150FE
:1055F0008093630D8823E1F0C50190DDF6CF8B30F9
:10560000B9F4F501E657FF4F0190F081E02D309796
:1056100029F0612F8091620D19950AC08091630D68
:1056200081508093630D882319F0C50194DDF6CF76
:10563000C50174DDA0CF0F90DF91CF911F91FF9036
:10564000EF90DF90CF90BF90AF900895AF92BF9250
:10565000CF92DF92EF92FF920F931F93CF93DF933E
:10566000EC010F9464686B017C018E0107581F4F99
:10567000D8018D919C91AA2797FDA095BA2FC80EAD
:10568000D91EEA1EFB1E5E01B7E7AB0EB11C0F94DC
:1056900064686C157D058E059F05D8F460E0CE0129
:1056A000D5DE019779F40F9464686B017C01F801F1
:1056B00080819181AA2797FDA095BA2FC80ED91E87
:1056C000EA1EFB1ED501ED91FC9180818111DFCF97
:1056D00006C0C358DF4F8FEF9FEF99838883DF9118
:1056E000CF911F910F91FF90EF90DF90CF90BF90DF
:1056F000AF900895BF92CF92DF92EF92FF920F93F7
:105700001F93CF93DF938C01D62EC42E79019EDF99
:10571000F801E358FF4F11821082E801CE57DF4FA6
:1057200088819981DC01ED91FC910190F081E02D5F
:1057300061E0199588819981DC01ED91FC910190DE
:10574000F081E02D6D2D199588819981DC01ED9115
:10575000FC910190F081E02D6C2D1995BB24B39440
:10576000BC24BD2488819981DC01ED91FC910190DC
:10577000F081E02D6F2D1995BF2488819981FF2438
:10578000DC01ED91FC910190F081E02D6E2D1995D9
:1057900088819981DC01ED91FC916B2D6E25019042
:1057A000F081E02D199561E0C80125DEDF91CF91F0
:1057B0001F910F91FF90EF90DF90CF90BF900895D1
:1057C000AF92BF92CF92DF92EF92FF920F931F930F
:1057D000CF93DF935C016B017A01EA01099000200D
:1057E000E9F72197C41BD50BCF3FD10511F00CF081
:1057F00048C02CDF85010E571F4FD8018D919C9119
:10580000DC01ED91FC910190F081E02D62E01995B1
:10581000F80180819181DC01ED91FC910190F08192
:10582000E02D6C2D1995B2E0CB26F8018081918195
:10583000DC01ED91FC910190F081E02D6C2F199528
:10584000CC26DD26D7016C91F80180819181DC01A5
:10585000ED91FC910190F081E02D662351F01995B6
:10586000F70181917F01992787FD9095C826D92658
:10587000E9CF6C2D199561E0C501BDDD80E090E0B8
:1058800002C08FEF9FEFDF91CF911F910F91FF909B
:10589000EF90DF90CF90BF90AF9008952F923F92FE
:1058A0004F925F926F927F928F929F92AF92BF9230
:1058B000CF92DF92EF92FF920F931F93CF93DF93DC
:1058C000CDB7DEB7A9970FB6F894DEBF0FBECDBF38
:1058D0009FA38EA379A768A769017A01580119A22D
:1058E00020E030E0A901C701B6010F9453712601F1
:1058F000370187FF04C077FA709477F8709400E05E
:1059000010E060E070E080E09FE30A151B054CF4B6
:1059100020E030E040E251E40F945A710F5F1F4FD6
:10592000F4CF9B01AC01C301B2010F947A702B013B
:105930003C010F94C771962E272E382E892E0F9476
:10594000F3719B01AC01C301B2010F9479708E0118
:105950000A191B090F5D1F4F1DA30CA3BBA2AAA20E
:10596000EAA1FBA11E161F0624F520E030E040E26C
:1059700051E40F9428742B013C010F94C27120E371
:10598000260FECA1FDA12193FDA3ECA3882777FDB1
:105990008095982F0F94F5719B01AC01C301B20162
:1059A0000F9479702AA13BA1215031093BA32AA36E
:1059B000D7CF1A141B0424F48EE2F80182938F01CE
:1059C0004AE0442E512C612C712C692D722D832DAF
:1059D000982DA30192010F942875892DFAE02F9F2D
:1059E00080191124015011098A3014F4805D01C01E
:1059F000895CF8018083211531054105510529F0A5
:105A0000922E232E342E852EE0CF20E030E0A90107
:105A1000C701B6010F94537187FF05C001501109EA
:105A2000F8018DE28083A80168A579A58EA19FA1C8
:105A3000C7DE80E090E0A9960FB6F894DEBF0FBEF7
:105A4000CDBFDF91CF911F910F91FF90EF90DF902D
:105A5000CF90BF90AF909F908F907F906F905F900E
:105A60004F903F902F9008958A579F4FFC0171836C
:105A700060830895CF93DF93EC01FC01EE57FF4F55
:105A80007183608360E0B7DCFE01E05AFF4F108253
:105A900031961082CE59DF4F1882DF91CF91089551
:105AA0000F931F93CF93DF938C01CDEDD9E1F801D4
:105AB00061917191819191918F01299139914991D0
:105AC00059910F9428740F94C271F80164877587F7
:105AD00086879787F9E1CD3EDF0749F7DF91CF91C0
