:100000000C948D0D0C94BE0D0C94BE0D0C94BE0D75
:100010000C94BE0D0C94BE0D0C94BE0D0C94BE0D34
:100020000C94BE0D0C94BE0D0C94BE0D0C94BE0D24
:100030000C94BE0D0C94BE0D0C94BE0D0C94BE0D14
:100040000C94BE0D0D94504A0C94BE0D0C94BE0D34
:100050000C94BE0D0C94BE0D0D94C4620D94896970
:100060000C94BE0D0D94B96D0D94EF6D0C94BE0DF6
:100070000C94BE0D0C94BE0D0C94BE0D0C94BE0DD4
:100080000C94BE0D0C94BE0D0C94BE0D0C94BE0DC4
:100090000C94BE0D0C94BE0D0C94BE0D0C94810EF0
:1000A0000C94BE0D0C94BE0D0C94BE0D0C94BE0DA4
:1000B0000C94BE0D0C94BE0D0C94BE0D0C94BE0D94
:1000C0000C94BE0D0C94BE0D0C94BE0D0D94646E7C
:1000D0000D949A6E0C94BE0D0C94BE0D0C94BE0D36
:1000E0000C94BE0D310115010F01F700F5003B0125
:1000F000EF00CD00CF00F100C9003901E300F300AB
:10010000C700ED0005011D01DF000D01E500E9005C
:100110000B012B01090105012501270111012D0109
:10012000190135012301FF000101FB00070137011F
:10013000E1002101E700D300D10001011B012F01E3
:10014000F900084AD73B3BCE016E84BCBFFDC12FEE
:100150003D6C74319ABD56833DDA3D00C77F11BEB8
:10016000D9E4BB4C3E916BAAAABE000000803F05BB
:10017000A84CCDB2D44EB93836A9020C50B99186EC
:1001800088083CA6AAAA2ABE000000803F000D9461
:10019000D36A0D94D1630D94766C0D94C5630D9460
:1001A000C7630D949F6B0D949B6B0D94FE440D944F
:1001B000546C0D9491110D94A9110D94496C0D94EA
:1001C000EF6A0D948D6B0D94C46A0D94016B0D94C0
:1001D000976B0D940B6B0D94626C0D94DD6A0D940E
:1001E000C3630D94C9630D94C96A0D949C630D9407
:1001F00082630D94AD6B0D947F6B0D94186E0D940E
:10020000746B0D94B26B0D94CC6E0D94566B0D9473
:10021000836B0D942E6B0D94156B0D94F76A0D94F2
:1002200075630D944C6B0D94D26C0D9459630D94C1
:10023000F36C0D947B6B0D94A56B0D94E76A0D9494
:10024000C36E0D94916B0D946E6B0D94386B0D9481
:10025000426B0D941C6F0D94246B0D94786B0D9470
:10026000A96B0D944C630D94216E0D946A6B0D94E3
:10027000896B0D94BF6A0D94A9634D3834205820C2
:1002800059205A2045004D313037004D313037006C
:1002900043616E6E6F7420656E7465722073756253
:1002A0006469723A20004D3234004D323320257398
:1002B000006175746F25692E67006572726F722018
:1002C00077726974696E6720746F2066696C650067
:1002D0004E6F74205344207072696E74696E6700AB
:1002E0002F005344207072696E74696E67206279C2
:1002F000746520002E0044656C6574696F6E20661D
:1003000061696C65642C2046696C653A2000466919
:100310006C652064656C657465643A002E006F70CE
:10032000656E206661696C65642C2046696C653A6F
:10033000200057726974696E6720746F2066696C5B
:10034000653A20002E006F70656E206661696C65ED
:10035000642C2046696C653A20002E006F70656E33
:10036000206661696C65642C2046696C653A2000E2
:1003700046696C652073656C656374656400205321
:10038000697A653A200046696C65206F70656E6514
:10039000643A20002E006F70656E206661696C659E
:1003A000642C2046696C653A20004E6F7720667297
:1003B0006573682066696C653A20004E6F7720642B
:1003C0006F696E672066696C653A20002220706F45
:1003D00073002220706172656E743A220053554298
:1003E000524F5554494E452043414C4C2074617244
:1003F0006765743A2200747279696E6720746F20A1
:1004000063616C6C207375622D67636F6465206631
:10041000696C6573207769746820746F6F206D61F3
:100420006E79206C6576656C732E204D4158206C7A
:100430006576656C2069733A005344206361726489
:10044000206F6B006F70656E526F6F74206661690C
:100450006C656400766F6C756D652E696E697420CD
:100460006661696C656400534420696E6974206636
:1004700061696C006563686F3A004572726F723A29
:100480000048617264636F6465642043616C6962F3
:1004900020616E64205049442044656661756C7427
:1004A0002053657474696E6773204C6F6164656472
:1004B0000048617264636F646564204465666175B9
:1004C0006C742053657474696E6773204C6F61643B
:1004D00065640053746F7265642073657474696E2B
:1004E00067732072657472696576656400206D615A
:1004F000782074656D7020422000206D6178207432
:10050000656D7020522000206D61782074656D70DB
:10051000204C2000207072696E74732066696E69C9
:1005200073686564200020686F757273207072694B
:100530006E742000207072696E747320004C4F47F7
:100540003A0020525F5052494E54200020525F42E0
:100550004544200020525F52454D4F564520002013
:10056000525F494E53455254200054656D70202807
:10057000EFBFBD43293A00204C5F5052494E5420F2
:1005800000204C5F4245442000204C5F52454D4FB7
:1005900056452000204C5F494E534552542000548C
:1005A000656D702028EFBFBD43293A00205A2070A6
:1005B000726F626500205A200020592000205820C8
:1005C000004F66667365747320286D6D293A0020AC
:1005D0004400204900202D204D333031205249471E
:1005E0004854205000204400204900204D33303131
:1005F000204C454654205000504944207365747483
:10060000696E67733A00205A0020590020204D324D
:100610003036205800486F6D65206F6666736574CC
:1006200020286D6D293A00204500205A00205800EE
:1006300020420020540020204D323035205300410C
:100640006476616E636564207661726961626C656F
:10065000733A20533D4D696E20666565647261741E
:100660006520286D6D2F73292C20543D4D696E2017
:1006700074726176656C206665656472617465206C
:10068000286D6D2F73292C20423D6D696E696D7543
:100690006D207365676D656E742074696D652028C3
:1006A0006D73292C20583D6D6178696D756D2058EA
:1006B00059206A65726B20286D6D2F73292C2020BC
:1006C0005A3D6D6178696D756D205A206A65726B4F
:1006D00020286D6D2F73292C2020453D6D61786990
:1006E0006D756D2045206A65726B20286D6D2F73C6
:1006F000290020540020204D323034205300416323
:1007000063656C65726174696F6E3A20533D616315
:1007100063656C65726174696F6E2C20543D7265FF
:10072000747261637420616363656C65726174697E
:100730006F6E00204500205A0020590020204D32C5
:1007400030312058004D6178696D756D20416363CB
:10075000656C65726174696F6E20286D6D2F7332E0
:10076000293A00204500205A0020590020204D320F
:1007700030332058004D6178696D756D2066656570
:1007800064726174657320286D6D2F73293A00209F
:100790004500205A0020590020204D3932205800B1
:1007A00053746570732070657220756E69743A00B9
:1007B00053657474696E67732053746F7265640057
:1007C0006563686F3A005072696E74657220686183
:1007D0006C7465642E206B696C6C28292063616CD5
:1007E0006C656421006F6B00526573656E643A201E
:1007F00000486F74656E64206F6666736574733A43
:10080000005A204F6666736574203A20007A5F6D47
:1008100061783A20007A5F6D696E3A20005A204F65
:100820006666736574005A204F6666736574206F40
:100830006B00486F74656E64206F666673657473D1
:100840003A007A5F6D696E3A2000795F6D61783A9F
:100850002000785F6D61783A2000785F6D696E3AAC
:100860002000205A3A0020593A0020436F756E74D8
:1008700020583A200020453A00205A3A0020593AA0
:1008800000583A004649524D574152455F4E414D3E
:10089000453A4D61726C696E2056313B205370723F
:1008A000696E7465722F6772626C206D6173687512
:1008B0007020666F722067656E36204649524D572C
:1008C0004152455F55524C3A68747470733A2F2FF9
:1008D0006769746875622E636F6D2F4572696B5A14
:1008E000616C6D2F4D61726C696E2F2050524F54A8
:1008F0004F434F4C5F56455253494F4E3A312E307D
:10090000204D414348494E455F545950453A4D6545
:100910006E64656C2045585452554445525F434FB0
:10092000554E543A3220555549443A3030303030E3
:100930003030302D303030302D303030302D3030C0
:1009400030302D3030303030303030303030300AD0
:100950000020423A0020453A00543A0020573A001D
:1009600020453A00543A002042403A0020403A00E4
:10097000202F003A00205400202F0020423A00206F
:100980002F006F6B20543A000A0A005374616E64A2
:1009900061726420446576696174696F6E3A200003
:1009A0000A004D65616E3A20000A002020207A3A44
:1009B000200000793A2000783A20003F53706563A8
:1009C0006966696564206E756D626572206F662068
:1009D0006C65677320696E206D6F76656D656E74EA
:1009E000206E6F7420706C61757361626C652E0A85
:1009F000003F537065636966696564205920706FB4
:100A0000736974696F6E206F7574206F66207261F0
:100A10006E67652E0A003F53706563696669656499
:100A2000205820706F736974696F6E206F75742021
:100A30006F662072616E67652E0A003F53706563B2
:100A400069666965642073616D706C652073697A8D
:100A500065206E6F7420706C61757361626C652EB9
:100A60000A0046756C6C20737570706F727420612B
:100A7000743A20687474703A2F2F33647072696E00
:100A800074626F6172642E636F6D2F666F72756D25
:100A90002E7068700A004D3438205A2D50726F62E3
:100AA00065205265706561746162696C6974792052
:100AB000746573742E20202056657273696F6E20E2
:100AC000322E30300A003F566572626F7365204CDB
:100AD0006576656C206E6F7420706C6175736162F1
:100AE0006C652E0A002569206D696E2C2025692011
:100AF00073656300456E642066696C65206C69737C
:100B00007400426567696E2066696C65206C697364
:100B100074000A00205A3A200020593A2000205838
:100B20003A2000426564000A0020616E7469686FB3
:100B3000726172690A3A200020686F726172690AF4
:100B400020002F3800766F6C746573200020566F7C
:100B50006C74657320636172676F6C20333A200098
:100B600020616E7469686F726172690A3A200020B0
:100B7000686F726172690A20002F3800766F6C749A
:100B80006573200020566F6C746573206361726713
:100B90006F6C20323A200020616E7469686F726158
:100BA00072690A3A200020686F726172690A200037
:100BB0002F3800766F6C746573200020566F6C744C
:100BC000657320636172676F6C20313A20000A0000
:100BD00020647A333A200020647A323A200020647C
:100BE0007A313A20000A00207A633A20005430001B
:100BF000486F6D6520582F59206265666F726520B9
:100C00005A000A00207A3A200020793A2000207801
:100C10003A200042656400486F6D6520582F5920C6
:100C20006265666F7265205A002200556E6B6E6FAA
:100C3000776E20636F6D6D616E643A2022002569C6
:100C400020686F757273202569206D696E757465F3
:100C50007300446F6E65207072696E74696E6720F0
:100C600066696C6500473639005072696E7465724A
:100C70002073746F707065642064756520746F20D4
:100C80006572726F72732E204669782074686520D1
:100C90006572726F7220616E6420757365204D39C4
:100CA000393920746F20726573746172742E202834
:100CB00054656D7065726174757265206973207218
:100CC000657365742E2053657420697420616674A1
:100CD00065722072657374617274696E6729006F42
:100CE0006B004E6F204C696E65204E756D626572AB
:100CF000207769746820636865636B73756D2C2059
:100D00004C617374204C696E653A20004E6F20432D
:100D10006865636B73756D2077697468206C696EA4
:100D200065206E756D6265722C204C617374204C69
:100D3000696E653A2000636865636B73756D206D3D
:100D400069736D617463682C204C617374204C6905
:100D50006E653A20004C696E65204E756D62657255
:100D6000206973206E6F74204C617374204C696E1F
:100D700065204E756D6265722B312C204C61737449
:100D8000204C696E653A20004D313130004D3834C9
:100D900020582059205A204500473238205830200A
:100DA000593000473730005052494E542053455473
:100DB00054494E4753200A00446F6E652073617694
:100DC000696E672066696C652E006F6B004D323965
:100DD0000073746172740030312D312E322E305216
:100DE00043002200656E717565696E6720220022DE
:100DF00000656E717565696E67202200543000547D
:100E0000300047333400473433004734330047342D
:100E10003100473430005431005430005430005415
:100E20003100543100543000543000543100473404
:100E300033004734330047343100473430005430F6
:100E400000543000473334005430004733340054EA
:100E50003000473334005430005430004D323400F9
:100E60004D323320257300FF01FF0000A040000039
:100E7000A0400000004033F39743008093430000FC
:100E8000524300000000008093430000000033F351
:100E9000974300809343000052430000000000008D
:100EA0000000000000006563686F3A004572726FD1
:100EB000723A0020636F6C64206578747275736990
:100EC0006F6E2070726576656E7465640065636828
:100ED0006F3A007C3C3E5E2B3D3F2F5B5D3B2C2AF6
:100EE000225C00205A3A0020593A0020583A006506
:100EF0006E6473746F7073206869743A200024F410
:100F0000D43050C38E20C2A24017828B7011127A47
:100F1000910D816CD90AA861E108C7586607615133
:100F200043061E4B5D05C145A7041A411104093D46
:100F30009803713931034036DB0265339102D430B6
:100F40005402802E1D02632CEE01752AC501B028C3
:100F5000A001102781018F2564012B244B01E02281
:100F60003401AC211F018D200D01801FFC00841E67
:100F7000ED00971DDF00B81CD200E61BC600201B49
:100F8000BC00641AB200B219A8000A19A0006A18BD
:100F90009900D117910040178B00B51684003116C7
:100FA0007E00B31579003A157300C7146F0058140A
:100FB0006A00EE1366008813630025135E00C712F3
:100FC0005B006C12570015125400C11151007011D2
:100FD0004F0021114B00D61049008D1047004610DC
:100FE000440002104200C00F4000800F3E00420F3C
:100FF0003C00060F3B00CB0E3800930E37005C0E12
:101000003500270E3400F30D3200C10D3100900D74
:101010003000600D2E00320D2D00050D2C00D90C76
:101020002B00AE0C2900850C29005C0C2700350C28
:1010300027000E0C2600E80B2400C40B2400A00B94
:1010400023007D0B23005A0B2100390B2100180BC4
:101050002000F80A1F00D90A1E00BB0A1E009D0AC4
:101060001D00800A1D00630A1C00470A1B002C0A91
:101070001B00110A1A00F7091A00DD091900C4093A
:101080001900AB091900920917007B0918006309C0
:1010900017004C09160036091600200916000A0927
:1010A0001500F5081500E0081400CC081400B80875
:1010B0001400A4081400900813007D0812006B08A7
:1010C00013005808120046081200340811002308C3
:1010D00011001208110001081100F0071000E007CC
:1010E0001000D0071000C0071000B0070F00A107C4
:1010F000100091070E0083070F0074070F006507AB
:101100000E0057070E0049070E003B070D002E0783
:101110000E0020070D0013070D0006070D00F9064D
:101120000C00ED060D00E0060C00D4060C00C8060D
:101130000C00BC060C00B0060C00A4060B009906BF
:101140000C008D060B0082060B0077060B006C0668
:101150000B0061060A0057060B004C060A00420607
:101160000A0038060A002E060A0024060A001A069B
:101170000A001006090007060A00FD050900F4052B
:101180000900EB050900E2050900D9050900D005B1
:101190000900C7050900BE050900B5050800AD0531
:1011A0000800A50509009C050800940508008C05A9
:1011B0000800840508007C050800740508006C051B
:1011C0000700650508005D050700560508004E0587
:1011D00007004705070040050800380507003105EE
:1011E00007002A050700230507001C050600160551
:1011F00007000F0507000805060002050700FB04AD
:101200000600F5040700EE040600E8040600E20408
:101210000700DB040600D5040600CF040600C9045D
:101220000600C3040600BD040600B7040600B104AE
:101230000500AC040600A6040600A00405009B04FB
:10124000060095040500900406008A040500850444
:101250000500800406007A0405007504050070048A
:1012600005006B04050066040500610405005C04CC
:10127000050057040500520405004D04050048040C
:101280000500430405003E0404003A04050035044B
:101290000500300404002C04050027040400230486
:1012A00005001E0404001A040400160405001104BD
:1012B00004000D04040009040500040404000004F3
:1012C0000400FC030400F8030400F4030400F0032A
:1012D0000400EC030400E8030400E4030400E0035A
:1012E0000400DC030400D8030400D4030400D0038A
:1012F0000400CC030400C8030300C503030024F466
:1013000004D9201BC40C5C0E9804C4095F02650755
:101310007101F405F900FB04B30048048700C10320
:1013200069005803550003034500BE023A008402D9
:10133000310053022A002902250004022000E401A2
:101340001C00C8011900AF011700980114008401A6
:101350001300710110006101100051010E004301E2
:101360000D0036010B002B010B0020010B001501B5
:1013700009000C01090003010800FB000800F3004C
:101380000800EB000700E4000600DE000600D800BD
:101390000600D2000600CC000500C7000500C20010
:1013A0000500BD000400B9000400B5000400B10050
:1013B0000400AD000400A9000400A5000300A20081
:1013C00003009F0004009B000300980003009500A9
:1013D000020093000300900003008D0002008B00C8
:1013E00003008800020086000200840003008100E0
:1013F00002007F0002007D0002007B0002007900F5
:101400000200770001007600020074000200720002
:101410000100710002006F0002006D0001006C000D
:1014200002006A0001006900020067000100660016
:10143000010065000100640002006200010061001B
:101440000100600001005F0002005D0001005C001F
:1014500001005B0001005A00010059000100580022
:101460000100570001005600010055000100540022
:101470000100530000005300010052000100510020
:101480000100500001004F0001004E0000004E001E
:1014900001004D0001004C0001004B0000004B001A
:1014A00001004A0001004900010048000000480016
:1014B0000100470001004600000046000100450011
:1014C000000045000100440001004300000043000B
:1014D0000100420000004200010041000000410004
:1014E0000100400001003F0000003F0001003E00FD
:1014F00000003E0001003D0000003D0001003C00F6
:1015000000003C0000003C0001003B0000003B00EC
:1015100001003A0000003A000100390000003900E3
:1015200001003800000038000000380001003700DA
:1015300000003700010036000000360000003600D1
:1015400001003500000035000000350001003400C6
:1015500000003400000034000100330000003300BC
:1015600000003300010032000000320000003200B1
:1015700001003100000031000000310001003000A6
:10158000000030000000300001002F0000002F009C
:1015900000002F0000002F0001002E0000002E0090
:1015A00000002E0001002D0000002D0000002D0085
:1015B00000002D0001002C0000002C0000002C0079
:1015C00000002C0001002B0000002B0000002B006D
:1015D00000002B0001002A0000002A0000002A0061
:1015E00000002A0001002900000029000000290055
:1015F0000000290000002900010028000000280048
:10160000000028000000280000002800010027003A
:10161000000027000000270000002700000027002E
:101620000100260000002600000026000000260021
:101630000000260001002500000025000000250014
:101640000000250000002500000025000100240006
:1016500000002400000024000000240000002400FA
:1016600001002300000023000000230000002300ED
:1016700000002300000023000000230001002200DE
:1016800000002200000022000000220000002200D2
:1016900000002200010021000000210000002100C4
:1016A00000002100000021000000210000002100B6
:1016B00001002000000020000000200000002000A9
:1016C000000020000000200000002000000020009A
:1016D00001001F0000001F0000001F0000001F008D
:1016E00000001F0000001F0000001F0001001E007E
:1016F00000001E0000001E0000001E0000006563C8
:10170000686F3A00504944204175746F74756E6576
:101710002066696E69736865642100504944204100
:1017200075746F74756E65206661696C65642120DF
:1017300074696D656F75740020403A006F6B2054BA
:101740003A006F6B20423A00504944204175746F53
:1017500074756E65206661696C6564212054656DE1
:10176000706572617475726520746F6F2068696747
:101770006800204B643A2000204B693A2000204B3F
:10178000703A200020436C617373696320504944B0
:1017900020002054753A2000204B753A2000206D1F
:1017A00061783A2000206D696E3A200020643A206A
:1017B0000020626961733A200050494420417574E9
:1017C0006F74756E652066696E6973686564212043
:1017D00050757420746865206C617374204B702C94
:1017E000204B6920616E64204B6420636F6E7374BC
:1017F000616E74732066726F6D2061626F76652012
:10180000696E746F20436F6E666967757261746983
:101810006F6E2E6800504944204175746F74756E68
:1018200065206661696C6564212074696D656F75FA
:10183000740020403A006F6B20543A006F6B2042D6
:101840003A00504944204175746F74756E65206686
:1018500061696C6564212054656D70657261747591
:10186000726520746F6F206869676800204B643A66
:101870002000204B693A2000204B703A2000204382
:101880006C61737369632050494420002054753A99
:101890002000204B753A2000206D61783A2000200E
:1018A0006D696E3A200020643A20002062696173FD
:1018B0003A200070012C0190012701B0012201C0E3
:1018C000011D01F00118011002130130020E016028
:1018D00002090190020401C002FF000003FA004067
:1018E00003F5008003F000D003EB002004E6007055
:1018F00004E100E004DC004005D700C005D2004050
:1019000006CD00D006C8008007C3003008BE00F036
:1019100008B900C009B400B00AAF00B00BAA00D0EB
:101920000CA500000EA000500F9B00C010960050A8
:1019300012910000148C00C0158700B0178200B00F
:10194000197D00D01B7800001E730040206E0090AF
:10195000226900F024640040275F0090295A00E0CB
:101960002B5500102E500020304B0010324600E066
:1019700033410090353C001037370070383200A0FA
:10198000392D00B03A2800A03B2300603C1E001017
:101990003D1900903D1400103E0F00703E0A00C03B
:1019A0003E0500003F000000000A0B02090C0D0E6E
:1019B0000807030401000000000000000000000010
:1019C0000000000000000000000000000000000017
:1019D00000000012111000000000000000000000D4
:1019E00000000000000000000000000000010210E4
:1019F0002020080810204010204080020102010829
:101A000004020101020408102040808040201008D8
:101A10000402018004020180402010080402010831
:101A20000402010102040810204080010204081091
:101A30002040800505050507050808080802020280
:101A4000020A0A0808040404040101010101010159
:101A5000010303030303030303040707070C0C0C30
:101A60000C0C0C0C0C020202020606060606060608
:101A7000060B0B0B0B0B0B0B0B000020002300269F
:101A80000029002C002F0032000001000003010695
:101A900001090100002200250028002B002E003142
:101AA00000340002010000050108010B01000021C3
:101AB00000240027002A002D00300033000101001F
:101AC00000040107010A014E414E494E495459494B
:101AD0004E46CDCCCC3D0AD7233C17B7D13877CC76
:101AE0002B329595E6241FB14F0A000020410000DB
:101AF000C84200401C4620BCBE4CCA1B0E5AAEC594
:101B00009D746364696E6F70737578585B00550ED1
:101B1000002ED90033010301DB0011241FBECFEFDB
:101B2000D1E2DEBFCDBF00E00CBF1CE0A0E0B2E020
:101B3000E4E2F7E003E00BBF02C007900D92A03A89
:101B4000B107D9F72EE1A0EABCE001C01D92AF3386
:101B5000B207E1F71BE1C8E1DBE100E006C0229734
:101B60000109FE010BBF0F94CE77CE30D10780E084
:101B70000807A9F70F94106F0D9480830C94000050
:101B80008091CF0C90E02091D00C821B9109089598
:101B90002091D00C8091CF0C281750F4E22FF0E068
:101BA000EF52F34F808190E02F5F2093D00C089587
:101BB0008FEF9FEF0895E091D00C8091CF0CE81744
:101BC00030F4F0E0EF52F34F808190E008958FEF12
:101BD0009FEF08950895CF92DF92EF92FF920F93B7
:101BE0001F93CF93DF937C01CB018A012091AC0C32
:101BF000222389F0EB016B01C40ED51ECC15DD0547
:101C000061F06991D701ED91FC910190F081E02D97
:101C1000C7011995F3CF642F4BD0C801DF91CF9145
:101C20001F910F91FF90EF90DF90CF900895CF9389
:101C3000DF931F92CDB7DEB769832091AC0C2223CE
:101C4000D1F02091AD0C203240F021E030E0FC01D9
:101C50003383228380E090E014C08091AE0CE82FA3
:101C6000F0E0E155F34F998190838F5F8093AE0C44
:101C70008093AD0C04C061E0CE01019619D081E0E3
:101C800090E00F90DF91CF910895FC0113821282B2
:101C900048EE53E060E070E04483558366837783C9
:101CA0008EE393E091838083089580EA9CE0EDCFFA
:101CB000613298F420915E0D243089F46093130D05
:101CC000FC0185E19DE0DC012A2F281B261718F472
:101CD00021912D93F9CF80E0089581E0089582E06D
:101CE000089585ED8093BC008091BC0084FDFCCFFD
:101CF00010925E0D089585EC8093BC0010925E0DED
:101D000008951F920F920FB60F9211240BB60F92E7
:101D10002F933F934F935F936F937F938F939F93F3
:101D2000AF93BF93EF93FF938091B900887F803684
:101D300009F49DC070F5883209F45CC090F48031DC
:101D400009F455C038F4882309F4F3C0883009F445
:101D50004EC0F2C0883109F44DC0803209F45EC033
:101D6000EBC0803409F469C050F4803309F456C0E4
:101D7000883309F0E1C08093F10CBDDFDDC0803510
:101D800009F44FC0883509F45DC0883409F0D4C027
:101D9000D2C0883909F4C3C0A8F4883709F467C0F1
:101DA00038F4883609F463C0803709F460C0C4C0D1
:101DB000883809F4B4C0803909F45FC0803809F06C
:101DC000BBC05BC0803B09F482C038F4803A09F4A0
:101DD00066C0883A09F47BC0AFC0803C09F4A3C058
:101DE000883C09F4A0C0883B09F486C0A5C0809156
:101DF0005D0D10C09091360D8091350D981770F5DE
:101E0000E091360D81E08E0F8093360DF0E0E95CB5
:101E1000F24F80818093BB0085EC82C08093F10CEF
:101E20008AC0E091360D81E08E0F8093360D80914F
:101E3000BB00F0E0E95CF24F80839091360D809119
:101E4000350D6AC0E091360D81E08E0F8093360D1E
:101E50008091BB00F0E0E95CF24F808380915C0DE3
:101E6000811169C081E080935B0D84EA5DC083E0ED
:101E700080935E0D1092F20CCFCF8091F20C8032E5
:101E800008F04DC0E091F20C81E08E0F8093F20CCF
:101E90008091BB00F0E0ED50F34F8083BDCF2BDF8E
:101EA0008091F20C803230F4E091F20CF0E0ED50D1
:101EB000F34F10826091F20C70E0E091570DF091B9
:101EC000580D83EF9CE019951092F20C35C084E018
:101ED00080935E0D1092140D1092130DE091590D28
:101EE000F0915A0D19958091130D811105C081E073
:101EF0008093130D1092150DE091140D81E08E0F5B
:101F00008093140DF0E0EB5EF24F80818093BB0074
:101F10009091140D8091130D981708F47DCF85E8EA
:101F20008093BC0009C085EC8093BC0010925E0DCC
:101F300003C01092F10CD5DEFF91EF91BF91AF91EC
:101F40009F918F917F916F915F914F913F912F91D1
:101F50000F900BBE0F900FBE0F901F901895DC01D5
:101F6000ED91FC910190F081E02D1994FC01148217
:101F700017821382128286E29CE091838083089507
:101F800026E23CE0FC01318320832781222319F0E3
:101F900004960D947C400895CF92DF92EF92FF92C9
:101FA0000F931F93CF93DF93EC01895A9F4FDEDF8E
:101FB000CE0188589F4FDADF7E0127E9E20EF11C3F
:101FC00087016E0133E3C31A3EEFD30AC801CEDFA7
:101FD000015E1F4F0C151D05C9F7FE01E153FE4FB1
:101FE00089E1818314823596178ACE018E509E4FE7
:101FF000BDDFFE01ED55FD4F10821182128213826A
:10200000389610821182128213821A821B821C82DD
:10201000188219826E0189E5C81A8DEFD80AF60177
:102020001082118212821382F80111821082FE0145
:10203000EF5EFD4F108286E391E0F7019C01119263
:1020400021503040E1F7FE01E155FD4F81E08083F2
:10205000CB5ADF4F198218820F94D36968577C4E90
:102060008F4F9F4FF6016083718382839383DF914B
:10207000CF911F910F91FF90EF90DF90CF90089537
:10208000FC0120E03EE2DB014C91403241F028307F
:1020900011F430833196DB014C91408331962F5FF0
:1020A0006F5F7F4F2B3079F7108208952F923F9208
:1020B0004F925F926F927F928F929F92AF92BF9258
:1020C000CF92DF92EF92FF920F931F93CF93DF9304
:1020D000CDB7DEB7C858D1090FB6F894DEBF0FBE32
:1020E000CDBF8C016B017A01CA57DF4F1882C658E9
:1020F000D04084E0E80EF11C180192E1290E311C59
:10210000F801EC5AFF4FC957DF4FF983E883C758EE
:10211000D0405801F0E5AF1AFDEFBF0A38018EE458
:10212000681A8DEF780A80E4482E512C4C0E5D1E03
:1021300094E0490E511CA101BE016F5F7F4FC701A2
:102140000F94E63E18160CF009C12C85322F387119
:10215000303109F091C0F50180819181019702979A
:1021600008F48AC0BE016F5F7F4FCE0187589F4F32
:1021700087DFA0961FAEA097F6018081811107C06E
:102180006AE473E0CE01815A9F4F0F94F87CB60148
:10219000CE01815A9F4F0F94F87CBE0167587F4F44
:1021A000CE01815A9F4F0F94F87C6AE473E0CE0110
:1021B000815A9F4F0F94F87CCE01805C9F4FD6DEF2
:1021C00021E0AE0147585F4FB701C2010F9473423F
:1021D00081112EC0F50180819181892B49F5E4E7B9
:1021E000F4E064914F01662361F0772767FD7095F5
:1021F0008FEF9CE1B4DEFFEF8F1A9F0AF401649128
:10220000F2CF6CE473E08FEF9CE10F945A6F6AE0B9
:1022100070E08FEF9CE1A3DEBE0167587F4F8FEF28
:102220009CE10F945A6F6AE070E08FEF9CE197DEBB
:102230008BE1FE01EC5BFF4FDE01959601900D9264
:102240008A95E1F724968EAD9FAD24979CA38BA32E
:1022500086E29CE09AA389A3AE014F5D5F4FBE0169
:10226000615A7F4FC80122DFCE01819689DECE01FF
:10227000805C9F4F85DE5FCF8981882309F46EC023
:10228000853E09F458CF8E3209F455CF8F3509F4C5
:1022900052CFF8018289882331F08E3209F44BCF76
:1022A0008F3509F448CF23FD46CF81E0303109F066
:1022B00080E0C957DF4FE881F981C758D04080835B
:1022C000811108C08985873409F035CF8A858E371A
:1022D00009F431CF4801F5E08F0E911CBE016F5F0C
:1022E0007F4FC401CDDEF50180819181009781F49B
:1022F000B6018FEF9CE10F945A6FB4018FEF9CE110
:102300000F945A6F6AE070E08FEF9CE128DE13CFE4
:102310008130910539F4F301808191810196918397
:10232000808309CF029709F006CFCA57DF4FF881A3
:10233000C658D0402F2F30E0F301808191812817BB
:10234000390761F0CA57DF4FF881C658D040FF5FA8
:10235000CA57DF4FF883C658D040EDCEC857DF4F7D
:102360000FB6F894DEBF0FBECDBFDF91CF911F91A6
:102370000F91FF90EF90DF90CF90BF90AF909F9024
:102380008F907F906F905F904F903F902F90089527
:102390000F931F93CF93DF93CDB7DEB76F970FB631
:1023A000F894DEBF0FBECDBF8C01FC01E055FD4FA0
:1023B0001182108240E050E0BA01855A9F4F0F947D
:1023C000993FC801895A9F4F2BE1FC013496DE01E9
:1023D000159601900D922A95E1F7FC018281938177
:1023E0009C838B8386E29CE09A838983AE014F5F56
:1023F0005F4F63E97CE0C80159DECE010196C0DD84
:102400006F960FB6F894DEBF0FBECDBFDF91CF91B0
:102410001F910F9108952BE1FB013496DC01149676
:1024200001900D922A95E1F7FB0122813381FC0195
:10243000338322830895EF92FF920F931F93CF93DC
:10244000DF93EC011C82FC01E25AFF4F808188235C
:1024500029F0CE01855A9F4F0F947C407E0181E385
:10246000E81A8EEFF80A45E360E0C7010F94FD3AE1
:1024700081113AC0E4E7F4E064918F01662359F0DA
:10248000772767FD70958FEF9CE169DD0F5F1F4F28
:10249000F8016491F3CFE7E6F4E064918F016623DD
:1024A00059F0772767FD70958FEF9CE158DD0F5F3E
:1024B0001F4FF8016491F3CF6AE070E08FEF9CE169
:1024C0004EDD8E01095A1F4FB801CE0188589F4F2B
:1024D000A2DFCA58DF4F19830883DF91CF911F9184
:1024E0000F91FF90EF9008958E010C521E4F41E026
:1024F000B701C8010F94664881112AC040E0B701B6
:10250000C8010F946648811123C0EAE7F4E06491A2
:102510008F01662359F0772767FD70958FEF9CE157
:102520001EDD0F5F1F4FF8016491F3CFE4E5F4E087
:1025300064918F01662309F4BFCF772767FD7095FB
:102540008FEF9CE10CDD0F5F1F4FF8016491F2CF1C
:10255000B801CE01855A9F4F0F948A3D811123C047
:10256000EAE7F4E064918F01662359F0772767FD6D
:1025700070958FEF9CE1F3DC0F5F1F4FF8016491C2
:10258000F3CFE4E4F4E064918F01662309F494CF7F
:10259000772767FD70958FEF9CE1E1DC0F5F1F4FA0
:1025A000F8016491F2CF81E08C83E4E7F4E0649178
:1025B0008F01662359F0772767FD70958FEF9CE1B7
:1025C000CEDC0F5F1F4FF8016491F3CFE9E3F4E035
:1025D00064918F01662309F46FCF772767FD7095AB
:1025E0008FEF9CE1BCDC0F5F1F4FF8016491F2CFCD
:1025F000FC01128214820895CF93DF93EC018C8149
:102600008823B9F06FE573E08FEF9CE10F945A6F68
:1026100040912F1050913010609131107091321014
:1026200022E030E08FEF9CE10F94447181E08A83D7
:102630001B82DF91CF910895FC018281882319F0DC
:10264000128281E083830895AF92BF92CF92DF928E
:10265000EF92FF920F931F93CF93DF931F92CDB70B
:10266000DEB78C018FE2FB0181935F01D12C41E049
:102670007801F3E3EF1AFEEFFF0A9FE1C92E2D2D3B
:1026800030E0F7018081918128173907D8F4C29E84
:10269000C001C39E900D112485569F4FB501800F38
:1026A000911F49830F94313DC50149815C01019619
:1026B000F5012081222321F04D3810F44F5FF6CF31
:1026C000D394DDCF47FD11C0B501C8018A509E4F9C
:1026D0000F90DF91CF911F910F91FF90EF90DF90BE
:1026E000CF90BF90AF900D94313DF50110820F90C7
:1026F000DF91CF911F910F91FF90EF90DF90CF90DE
:10270000BF90AF9008953F924F925F926F927F92E9
:102710008F929F92AF92BF92CF92DF92EF92FF92F1
:102720000F931F93CF93DF93CDB7DEB7AC970FB660
:10273000F894DEBF0FBECDBF8C016B01342EFC01BF
:102740008481882309F4D0C2E750FE4F808188231A
:1027500009F407C12111D1C07801FFEEEF1AFDEF96
:10276000FF0AF7018081882309F432C0EAE7F4E028
:1027700064918F01662359F0772767FD70958FEF7D
:102780009CE1EDDB0F5F1F4FF8016491F3CFE6EFA3
:10279000F3E064918F01662359F0772767FD709508
:1027A0008FEF9CE1DCDB0F5F1F4FF8016491F3CFEB
:1027B0004AE050E061E070E08FEF9CE10F94097017
:1027C0006AE070E08FEF9CE1CADB0E94B0948CC29B
:1027D000E4E7F4E064915F01662361F0772767FD29
:1027E00070958FEF9CE1BBDBFFEFAF1ABF0AF501DD
:1027F0006491F2CFEDEDF3E064915F01662361F047
:10280000772767FD70958FEF9CE1A9DBFFEFAF1A8B
:10281000BF0AF5016491F2CFB6018FEF9CE10F94EE
:102820005A6FE2EDF3E064915F01662361F0772770
:1028300067FD70958FEF9CE192DBFFEFAF1ABF0A47
:10284000F5016491F2CFF70180812DE8B22EB80135
:10285000B89E600D711D11246A5E7D4FC801F4DEC3
:10286000F7018081B801B89E600D711D11246A5E68
:102870007D4F8FEF9CE10F945A6FECECF3E0649185
:102880005F01662361F0772767FD70958FEF9CE10C
:1028900066DBFFEFAF1ABF0AF5016491F2CF580172
:1028A000F5E5AF1AFDEFBF0AF50140815181628164
:1028B00073812AE030E08FEF9CE10F9436706AE07C
:1028C00070E08FEF9CE14BDBF7012081F80184E0A1
:1028D000289FE00DF11D1124AF014E5E5D4FF50103
:1028E00080819181A281B381FA0180839183A28347
:1028F000B3832F5FF70120832EC0E4E7F4E06491F7
:102900007F01662361F0772767FD70958FEF9CE16B
:1029100026DBFFEFEF1AFF0AF7016491F2CFEBEB32
:10292000F3E064917F01662361F0772767FD70957E
:102930008FEF9CE114DBFFEFEF1AFF0AF7016491C0
:10294000F2CFB6018FEF9CE10F945A6F6AE070E00E
:102950008FEF9CE104DBC8018A509E4F0F947C40AE
:1029600032C0F801EF5EFD4F1082E4E7F4E06491BD
:102970007F01662361F0772767FD70958FEF9CE1FB
:10298000EEDAFFEFEF1AFF0AF7016491F2CFEAEAFD
:10299000F3E064917F01662361F0772767FD70950E
:1029A0008FEF9CE1DCDAFFEFEF1AFF0AF701649189
:1029B000F2CFB6018FEF9CE10F945A6F6AE070E09E
:1029C0008FEF9CE1CCDAF8011282CE0101965C0116
:1029D000CDDA280196E7490E511CC801895A9F4F4C
:1029E000F20191838083F60180818F3209F07BC0F0
:1029F0006FE270E0C6010F94037D01967C01E11443
:102A0000F10409F476C06FE270E0C7010F94037D12
:102A10004C01009709F46EC0E816F90608F06AC088
:102A20003C016E187F08A301B701CE0180960F9478
:102A30002C7DE0E2F0E0EC0FFD1FE60DF71D1082AB
:102A4000BE01605E7F4F8FEF9CE10F945A6F6AE08A
:102A500070E08FEF9CE183DAF20160817181611592
:102A6000710519F06C5F7F4F02C060E070E021E0FB
:102A7000AE01405E5F4FCE0105960F947342811107
:102A80002AC0E6E9F3E064918F01662359F07727C5
:102A900067FD70958FEF9CE162DA0F5F1F4FF801C1
:102AA0006491F3CFBE01605E7F4F8FEF9CE10F9486
:102AB0005A6FE4E9F3E064918F01662309F40DC1D4
:102AC000772767FD70958FEF9CE149DA0F5F1F4F05
:102AD000F8016491F2CFF201B182A0827401FFEF9C
:102AE000EF1AFF0A8CCFC80188589F4FF2019183DB
:102AF00080837601C8018A509E4F4C01F2016081AB
:102B00007181332009F49AC06115710519F06C5F69
:102B10007F4F02C060E070E021E0A701C4010F9484
:102B20007342882309F462C0F40181899289A389E0
:102B3000B489F801ED55FD4F80839183A283B3835F
:102B4000E6E8F3E064914F01C8018D559D4F6C019B
:102B5000662361F0772767FD70958FEF9CE1FFD9C1
:102B60009FEF891A990AF4016491F2CFB7018FEFB0
:102B70009CE10F945A6FEEE7F3E064917F016623C6
:102B800061F0772767FD70958FEF9CE1E8D9FFEF43
:102B9000EF1AFF0AF7016491F2CFF60140815181EB
:102BA000628173812AE030E08FEF9CE10F943670F0
:102BB0006AE070E08FEF9CE1D2D9F801E555FD4F56
:102BC0001082118212821382E0E7F3E064918F0198
:102BD000662309F482C0772767FD70958FEF9CE12B
:102BE000BED90F5F1F4FF8016491F2CFECE5F3E01F
:102BF00064918F01662359F0772767FD70958FEFF9
:102C00009CE1ADD90F5F1F4FF8016491F3CFB7017D
:102C10008FEF9CE10F945A6FEAE5F3E064918F0126
:102C2000662309F45AC0772767FD70958FEF9CE102
:102C300096D90F5F1F4FF8016491F2CF61157105AE
:102C400019F06C5F7F4F02C060E070E026E5A701DD
:102C5000C4010F947342811127C0E6E4F3E064914C
:102C60008F01662359F0772767FD70958FEF9CE100
:102C700076D90F5F1F4FF8016491F3CFB7018FEF43
:102C80009CE10F945A6FE4E4F3E064918F016623B2
:102C900021F1772767FD70958FEF9CE160D90F5F79
:102CA0001F4FF8016491F3CF81E0F8018083E2E3E4
:102CB000F3E064918F01662359F0772767FD7095E3
:102CC0008FEF9CE14CD90F5F1F4FF8016491F3CF58
:102CD000B6018FEF9CE10F945A6F6AE070E08FEFBE
:102CE0009CE13DD9C5014CD9AC960FB6F894DEBF36
:102CF0000FBECDBFDF91CF911F910F91FF90EF904D
:102D0000DF90CF90BF90AF909F908F907F906F900B
:102D10005F904F903F90089521E0FC01218340E0B7
:102D2000F2CC4F925F926F927F928F929F92AF926E
:102D3000BF92CF92DF92EF92FF920F931F93CF93A8
:102D4000DF93CDB7DEB7AC970FB6F894DEBF0FBEFA
:102D5000CDBF7C015B01FC018481882309F4F9C0AB
:102D6000C7018A509E4F0F947C40F7011282CE011A
:102D700001966C01FBD8270196E7490E511CC7014B
:102D8000895A9F4FF20191838083F50180818F32B0
:102D900009F077C06FE270E0C5010F94037D8C01EC
:102DA0000F5F1F4F09F473C06FE270E0C8010F940A
:102DB000037D4C01009709F46BC00817190708F050
:102DC00067C03C01601A710AA301B801CE01809668
:102DD0000F942C7DE0E2F0E0EC0FFD1FE60DF71DF7
:102DE0001082BE01605E7F4F8FEF9CE10F945A6F9F
:102DF0006AE070E08FEF9CE1B2D8F20160817181EE
:102E00006115710519F06C5F7F4F02C060E070E0E2
:102E100021E0AE01405E5F4FCE0105960F947342F4
:102E200081112AC0EEE1F3E064918F01662359F02D
:102E3000772767FD70958FEF9CE191D80F5F1F4F4B
:102E4000F8016491F3CFBE01605E7F4F8FEF9CE18C
:102E50000F945A6FECE1F3E064918F01662309F45B
:102E600071C0772767FD70958FEF9CE178D80F5F71
:102E70001F4FF8016491F2CFF201D182C082840128
:102E80008FCFC70188589F4FF201918380838501BE
:102E9000F20180819181009711F0049602C080E0D8
:102EA00090E0B8010F944943882321F1EEE0F3E06C
:102EB00064915F01662361F0772767FD70958FEF5E
:102EC0009CE14DD8FFEFAF1ABF0AF5016491F2CF34
:102ED000B8018FEF9CE10F945A6F6AE070E08FEFBA
:102EE0009CE13DD8F701E555FD4F10821182128219
:102EF00013822DC0E6EFF2E064917F01662361F05A
:102F0000772767FD70958FEF9CE129D8FFEFEF1AC7
:102F1000FF0AF7016491F2CFB8018FEF9CE10F94A3
:102F20005A6FE4EFF2E064918F01662359F077273E
:102F300067FD70958FEF9CE112D80F5F1F4FF8016E
:102F40006491F3CF6AE070E08FEF9CE108D8C6018E
:102F500017D8AC960FB6F894DEBF0FBECDBFDF9189
:102F6000CF911F910F91FF90EF90DF90CF90BF9086
:102F7000AF909F908F907F906F905F904F9008954B
:102F80000F931F93CF93DF93EC018C81882309F477
:102F90003EC0E2EEF2E064918F01662361F0772794
:102FA00067FD70958FEF9CE10E94AF0F0F5F1F4F81
:102FB000F8016491F2CFFE01E555FD4F408151814A
:102FC000628173812AE030E08FEF9CE10F943670CC
:102FD000E0EEF2E064918F01662361F0772767FDF0
:102FE00070958FEF9CE10E94AF0F0F5F1F4FF801AC
:102FF0006491F2CFCD55DD4F488159816A817B8143
:103000002AE030E08FEF9CE10F94367011C0E0EDC4
:10301000F2E06491EF01662359F0772767FD709520
:103020008FEF9CE10E94AF0F2196FE016491F3CFD8
:103030006AE070E08FEF9CE1DF91CF911F910F91DB
:103040000C94AF0FAF92BF92CF92DF92EF92FF92AC
:103050000F931F93CF93DF935C01EB01FB01019072
:103060000020E9F78F0101501109061B170B6C01B5
:10307000FAE0CF1AFEEFDF0AF60110826EE470E08C
:10308000CE010F94037D7C01009729F4F80131975C
:10309000EC0FFD1F0DC060E270E00F94037DEC01AA
:1030A00021966AE270E0C7010F94037DFC0131971D
:1030B0008DE081838AE082831382BE01C5018E5038
:1030C0009E4F0F940F45F6018081882391F1EAE726
:1030D000F4E06491EF01662359F0772767FD70955E
:1030E0008FEF9CE10E94AF0F2196FE016491F3CF18
:1030F000EAEBF2E06491EF01662359F0772767FD70
:1031000070958FEF9CE10E94AF0F2196FE016491B4
:10311000F3CF6AE070E08FEF9CE1DF91CF911F91D8
:103120000F91FF90EF90DF90CF90BF90AF900C94F5
:10313000AF0FDF91CF911F910F91FF90EF90DF9034
:10314000CF90BF90AF9008952F923F924F925F9291
:103150006F927F928F929F92AF92BF92CF92DF92A7
:10316000EF92FF920F931F93CF93DF93CDB7DEB70C
:10317000CC55D1090FB6F894DEBF0FBECDBF4C01C0
:103180008C0101551D4F662339F0F8011082F401BE
:10319000848181111DC015C0F8018081882309F444
:1031A000AFC0F401E955FD4FC080D180E280F380CB
:1031B0000F94D369C616D706E806F90608F4A0C02E
:1031C000E4CFC40138D9F4018481882309F498C07C
:1031D0007401F5E5EF0EF11CF70181818F93808179
:1031E0008F9381EB92E09F938F938E01015C1F4F31
:1031F0001F930F930F94697D0F900F900F900F9076
:103200000F900F90B12CF80101900020E9F7319751
:10321000E01BF10BBE1684F46801CB0CD11CB7FC8B
:10322000DA94F6018081992787FD90950F94A17C0F
:10323000F6018083B394E7CFFBE58F0E911C40E04D
:1032400050E0BA01C4010F94993F512CCE01019670
:103250006C013AEA632E32E0732E5E0191E2A90E10
:10326000B11C40E050E0B601C4010F94E63E1816D0
:10327000DCF5412CF60101900020E9F73197EC19BB
:10328000FD094E1674F41601240C311C47FC3A94C7
:10329000F101808190E00F94A17CF101808343943F
:1032A000E9CF8A858E37E9F245E050E0B801C601E2
:1032B0000F941E7D892BA9F61F930F937F926F9217
:1032C000BF92AF920F94697DC5010E943A3386EA9E
:1032D00092E00E94B6330F900F900F900F900F90D6
:1032E0000F9055245394BDCF511004C08FEF9FEF22
:1032F000F70104C0F7018081918101969183808359
:10330000C45ADF4F0FB6F894DEBF0FBECDBFDF91BA
:10331000CF911F910F91FF90EF90DF90CF90BF90D2
:10332000AF909F908F907F906F905F904F903F9065
:103330002F9008950F931F93CF93DF93EC018C018F
:103340000A501E4FC8010F943240C8010F947C40B0
:1033500018821982DF91CF911F910F910895EF92FA
:10336000FF920F931F93CF93DF93CDB7DEB76F9785
:103370000FB6F894DEBF0FBECDBF8C017C0186E78F
:10338000E80EF11CC80188589F4FF7019183808394
:10339000E65CFD4F22E030E031832083329670E01E
:1033A0007183608340E050E0BA0104960F94993F26
:1033B000F701808191812BE1FC013496DE011596A5
:1033C00001900D922A95E1F7FC01828193819C8303
:1033D0008B8386E29CE09A838983AE014F5F5F4FC7
:1033E00063E97CE0C8010E945610CE0101960E945C
:1033F000C00F6F960FB6F894DEBF0FBECDBFDF9142
:10340000CF911F910F91FF90EF900895CF92DF928F
:10341000EF92FF920F931F93CF93DF93CDB7DEB759
:103420006F970FB6F894DEBF0FBECDBF8C016C0155
:1034300026E7C20ED11C88589F4FF60191838083E6
:10344000E65CFD4F21E030E0318320837801FEE42B
:10345000EF1AFDEFFF0AF7011182108240E050E001
:10346000BA0104960F94993FF601808191812BE176
:10347000FC013496DE01159601900D922A95E1F734
:10348000FC01828193819C838B8386E29CE09A83FA
:103490008983AE014F5F5F4F63E97CE0C8010E9402
:1034A0005610CE0101960E94C00FF70180819181D4
:1034B0006F960FB6F894DEBF0FBECDBFDF91CF91F0
:1034C0001F910F91FF90EF90DF90CF900895AF92F2
:1034D000BF92CF92DF92EF92FF920F931F93CF9301
:1034E000DF93CDB7DEB76F970FB6F894DEBF0FBE90
:1034F000CDBF8C017B01CE0101960E94B60FF80171
:10350000E158FF4F80816801811104C027E5C20E98
:10351000D11C03C088E7C80ED11C21E0A701B60169
:103520006C5F7F4FCE0105960F947342811136C0B8
:10353000E4E7F4E064918F01662361F0772767FD8B
:1035400070958FEF9CE10E94AF0F0F5F1F4FF80146
:103550006491F2CFE0E9F2E064918F01662361F0BB
:10356000772767FD70958FEF9CE10E94AF0F0F5F8B
:103570001F4FF8016491F2CFB7018FEF9CE10F94D8
:103580005A6F6AE070E08FEF9CE10E94AF0FCE01AE
:1035900001960E94C00F8FEF9FEF3AC0F801E353EE
:1035A000FE4F808191818A30910530F59C012F5F1B
:1035B0003F4F318320832FE1289F7001299FF00C1A
:1035C0001124F7E9EF0EF11CE00EF11E5C01B701CA
:1035D000C7014F960E940B1221E0A21AB1088FE199
:1035E000E81AF108EFEFAE16BE0689F7B601C8017A
:1035F00089569F4F0E940B12BE016F5F7F4FC8011B
:1036000088589F4F0E940B12CE0101960E94C00F56
:103610006F960FB6F894DEBF0FBECDBFDF91CF918E
:103620001F910F91FF90EF90DF90CF90BF90AF90E0
:103630000895EF92FF920F931F93CF93DF93EC01C6
:10364000C353DE4F288139812115310529F12150DD
:103650003109398328838C0109561F4FB8018858D6
:103660009F4F0E940B12C80100E010E028813981B1
:103670007C014FE1E40EF11C0217130738F40F5FD1
:103680001F4FB7010E940B12C701F0CF81E090E0FD
:10369000232B21F080E002C08FEF9FEFDF91CF91CD
:1036A0001F910F91FF90EF900895EF92FF920F936B
:1036B0001F93CF93DF93EC01109275108091FE0F52
:1036C0009091FF0F01969093FF0F8093FE0FFED015
:1036D0008BE892E00E94B6330F94E4518E010F5EA6
:1036E0001D4FF80180819E012A503E4F79018823A9
:1036F000A9F1C9010F947C40F80180818150808339
:10370000BE01FDE88F9F600D711D11246A5E7D4F23
:1037100021E041E0CE010E948313F8018081FE0187
:1037200024E0829FE00DF11D1124EE5EFD4F4081EB
:10373000518162817381FE01E555FD4F40835183C4
:1037400062837383C7010F94993FCE01DF91CF91BC
:103750001F910F91FF90EF900C94FC120F947452F4
:10376000C7010F947C401A8221E030E045E050E030
:103770006AE070E088ED93E10E94792B80E090E0B0
:103780000E94477D0F94E45186E892E00E94B63390
:103790000F94E4511092F31C1092F21C1092F51C3D
:1037A0001092F41C1092F11C1092F01C1092C51093
:1037B0001092C4101092C3108AE792E00E94B633B0
:1037C00080917F198823F9F010927F19C091F70F2B
:1037D000D0E0CC0FDD1FCE50D34E68817981882791
:1037E00077FD8095982F0F94647320919E023091FD
:1037F0009F024091A0025091A1020F94C574181627
:1038000014F419821882DF91CF911F910F91FF90CC
:10381000EF9008958D559D4FFC01608171818281EB
:103820009381089585559D4FFC016081718182814E
:1038300093810895EF92FF920F931F93CF93DF939D
:103840001F92CDB7DEB78C017B01460FF701619166
:103850007F01F8018081918149830F946782F8018B
:103860008081918101969183808349814E11EECFB1
:103870000F90DF91CF911F910F91FF90EF900895DE
:10388000EF92FF920F931F93CF93DF931F92CDB7C9
:10389000DEB78C017B01460FF8018081918149835D
:1038A0000F945F82F70181937F01F80180819181FC
:1038B00001969183808349814E11EECF0F90DF9165
:1038C000CF911F910F91FF90EF9008950F931F9349
:1038D000CF93DF93CDB7DEB768970FB6F894DEBF0E
:1038E0000FBECDBF80E390E3A0E3B0E08D839E8365
:1038F000AF83B88704E610E0188F0F8B44E0BE0159
:103900006B5F7F4FCE01479695DF40E160EE79E136
:10391000CE0147968FDF40E160EF79E1CE01479617
:1039200089DF40E160ED79E1CE01479683DF44E035
:1039300068EC79E1CE0147967DDF44E064EC79E103
:10394000CE01479677DF44E06CEC79E1CE014796F3
:1039500071DF44E064EB79E1CE0147966BDF44E030
:1039600060E07AE1CE01479665DF44E060EC79E102
:10397000CE0147965FDF44E06CEB79E1CE014796DC
:1039800059DF44E068EB79E1CE01479653DF4CE024
:1039900062E470E1CE0147964DDF87ED90E09E8BAB
:1039A0008D8B8DE290E09C8B8B8B1A8A198A80EF2D
:1039B00090E0988B8F8786E490E09E878D871C86A9
:1039C0001B8642E0BE016B5E7F4FCE01479632DF21
:1039D00042E0BE016D5E7F4FCE0147962BDF42E095
:1039E000BE016F5E7F4FCE01479624DF42E0BE01ED
:1039F000615F7F4FCE0147961DDF42E0BE01635FEE
:103A00007F4FCE01479616DF42E0BE01655F7F4FD4
:103A1000CE0147960FDF44E06FE270E1CE0147969A
:103A200009DF44E06BE272E0CE01479603DF44E039
:103A300063E372E0CE014796FDDE44E06BE372E0A3
:103A4000CE014796F7DE42E060EA70E1CE0147968C
:103A5000F1DE42E064EA70E1CE014796EBDE42E03F
:103A600062EA70E1CE014796E5DE42E06EE970E180
:103A7000CE014796DFDE42E060E970E1CE01479675
:103A8000D9DE42E064E970E1CE014796D3DE42E040
:103A900062E970E1CE014796CDDE42E06EE870E16A
:103AA000CE014796C7DE42E068E970E1CE01479655
:103AB000C1DE42E06CE970E1CE014796BBDE42E038
:103AC0006AE970E1CE014796B5DE42E066E970E151
:103AD000CE014796AFDE42E068E870E1CE0147963E
:103AE000A9DE42E06CE870E1CE014796A3DE42E039
:103AF0006AE870E1CE0147969DDE42E066E870E13B
:103B0000CE01479697DE44E06DEF72E0CE01479616
:103B100091DE44E065EF72E0CE0147968BDE44E033
:103B20006DEE72E0CE01479685DE44E061E073E021
:103B3000CE0147967FDE44E069EF72E0CE01479602
:103B400079DE44E061EF72E0CE01479673DE42E039
:103B500062E070E1CE0147966DDE42E06EEF7FE0FD
:103B6000CE01479667DE42E06CEF7FE0CE014796DC
:103B700061DE42E06AEF7FE0CE0147965BDE42E025
:103B800060E070E1CE01479655DE42E068EF7FE0ED
:103B9000CE0147964FDE80E290E09A87898742E027
:103BA000BE01675F7F4FCE01479644DE86E591E315
:103BB000A2E3B0E089839A83AB83BC83188F0F8B19
:103BC00044E0BE016F5F7F4FCE01479633DEE0ECED
:103BD000F7E064918F01662361F0772767FD7095A8
:103BE0008FEF9CE10E94AF0F0F5F1F4FF8016491B0
:103BF000F2CFE0EBF7E064918F01662361F0772765
:103C000067FD70958FEF9CE10E94AF0F0F5F1F4F14
:103C1000F8016491F2CF6AE070E08FEF9CE10E94BE
:103C2000AF0F68960FB6F894DEBF0FBECDBFDF9121
:103C3000CF911F910F9108950F931F93CF93DF930F
:103C4000C0ECD7E0FE0164918E01662361F0772716
:103C500067FD70958FEF9CE10E94AF0F0F5F1F4FC4
:103C6000F8016491F2CFE0EAF7E064918F016623F6
:103C700061F0772767FD70958FEF9CE10E94AF0F91
:103C80000F5F1F4FF8016491F2CF6AE070E08FEF91
:103C90009CE10E94AF0FFE01649100EC17E06623E7
:103CA00061F0772767FD70958FEF9CE10E94AF0F61
:103CB0000F5F1F4FF8016491F2CF4091E0195091CE
:103CC000E1196091E2197091E31988E997E00E9487
:103CD000CE324091E4195091E5196091E619709146
:103CE000E71985E997E00E94CE324091E81950919A
:103CF000E9196091EA197091EB1982E997E00E9445
:103D0000CE324091EC195091ED196091EE197091FD
:103D1000EF198FE897E00E94CE3263E97CE08FEFE5
:103D20009CE10F945A6F6AE070E08FEF9CE10E9473
:103D3000AF0FFE01649100EC17E0662361F0772776
:103D400067FD70958FEF9CE10E94AF0F0F5F1F4FD3
:103D5000F8016491F2CFE5E7F7E064918F01662303
:103D600061F0772767FD70958FEF9CE10E94AF0FA0
:103D70000F5F1F4FF8016491F2CF6AE070E08FEFA0
:103D80009CE10E94AF0FFE01649100EC17E06623F6
:103D900061F0772767FD70958FEF9CE10E94AF0F70
:103DA0000F5F1F4FF8016491F2CF4091F0195091CD
:103DB000F1196091F2197091F3198CE697E00E9465
:103DC000CE324091F4195091F5196091F619709125
:103DD000F71989E697E00E94CE324091F819509188
:103DE000F9196091FA197091FB1986E697E00E9423
:103DF000CE324091FC195091FD196091FE197091DD
:103E0000FF1983E697E00E94CE3263E97CE08FEFF2
:103E10009CE10F945A6F6AE070E08FEF9CE10E9482
:103E2000AF0FFE01649100EC17E0662361F0772785
:103E300067FD70958FEF9CE10E94AF0F0F5F1F4FE2
:103E4000F8016491F2CFE5E4F7E064918F01662315
:103E500061F0772767FD70958FEF9CE10E94AF0FAF
:103E60000F5F1F4FF8016491F2CF6AE070E08FEFAF
:103E70009CE10E94AF0FFE01649100EC17E0662305
:103E800061F0772767FD70958FEF9CE10E94AF0F7F
:103E90000F5F1F4FF8016491F2CF4091D0195091FC
:103EA000D1196091D2197091D3198CE397E00E94D7
:103EB00016334091D4195091D5196091D61970914B
:103EC000D71989E397E00E9416334091D819509191
:103ED000D9196091DA197091DB1986E397E00E9495
:103EE00016334091DC195091DD196091DE19709103
:103EF000DF1983E397E00E94163363E97CE08FEFDC
:103F00009CE10F945A6F6AE070E08FEF9CE10E9491
:103F1000AF0FFE01649100EC17E0662361F0772794
:103F200067FD70958FEF9CE10E94AF0F0F5F1F4FF1
:103F3000F8016491F2CFEEEFF6E064918F01662311
:103F400061F0772767FD70958FEF9CE10E94AF0FBE
:103F50000F5F1F4FF8016491F2CF6AE070E08FEFBE
:103F60009CE10E94AF0FFE01649100EC17E0662314
:103F700061F0772767FD70958FEF9CE10E94AF0F8E
:103F80000F5F1F4FF8016491F2CF4091C819509113
:103F9000C9196091CA197091CB1985EF96E00E94FA
:103FA000CE324091C4195091C5196091C6197091D3
:103FB000C71982EF96E00E94CE3263E97CE08FEF72
:103FC0009CE10F945A6F6AE070E08FEF9CE10E94D1
:103FD000AF0FFE01649100EC17E0662361F07727D4
:103FE00067FD70958FEF9CE10E94AF0F0F5F1F4F31
:103FF000F8016491F2CFEFE3F6E064918F0166235C
:1040000061F0772767FD70958FEF9CE10E94AF0FFD
:104010000F5F1F4FF8016491F2CF6AE070E08FEFFD
:104020009CE10E94AF0FFE01649100EC17E0662353
:1040300061F0772767FD70958FEF9CE10E94AF0FCD
:104040000F5F1F4FF8016491F2CF4091CC1950914E
:10405000CD196091CE197091CF1986E396E00E9438
:10406000CE324091B4195091B5196091B619709142
:10407000B71983E396E00E94CE324091001A509126
:10408000011A6091021A7091031A80E396E00E946F
:1040900016334091C0195091C1196091C2197091A5
:1040A000C3198DE296E00E94CE324091BC19509126
:1040B000BD196091BE197091BF198AE296E00E9405
:1040C000CE324091B8195091B9196091BA197091D6
:1040D000BB1987E296E00E94CE3263E97CE08FEF65
:1040E0009CE10F945A6F6AE070E08FEF9CE10E94B0
:1040F000AF0FFE01649100EC17E0662361F07727B3
:1041000067FD70958FEF9CE10E94AF0F0F5F1F4F0F
:10411000F8016491F2CFE5E1F6E064918F01662346
:1041200061F0772767FD70958FEF9CE10E94AF0FDC
:104130000F5F1F4FF8016491F2CF6AE070E08FEFDC
:104140009CE10E94AF0FFE01649100EC17E0662332
:1041500061F0772767FD70958FEF9CE10E94AF0FAC
:104160000F5F1F4FF8016491F2CF409142105091C0
:10417000431060914410709145108CE096E00E94CD
:10418000CE32409146105091471060914810709186
:10419000491089E096E00E94CE3240914A10509139
:1041A0004B1060914C1070914D1086E096E00E948B
:1041B000CE3263E97CE08FEF9CE10F945A6F6AE0A6
:1041C00070E08FEF9CE10E94AF0FFE01649100EC64
:1041D00017E0662361F0772767FD70958FEF9CE10C
:1041E0000E94AF0F0F5F1F4FF8016491F2CFE8EF0D
:1041F000F5E064918F01662361F0772767FD709584
:104200008FEF9CE10E94AF0F0F5F1F4FF801649189
:10421000F2CF6AE070E08FEF9CE10E94AF0FFE01E9
:10422000649100EC17E0662361F0772767FD7095D5
:104230008FEF9CE10E94AF0F0F5F1F4FF801649159
:10424000F2CF4091FD025091FE026091FF02709109
:1042500000038BEE95E00E94CE326091F5027091E2
:10426000F6028091F7029091F8020F943D64AB0141
:10427000BC0188EE95E00E94CE326091ED02709113
:10428000EE028091EF029091F0020F944964AB012D
:10429000BC0185EE95E00E94CE3240910103509121
:1042A0000203609103037091040385ED95E00E9481
:1042B000CE326091F9027091FA028091FB029091E6
:1042C000FC020F943D64AB01BC0182ED95E00E94BD
:1042D000CE326091F1027091F2028091F3029091DE
:1042E000F4020F944964AB01BC018FEC95E00E948D
:1042F000CE3263E97CE08FEF9CE10F945A6F6AE065
:1043000070E08FEF9CE10E94AF0FFE01649100EC22
:1043100017E0662361F0772767FD70958FEF9CE1CA
:104320000E94AF0F0F5F1F4FF8016491F2CFE1ECD5
:10433000F5E064918F01662361F0772767FD709542
:104340008FEF9CE10E94AF0F0F5F1F4FF801649148
:10435000F2CF6AE070E08FEF9CE10E94AF0FFE01A8
:10436000649100EC17E0662361F0772767FD709594
:104370008FEF9CE10E94AF0F0F5F1F4FF801649118
:10438000F2CF40912B0250912C0260912D0270913E
:104390002E028DEB95E00E94CE3240913302509177
:1043A0003402609135027091360289EB95E00E94EB
:1043B000CE3240913B0250913C0260913D0270919F
:1043C0003E0285EB95E00E94CE3240912F10509135
:1043D000301060913110709132108CEA95E00E949B
:1043E000CE3263E97CE08FEF9CE10F945A6F6AE074
:1043F00070E08FEF9CE10E94AF0FFE01649100EC32
:1044000017E0662361F0772767FD70958FEF9CE1D9
:104410000E94AF0F0F5F1F4FF8016491F2CFEFE9D9
:10442000F5E064918F01662361F0772767FD709551
:104430008FEF9CE10E94AF0F0F5F1F4FF801649157
:10444000F2CF6AE070E08FEF9CE10E94AF0FFE01B7
:10445000649100EC17E0662361F0772767FD7095A3
:104460008FEF9CE10E94AF0F0F5F1F4FF801649127
:10447000F2CF6091A4107091A510882777FD8095E8
:10448000982F0F946473AB01BC0184E995E00E94FE
:10449000CE326091A2107091A310882777FD80958D
:1044A000982F0F946473AB01BC0189E895E00E94DA
:1044B000CE3260919E1070919F10882777FD809575
:1044C000982F0F946473AB01BC0181E895E00E94C2
:1044D000CE326091A0107091A110882777FD809551
:1044E000982F0F946473AB01BC0187E795E00E949D
:1044F000CE3263E97CE08FEF9CE10F945A6F6AE063
:1045000070E08FEF9CE10E94AF0FFE01649100EC20
:1045100017E0662361F0772767FD70958FEF9CE1C8
:104520000E94AF0F0F5F1F4FF8016491F2CFEAE6D0
:10453000F5E064918F01662361F0772767FD709540
:104540008FEF9CE10E94AF0F0F5F1F4FF801649146
:10455000F2CF6AE070E08FEF9CE10E94AF0FFE01A6
:10456000649100EC17E0662361F0772767FD709592
:104570008FEF9CE10E94AF0F0F5F1F4FF801649116
:10458000F2CF60919C1070919D10882777FD8095E7
:10459000982F0F946473AB01BC018FE595E00E94E6
:1045A000CE3260919A1070919B10882777FD80958C
:1045B000982F0F946473AB01BC0184E595E00E94D1
:1045C000CE326091961070919710882777FD809574
:1045D000982F0F946473AB01BC018CE495E00E94AA
:1045E000CE326091981070919910882777FD809550
:1045F000982F0F946473AB01BC0182E495E00E9494
:10460000CE3263E97CE08FEF9CE10F945A6F6AE051
:1046100070E08FEF9CE10E94AF0FFE01649100EC0F
:1046200017E0662361F0772767FD70958FEF9CE1B7
:104630000E94AF0F0F5F1F4FF8016491F2CFEDE3BF
:10464000F5E064918F01662361F0772767FD70952F
:104650008FEF9CE10E94AF0F0F5F1F4FF801649135
:10466000F2CF6AE070E08FEF9CE10E94AF0FFE0195
:10467000C49100EC17E0CC2369F06C2F772767FD1D
:1046800070958FEF9CE10E94AF0F0F5F1F4FF801F5
:10469000C491F1CF6091021070910310882777FDCB
:1046A0008095982F0F946473AB01BC0184E395E06F
:1046B0000E94CE326091001070910110882777FD22
:1046C0008095982F0F946473AB01BC0186E295E04E
:1046D0000E94CE326091FE0F7091FF0F882777FD08
:1046E0008095982F0F946473AB01BC0184E195E031
:1046F0000E94CE326091FC0F7091FD0F882777FDEC
:104700008095982F0F946473AB01BC0187E095E00E
:104710000E94CE326091FA0F7091FB0F882777FDCF
:104720008095982F0F946473AB01BC018AEF94E0DD
:104730000E94CE326091F80F7091F90F882777FDB3
:104740008095982F0F946473AB01BC018DEE94E0BB
:104750000E94CE3263E97CE08FEF9CE10F945A6FA8
:104760006AE070E08FEF9CE1DF91CF911F910F9194
:104770000C94AF0FAF92BF92CF92DF92EF92FF9265
:104780000F931F93CF93DF93CDB7DEB7E0970FB6AC
:10479000F894DEBF0FBECDBF80E1E5E0F3E0DE01BF
:1047A000919601900D928A95E1F780E1E5E1F3E0C1
:1047B000DE01519601900D928A95E1F780E1E5E2E4
:1047C000F3E0DE01119601900D928A95E1F76E01FA
:1047D00081E2C80ED11C80EEE82E89E1F82E8E0110
:1047E0000F5E1F4F60EF79E1AE014F5F5F4F90EDBD
:1047F000A92E99E1B92E20E030E0F6018191919146
:10480000A191B1916F01F70181939193A193B1931C
:104810007F01F80181919191A191B1918F01FB01EB
:1048200081939193A193B193BF01FA0181919191E9
:10483000A191B191AF01F50181939193A193B193AE
:104840005F012F5F3F4F24303105B9F60F944B3491
:1048500080E090E8ABEBB4E48093C8199093C91959
:10486000A093CA19B093CB1980E090E0AAEFB4E40A
:104870008093C4199093C519A093C619B093C71912
:104880001092CC191092CD191092CE191092CF1906
:1048900080E29EE4A0E0B0E08093001A9093011AB9
:1048A000A093021AB093031A1092B4191092B5197A
:1048B0001092B6191092B71980E090E0A0EAB0E427
:1048C0008093C0199093C119A093C219B093C319D2
:1048D0004DEC5CEC6CEC7EE34093BC195093BD193D
:1048E0006093BE197093BF198093B8199093B9194A
:1048F000A093BA19B093BB1910924A1010924B10A2
:1049000010924C1010924D101092461010924710B9
:1049100010924810109249101092421010924310B9
:10492000109244101092451067ED70E07093A11042
:104930006093A0104CED50E05093A5104093A4104C
:104940002AEA30E03093A3102093A21081E490E093
:1049500090939F1080939E1070939110609390108D
:10496000509395104093941030939310209392108D
:1049700090938F1080938E1070939910609398107D
:1049800050939D1040939C1030939B1020939A104D
:10499000909397108093961070938910609388106D
:1049A00050938D1040938C1030938B1020938A106D
:1049B00090938710809386108AE999E9A9E3B0EC77
:1049C00080932F1090933010A0933110B093321039
:1049D000E0ECF7E064918F01662361F0772767FDD3
:1049E00070958FEF9CE10E94AF0F0F5F1F4FF80192
:1049F0006491F2CFE1EBF4E064918F01662361F002
:104A0000772767FD70958FEF9CE10E94AF0F0F5FD6
:104A10001F4FF8016491F2CF6AE070E08FEF9CE1E4
:104A2000E0960FB6F894DEBF0FBECDBFDF91CF91F9
:104A30001F910F91FF90EF90DF90CF90BF90AF90BC
:104A40000C94AF0FCF92DF92EF92FF92CF93DF9350
:104A500083E393EFA7E9B3E480932B0290932C02B6
:104A6000A0932D02B0932E028AE999E9A9E1BEEB49
:104A70008093330290933402A0933502B0933602B0
:104A80008DEC9CECACECBDEB80933B0290933C0234
:104A9000A0933D02B0933E022CE5C22E2FE8D22E09
:104AA00022E7E22E21E4F22EC092FD02D092FE0215
:104AB000E092FF02F092000361EE7AE784E99FE35F
:104AC0000F9437646093F5027093F6028093F702B7
:104AD0009093F8026FE175E885E492E40F944364E3
:104AE0006093ED027093EE028093EF029093F002D8
:104AF000C0920103D0920203E0920303F0920403F8
:104B000061EE7AE784E99FE30F9437646093F902DA
:104B10007093FA028093FB029093FC026FE175E8B8
:104B200085E492E40F9443646093F1027093F2027F
:104B30008093F3029093F40280E090E0A0E8BFE35A
:104B40008093E5029093E602A093E702B093E80217
:104B50008093E9029093EA02A093EB02B093EC02F7
:104B6000E0ECF7E06491EF01662359F0772767FDE9
:104B700070958FEF9CE10E94AF0F2196FE0164912A
:104B8000F3CFE1E8F4E06491EF01662359F0772771
:104B900067FD70958FEF9CE10E94AF0F2196FE019B
:104BA0006491F3CF6AE070E08FEF9CE1DF91CF91E9
:104BB000FF90EF90DF90CF900C94AF0F0F931F9367
:104BC000CF93DF93CDB7DEB768970FB6F894DEBF0B
:104BD0000FBECDBF84E690E0988F8F8B86E591E382
:104BE000A2E3B0E089839A83AB83BC8344E0BE0137
:104BF0006B5F7F4FCE0147960E94401C43E050E020
:104C0000BE016B5F7F4FCE0101960F941E7D892BF5
:104C100009F09BC140E160EE79E1CE0147960E9428
:104C2000401C40E160EF79E1CE0147960E94401CB4
:104C300040E160ED79E1CE0147960E94401C0F945F
:104C40004B3444E068EC79E1CE0147960E94401C69
:104C500044E064EC79E1CE0147960E94401C44E0B8
:104C60006CEC79E1CE0147960E94401C44E064EB75
:104C700079E1CE0147960E94401C44E060E07AE171
:104C8000CE0147960E94401C44E060EC79E1CE01E1
:104C900047960E94401C44E06CEB79E1CE014796B8
:104CA0000E94401C44E068EB79E1CE0147960E94E7
:104CB000401C4CE062E470E1CE0147960E94401C2B
:104CC00042E0BE016B5E7F4FCE0147960E94401CC2
:104CD00042E0BE016D5E7F4FCE0147960E94401CB0
:104CE00042E0BE016F5E7F4FCE0147960E94401C9E
:104CF00042E0BE01615F7F4FCE0147960E94401C9B
:104D000042E0BE01635F7F4FCE0147960E94401C88
:104D100042E0BE01655F7F4FCE0147960E94401C76
:104D200044E06FE270E1CE0147960E94401C44E0EF
:104D30006BE272E0CE0147960E94401C44E063E3C0
:104D400072E0CE0147960E94401C44E06BE372E0A3
:104D5000CE0147960E94401C42E060EA70E1CE011D
:104D600047960E94401C42E064EA70E1CE014796FB
:104D70000E94401C42E062EA70E1CE0147960E9428
:104D8000401C42E06EE970E1CE0147960E94401C53
:104D900042E060E970E1CE0147960E94401C42E08B
:104DA00064E970E1CE0147960E94401C42E062E94E
:104DB00070E1CE0147960E94401C42E06EE870E12F
:104DC000CE0147960E94401C42E068E970E1CE01A6
:104DD00047960E94401C42E06CE970E1CE01479684
:104DE0000E94401C42E06AE970E1CE0147960E94B1
:104DF000401C42E066E970E1CE0147960E94401CEB
:104E000042E068E870E1CE0147960E94401C42E013
:104E10006CE870E1CE0147960E94401C42E06AE8CF
:104E200070E1CE0147960E94401C42E066E870E1C6
:104E3000CE0147960E94401C44E06DEF72E0CE0127
:104E400047960E94401C44E065EF72E0CE01479611
:104E50000E94401C44E06DEE72E0CE0147960E9435
:104E6000401C44E061E073E0CE0147960E94401C84
:104E700044E069EF72E0CE0147960E94401C44E096
:104E800061EF72E0CE0147960E94401C42E062E072
:104E900070E1CE0147960E94401C42E06EEF7FE039
:104EA000CE0147960E94401C42E06CEF7FE0CE01AD
:104EB00047960E94401C42E06AEF7FE0CE01479691
:104EC0000E94401C42E060E070E1CE0147960E94E3
:104ED000401C42E068EF7FE0CE0147960E94401CF4
:104EE00042E0BE01675F7F4FCE0147960E94401CA3
:104EF0000F945E54E0ECF7E064918F01662361F05B
:104F0000772767FD70958FEF9CE10E94AF0F0F5FD1
:104F10001F4FF8016491F2CFE3EDF4E064918F014B
:104F2000662361F0772767FD70958FEF9CE10E9403
:104F3000AF0F0F5F1F4FF8016491F2CF6AE070E08E
:104F40008FEF9CE10E94AF0F04C014DC7BDD0E9458
:104F5000661C68960FB6F894DEBF0FBECDBFDF911A
:104F6000CF911F910F910895823D9440F1F41092DA
:104F70000110109200101092F90F1092F80F109279
:104F8000FD0F1092FC0F1092FB0F1092FA0F10926F
:104F90000310109202101092FF0F1092FE0F68E69D
:104FA00073E08FEF9CE10D94656F0895FC01E65965
:104FB000F109E63AF10518F069E773E023C0FB0157
:104FC000E659F109E63AF105B8F7FA01E659F109AF
:104FD000E63AF10588F7F9013597EA36F10560F709
:104FE0009093A5108093A4107093A3106093A210C7
:104FF0005093A1104093A01030939F1020939E10C7
:1050000061E778E08FEF9CE10D94656FFC01E65954
:10501000F109E63AF10518F069E773E023C0FB01F6
:10502000E659F109E63AF105B8F7FA01E659F1094E
:10503000E63AF10588F7F9013597EA36F10560F7A8
:1050400090939D1080939C1070939B1060939A1086
:105050005093991040939810309397102093961086
:1050600061E778E08FEF9CE10D94656FAF92BF929E
:10507000CF92DF92EF92FF920F931F9360932B02D8
:1050800070932C0280932D0290932E022093330272
:10509000309334024093350250933602E0923B0243
:1050A000F0923C0200933D0210933E02A0922F101A
:1050B000B0923010C0923110D09232101F910F91E7
:1050C000FF90EF90DF90CF90BF90AF900895FC01DC
:1050D000EA57FF4F11821082329611821082329667
:1050E00011821082369711821082B1971082DC01F2
:1050F000A958BF4FED93FC93769628EE33E03183A9
:10510000208332961182108232961182108232965A
:1051100010823196118210820895CF93DF93EC01B3
:10512000CE57DF4F88819981DC01ED91FC9104809D
:10513000F581E02D199518161906A4F78881998133
:10514000DC01ED91FC910680F781E02D1995DF914E
:10515000CF9108950F931F93CF93DF93EC01CE5718
:10516000DF4F88819981DC01ED91FC910480F5810C
:10517000E02D199518161906A4F788819981DC018C
:10518000ED91FC910680F781E02D199500E010E08B
:10519000182F88819981DC01ED91FC910680F781BF
:1051A000E02D1995802B912BDF91CF911F910F91BD
:1051B0000895FC01E958FF4FA081B1818D599F4F9F
:1051C0008A179B0780F48FEF8C93808191810197E0
:1051D0009183808380916A0D90916B0D01979093DC
:1051E0006B0D80936A0D08950F931F93CF93DF93F8
:1051F0008C01EC01CE57DF4F88819981DC01ED9164
:10520000FC910480F581E02D1995892B41F4F8017A
:10521000E358FF4F8DEF9FEF918380830AC0888111
:105220009981DC01ED91FC910680F781E02D1995C3
:105230009927DF91CF911F910F910895FC01E358B9
:10524000FF4F11821082D0CF0895CF93DF93EC01EE
:10525000CE57DF4F88819981DC01ED91FC9106806A
:10526000F781E02D199597FFF5CFDF91CF91089544
:10527000CF93DF93EC01E9DFFE01E05AFF4F10828C
:105280003196108231961082799611821082109296
:105290006B0D10926A0D3497CD59DF4FD183C083C7
:1052A0001882DF91CF910895CF93DF93EC01CE590F
:1052B000DF4F28812223D1F09C01205A3F4FF90172
:1052C000508146E0FC01459FE00DF11D1124DB01FA
:1052D00001900D924A95E1F7F90180818F5F8F70FF
:1052E000808388818150888381E001C080E0DF91E4
:1052F000CF910895BF92CF92DF92EF92FF920F93DA
:105300001F93CF93DF93FB01EC01CE59DF4FE88071
:105310002DE02E15B0F1AC014F595F4FDA010C9121
:1053200010E0980160E070E0F12CA6E0DA2EE616BD
:10533000F70681F12150310910F42FE030E0D29EC0
:10534000D001D39EB00D1124A80FB91FBC90C0800E
:10535000BC1014C01196BC901197C180BC100EC037
:105360001296BC901297C280BC1008C0838113961D
:105370008C931397848114968C9321C06F5F7F4F19
:10538000D6CFFC01E358FF4F2BEF3FEF3183208353
:1053900080E015C026E0209FD001219FB00D112490
:1053A000A80FB91F01900D922A95E1F7FA018081AB
:1053B0008F5F8F70808388818F5F888381E0DF912A
:1053C000CF911F910F91FF90EF90DF90CF90BF9002
:1053D0000895FC01E958FF4F0190F081E02D6083B2
:1053E000635071096230710520F4FC01E158FF4FF0
:1053F000108208950F931F93CF93DF931F92CDB721
:10540000DEB78C0180916A0D90916B0D449724F06A
:10541000C80169832DDF698180916A0D90916B0DC0
:10542000019690936B0D80936A0DF801E958FF4F38
:105430008081918101969183808370E0C8010F90F3
:10544000DF91CF911F910F91C4CFAF92BF92CF92B6
:10545000DF92EF92FF921F93CF93DF931F92CDB70E
:10546000DEB75C016983EADE182F65012DE7C20E05
:10547000D11CD6018D919C916981039699F4F50117
:10548000EE59FF4F8081882309F477C0B4960190CC
:10549000F081E02D309709F470C0662309F46DC0E7
:1054A00019956BC07501E7E7EE0EF11CD701ED9180
:1054B000FC918081813049F018F08230E9F036C0EB
:1054C0001A3059F11B3039F42CC01A3031F138F44C
:1054D000163009F44FC0173009F055C01CC01B30FE
:1054E00001F1153109F04FC0C50163DE8CEF9FEF6C
:1054F000F6019183808347C0173069F038F4153086
:1055000009F041C0C50155DE63E00EC01A3029F034
:105510001B3039F038C064E007C01092690D66E0B6
:1055200003C01092690D67E0C50164DFD701ED91FA
:10553000FC9180819DEF980F923010F57501FFE787
:10554000EF0EF11CD7012C91222301F18091680DFF
:1055500081278093680DE22FF0E0EE59F24F10831F
:105560002530D9F4811114C062E67DE0C501C2DEA8
:10557000F7011082C5011DDE06C080E090E05AC030
:105580008650823070F081E090E054C0812FE1CFEE
:1055900088EF9FEFD6018D939C932F5FF7012083B7
:1055A000F2CF8091690D813031F41093600D82E06B
:1055B0008093690DE8CF813020F410935F0D81E076
:1055C000F7CF823001F71093610D83E08093690D6E
:1055D00080915F0D8A3091F4F501E857FF4F0190FB
:1055E000F081E02D3097A1F48091610D815080937E
:1055F000610D8823E1F0C50190DDF6CF8B30B9F461
:10560000F501E657FF4F0190F081E02D309729F02A
:10561000612F8091600D19950AC08091610D8150B4
:105620008093610D882319F0C50194DDF6CFC50183
:1056300074DDA0CF0F90DF91CF911F91FF90EF907D
:10564000DF90CF90BF90AF900895AF92BF92CF926E
:10565000DF92EF92FF920F931F93CF93DF93EC01B2
:105660000F94D3696B017C018E0107581F4FD8013D
:105670008D919C91AA2797FDA095BA2FC80ED91E8F
:10568000EA1EFB1E5E01B7E7AB0EB11C0F94D36997
:105690006C157D058E059F05D8F460E0CE01D5DE42
:1056A000019779F40F94D3696B017C01F801808133
:1056B0009181AA2797FDA095BA2FC80ED91EEA1E80
:1056C000FB1ED501ED91FC9180818111DFCF06C0D9
:1056D000C358DF4F8FEF9FEF99838883DF91CF917E
:1056E0001F910F91FF90EF90DF90CF90BF90AF9000
:1056F0000895BF92CF92DF92EF92FF920F931F9384
:10570000CF93DF938C01D62EC42E79019EDFF80152
:10571000E358FF4F11821082E801CE57DF4F888196
:105720009981DC01ED91FC910190F081E02D61E027
:10573000199588819981DC01ED91FC910190F081AE
:10574000E02D6D2D199588819981DC01ED91FC91F9
:105750000190F081E02D6C2D1995BB24B394BC24ED
:10576000BD2488819981DC01ED91FC910190F0814B
:10577000E02D6F2D1995BF2488819981FF24DC01CC
:10578000ED91FC910190F081E02D6E2D19958881AD
:105790009981DC01ED91FC916B2D6E250190F081DA
:1057A000E02D199561E0C80125DEDF91CF911F91B1
:1057B0000F91FF90EF90DF90CF90BF900895AF9240
:1057C000BF92CF92DF92EF92FF920F931F93CF93EE
:1057D000DF935C016B017A01EA0109900020E9F78F
:1057E0002197C41BD50BCF3FD10511F00CF048C059
:1057F0002CDF85010E571F4FD8018D919C91DC0144
:10580000ED91FC910190F081E02D62E01995F80195
:1058100080819181DC01ED91FC910190F081E02D7E
:105820006C2D1995B2E0CB26F80180819181DC01C5
:10583000ED91FC910190F081E02D6C2F1995CC2613
:10584000DD26D7016C91F80180819181DC01ED9119
:10585000FC910190F081E02D662351F01995F7013C
:1058600081917F01992787FD9095C826D926E9CF98
:105870006C2D199561E0C501BDDD80E090E002C0AE
:105880008FEF9FEFDF91CF911F910F91FF90EF90DE
:10589000DF90CF90BF90AF9008952F923F924F929C
:1058A0005F926F927F928F929F92AF92BF92CF92B0
:1058B000DF92EF92FF920F931F93CF93DF93CDB7B9
:1058C000DEB7A9970FB6F894DEBF0FBECDBF9FA37A
:1058D0008EA379A768A769017A01580119A220E06F
:1058E00030E0A901C701B6010F94C2722601370149
:1058F00087FF04C077FA709477F8709400E010E0A6
:1059000060E070E080E09FE30A151B054CF420E0A6
:1059100030E040E251E40F94C9720F5F1F4FF4CFA3
:105920009B01AC01C301B2010F94E9712B013C0151
:105930000F943673962E272E382E892E0F9462736D
:105940009B01AC01C301B2010F94E8718E010A19E9
:105950001B090F5D1F4F1DA30CA3BBA2AAA2EAA1A6
:10596000FBA11E161F0624F520E030E040E251E4C2
:105970000F9497752B013C010F94317320E3260F90
:10598000ECA1FDA12193FDA3ECA3882777FD8095D1
:10599000982F0F9464739B01AC01C301B2010F9463
:1059A000E8712AA13BA1215031093BA32AA3D7CFFB
:1059B0001A141B0424F48EE2F80182938F014AE04A
:1059C000442E512C612C712C692D722D832D982D14
:1059D000A30192010F949776892DFAE02F9F8019E9
:1059E0001124015011098A3014F4805D01C0895CD2
:1059F000F8018083211531054105510529F0922ECA
:105A0000232E342E852EE0CF20E030E0A901C701FF
:105A1000B6010F94C27287FF05C001501109F80149
:105A20008DE28083A80168A579A58EA19FA1C7DE1C
:105A300080E090E0A9960FB6F894DEBF0FBECDBF10
:105A4000DF91CF911F910F91FF90EF90DF90CF905A
:105A5000BF90AF909F908F907F906F905F904F908E
:105A60003F902F9008958A579F4FFC017183608368
:105A70000895CF93DF93EC01FC01EE57FF4F718344
:105A8000608360E0B7DCFE01E05AFF4F1082319680
:105A90001082CE59DF4F1882DF91CF9108950F9376
:105AA0001F93CF93DF938C01C0EED9E1F801619190
:105AB0007191819191918F012991399149915991D8
:105AC0000F9497750F943173F801648775878687F3
:105AD0009787F9E1C03FDF0749F7DF91CF911F9129
